:0400000061EF00F0BC
:0E0008003D82FACF12F0FBCF13F024ED04F08E
:100018003D80D8CF01F0E8CF02F0E0CF03F0FACF6F
:1000280004F0FBCF05F0E9CF06F0EACF07F0E1CF07
:1000380008F0E2CF09F0D9CF0AF0DACF0BF0F3CF0E
:100048000CF0F4CF0DF0F6CF0EF0F7CF0FF0F8CF9D
:1000580010F0F5CF11F0A0B2A1A20BD0010E3826F6
:10006800000E39223A223B222C0EB26ECF0EB36E0E
:10007800A19211C0F5FF10C0F8FF0FC0F7FF0EC026
:10008800F6FF0DC0F4FF0CC0F3FF0BC0DAFF0AC087
:10009800D9FF09C0E2FF08C0E1FF07C0EAFF06C0B8
:1000A800E9FF05C0FBFF04C0FAFF03C0E0FF02C080
:0E00B800E8FF01C0D8FF3D90100083EF04F078
:100600000048690A000082EC03F0010E206E060E1D
:10061000216E030E226E5BEC04F0F70E2D6EC00E01
:10062000E82EFED72D2EFCD75FD09EAA5DD0550EAA
:10063000AE18D8A459D0550E2E6E000E386E000E8E
:10064000396E000E3A6E000E3B6E010E376E010ED3
:1006500035D0070E376017D09EAA0CD03750010D49
:100660002E0EF324D96E000EF420DA6EAECFDFFF2B
:10067000372A3AD03B503A10391034E1330E385C07
:10068000D8A032D02FD0000E84B6010E356E020EE7
:1006900015D02E0E2A6E000E2B6E37C02CF073EC88
:1006A00004F00009D8A41ED035502F18D8B403D0B8
:1006B0002F28D8A417D030C036F0030E3C6E14D0CB
:1006C0003150D8B402D080800DD080900BD0000E75
:1006D0003C6EFF0009D036501E0AD8B4F1D7010A8B
:1006E000D8B4F5D7000EEAD73C50000AD8B49DD74D
:1006F000010AD8B4AED7030AD8B4CBD7010AD8B40C
:10070000EAD7F0D7000E226E000E216E1F0E806E0B
:10071000FE0E926EDF0E816E130E936E000E826ED1
:10072000F90E946E0F0EC16E8080819A040EAC6E2D
:10073000800EAB6EB886020EB06E080EAF6E020E63
:10074000CA6E4F0ECB6E000ECC6E0C0EBD6E0C0E34
:10075000BA6E1E0EBE6E1E0EBB6EF90EB16E2C0E64
:10076000B26ECF0EB36EA082D08EA292A192000E76
:100770003C6E819E818C81968184CA84000E226E9B
:10078000000E216E22BE06D0225012E10A0E215C1C
:10079000D8B00ED0F70E206EC00EE82EFED7202E59
:1007A000FCD7214A222A22BEF5D7225001E1EED7FA
:1007B0008090AC8AAB889D9AF28CF28E1200000E6B
:1007C000296E000E286E000E256E35D0800E276E25
:1007D000000E266E070E266401D02CD0000E2814C1
:1007E000236E800E2914246ED8902834286E293464
:1007F000296E2550010DF3502024D96EF45021208C
:10080000DA6EDF5027140009D8B405D0010E281085
:10081000286E2950296ED8902730276E2350241037
:10082000D8B406D0210E2818286E100E2918296E6B
:10083000262AD0D7252A2250255CD8A0C7D728C081
:1008400020F029C021F012000600E9CF14F0EACF11
:1008500015F0E1CF16F0E2CF17F0D9CF18F0DACFCC
:1008600019F0F3CF1AF0F4CF1BF0F6CF1CF0F7CF4E
:100870001DF0F8CF1EF0F5CF1FF01FC0F5FF1EC012
:10088000F8FF1DC0F7FF1CC0F6FF1BC0F4FF1AC025
:10089000F3FF19C0DAFF18C0D9FF17C0E2FF16C076
:1008A000E1FF15C0EAFF14C0E9FF13C0FBFF12C04F
:1008B000FAFF3D921100818A000E236E0ED09EA891
:1008C000FED720C0F6FF21C0F7FF0800F5CFADFF2F
:1008D000204A212AACA2FED7232A2250235CD8A08A
:1008E000EED7819A12002AC020F02BC021F02CC034
:1008F00022F0DFEC03F020502110D8A402D0000E2B
:100900001200FF0E12003C6A3B6A3A6A396A386A82
:0E0910003D903D92000EF86E000103EF03F0E3
:020000040020DA
:08000000FFFFFFFFFFFFFFFF00
:020000040030CA
:0E000000FF061E1EFF0181FF0FC00FE00F4024
:00000001FF
