:0400000063EF00F0BA
:0E0008007782FACFCBF0FBCFCCF00BED09F0F6
:100018007780D8CF46F0E8CF47F0E0CF48F0FACF66
:1000280049F0FBCF4AF0E9CF4BF0EACF4CF0E1CFF3
:100038004DF0E2CF4EF0D9CF4FF0DACF50F0F3CFFA
:1000480051F0F4CF52F0F6CF53F0F7CF54F0F8CF89
:1000580055F0F5CF56F0A0B2A1A20DD0010E5F2643
:10006800000E6022612262222C0EB26ECF0EB36E99
:1000780035EC04F0A19256C0F5FF55C0F8FF54C006
:10008800F7FF53C0F6FF52C0F4FF51C0F3FF50C052
:10009800DAFF4FC0D9FF4EC0E2FF4DC0E1FF4CC0B0
:1000A800EAFF4BC0E9FF4AC0FBFF49C0FAFF48C05E
:1000B800E0FF47C0E8FF46C0D8FF77901000D8EFB0
:1000C8000EF00001BE510001BF19D8B41200000E95
:1000D80001016E6F000E01016D6F000E01016E6F60
:1000E800080E01016E6501D044D00001BF51090D11
:1000F800800E0001E66F000E0001E76FF35000016B
:10010800E627F4500001E72301016E51010DF35079
:100118000001E625D96EF4500001E721DA6E0101ED
:100128006E51010DC00EF324E16E000EF420E26E54
:10013800DFCFE7FF0001BF51090D800E0001E66F18
:10014800000E0001E76FF3500001E627F4500001AC
:10015800E72301016E51010DF3500001E625D96E28
:10016800F4500001E721DA6E000EDF6E01016E2BFC
:10017800B7D70001BF2B060E0001BF19D8A403D0C2
:10018800000E0001BF6F000E81B6010E01016D6FF8
:10019800C00E0001E36F000E0001E46F090E0001BC
:1001A800E56F32EC0FF00009D8A4AAD101016D5116
:1001B8000001C119D8B47ED10001C129D8B47AD1BF
:1001C8009FD1000E0001D96F0001C4510001E76FF3
:1001D800E66B0001C3510001E86FE96B0001E651CD
:1001E8000001E8130001E7510001E913E8C0DAF063
:1001F800E9C0DBF00001000EDBBFFF0EDC6FDD6F36
:10020800000E51EC07F07CD1010E0001D96F0001FE
:10021800C4510001E76FE66B0001C3510001E86FAC
:10022800E96B0001E6510001E8130001E751000104
:10023800E913E8C0DAF0E9C0DBF00001000EDBBF2B
:10024800FF0EDC6FDD6F000E51EC07F059D1020E86
:100258000001D96F0001C4510001E76FE66B00018E
:10026800C3510001E86FE96B0001E6510001E81392
:100278000001E7510001E913E8C0DAF0E9C0DBF05A
:100288000001000EDBBFFF0EDC6FDD6F000E51ECCE
:1002980007F036D1000E0001D96F0001C4510001EA
:1002A800E76FE66B0001C3510001E86FE96B0001DD
:1002B800E6510001E8130001E7510001E913E8C025
:1002C800DAF0E9C0DBF00001000EDBBFFF0EDC6FE7
:1002D800DD6F010E51EC07F013D1010E0001D96F4B
:1002E8000001C4510001E76FE66B0001C351000132
:1002F800E86FE96B0001E6510001E8130001E751DE
:100308000001E913E8C0DAF0E9C0DBF00001000EF3
:10031800DBBFFF0EDC6FDD6F010E51EC07F0F0D094
:10032800020E0001D96F0001C4510001E76FE66BAE
:100338000001C3510001E86FE96B0001E6510001BB
:10034800E8130001E7510001E913E8C0DAF0E9C059
:10035800DBF00001000EDBBFFF0EDC6FDD6F010E6E
:1003680051EC07F0CDD0B6C05EF1B7C05FF1B8C0B0
:1003780060F1B9C061F1BAC062F1BBC063F1BCC041
:1003880064F1BDC065F15E0E0001D96F010E000178
:10039800DA6F080E0001DB6FFAEC0EF0B1D0000145
:1003A800C4510001E76FE66B0001C3510001E86F1B
:1003B800E96B0001E6510001E8130001E751000173
:1003C800E913E8C0DAF0E9C0DBF00001000EDBBF9A
:1003D800FF0EDC6FDD6F000EADEC09F091D000016F
:1003E800C4510001E76FE66B0001C3510001E86FDB
:1003F800E96B0001E6510001E8130001E751000133
:10040800E913E8C0DAF0E9C0DBF00001000EDBBF59
:10041800FF0EDC6FDD6F010EADEC09F071D0500EF0
:100428000001C36503D0500E766E6AD0C3C076F063
:1004380067D00001C4510001E76FE66B0001C351AA
:100448000001E86FE96B0001E6510001E8130001C3
:10045800E7510001E913E8C0DAF0E9C0DBF0000178
:10046800000EDBBFFF0EDC6FDD6F000EADEC09F098
:100478000001C6510001E76FE66B0001C55100019C
:10048800E86FE96B0001E6510001E8130001E7514C
:100498000001E913E8C0DAF0E9C0DBF00001000E62
:1004A800DBBFFF0EDC6FDD6F010EADEC09F028D06D
:1004B800FF0026D00001C251010AD8B482D6030A2F
:1004C800D8B4A2D6010AD8B4C2D6070AD8B4E2D69C
:1004D800010AD8B402D7030AD8B422D7010AD8B47B
:1004E80042D70F0AD8B45BD7010AD8B478D7030A21
:1004F800D8B495D7010AD8B49CD7140AD8B4D8D799
:10050800000E01016E6F080E01016E6501D0120028
:1005180001016E51010DC00EF324D96E000EF420B6
:10052800DA6E000EDF6E01016E2BEDD720EE14F0AF
:100538002750D9262850DA22DECF29F0DDCF2AF03D
:1005480029C0D9FF2AC0DAFFDECF34F0DECF35F07C
:10055800DDCF36F034C018F035C019F036C01AF0C7
:1005680056EC0FF018C01BF019C01CF01AC01DF093
:1005780020EE18F02750D9262850DA22DECF29F0AD
:10058800DDCF2AF029C0D9FF2AC0DAFFDECF1EF05E
:10059800DECF1FF0DDCF20F035EC08F01BC031F0C6
:1005A8001CC032F01DC033F020EE1EF02750D926B3
:1005B8002850DA22DECF1BF0DECF1CF0DDCF1DF095
:1005C80031C00CF032C00DF033C00EF020EE0CF04C
:1005D8002750D9262850DA22DECF09F0DECF0AF0DC
:1005E800DDCF0BF0C4EC0BF009C01EF00AC01FF001
:1005F8000BC020F035EC08F020EE1EF02750D9266D
:100608002850DA221BC0DEFF1CC0DEFF1DC0DEFF43
:1006180020EE2BF02750D9262850DA22DECF01F021
:10062800DECF02F0DDCF03F020EE1EF02750D926F2
:100638002850DA22DECF04F0DECF05F0DDCF06F059
:1006480026EC0EF0D8B003D020EE2BF01ED020EE12
:100658001EF02750D9262850DA22DECF01F0DECF4F
:1006680002F0DDCF03F020EE28F02750D9262850DD
:10067800DA22DECF04F0DECF05F0DDCF06F026EC7F
:100688000EF0D8B012D020EE28F02750D9262850E6
:10069800DA2210EE1EF02750E1262850E222DECFA3
:1006A800E6FFDECFE6FFDECFE6FF20EE21F02750A3
:1006B800D9262850DA22DECF18F0DECF19F0DDCFA8
:1006C8001AF056EC0FF018C01BF019C01CF01AC035
:1006D8001DF034C01EF035C01FF036C020F035ECD8
:1006E80008F01BC02BF01CC02CF01DC02DF02BC037
:1006F8000CF02CC00DF02DC00EF020EE0FF027509E
:10070800D9262850DA22DECF09F0DECF0AF0DDCF75
:100718000BF0C4EC0BF009C018F00AC019F00BC0BC
:100728001AF056EC0FF018C01EF019C01FF01AC0CE
:1007380020F031C00CF032C00DF033C00EF020EEC6
:1007480009F02750D9262850DA22DECF09F0DECF6B
:100758000AF0DDCF0BF0C4EC0BF009C01BF00AC0A7
:100768001CF00BC01DF035EC08F01BC02EF01CC0AF
:100778002FF01DC030F02EC01BF02FC01CF030C071
:100788001DF020EE1EF02750D9262850DA22DECFA1
:100798001EF0DECF1FF0DDCF20F035EC08F01BC0D7
:1007A80037F01CC038F01DC039F020EE2BF0275070
:1007B800D9262850DA22DECF01F0DECF02F0DDCFD5
:1007C80003F037C004F038C005F039C006F026EC55
:1007D8000EF0D8B003D020EE2BF018D037C001F0BF
:1007E80038C002F039C003F020EE28F02750D9268F
:1007F8002850DA22DECF04F0DECF05F0DDCF06F098
:1008080026EC0EF0D8B00CD020EE28F02750D926D0
:100818002850DA22DECF37F0DECF38F0DDCF39F0DE
:1008280020EE16F02750D9262850DA22DECF29F0FC
:10083800DDCF2AF029C0D9FF2AC0DAFF37C0DEFF92
:1008480038C0DEFF39C0DEFF20EE21F02750D92660
:100858002850DA2234C0DEFF35C0DEFF36C0DEFFA6
:10086800120057500001B61911E158500001B7198C
:100878000DE159500001B81909E15A500001B919A0
:10088800D8A404D0000EA8EC0FF08CD0B6C009F0A4
:10089800B7C00AF0B8C00BF0B9C00CF06EEC0EF09F
:1008A80009C06AF00AC06BF00BC06CF057C009F0C1
:1008B80058C00AF059C00BF05AC00CF06EEC0EF09C
:1008C80009C06DF00AC06EF00BC06FF0000E316EFB
:1008D800010E326E6A0E336E000E346E640E356E83
:1008E800000E366E6D0E376E000E386EF60E396ECF
:1008F800280E3A6E400E3B6EE90E3C6E660E3D6E5B
:10090800410E3E6E420E3F6EF70E406E3D0E416E3A
:10091800000E436E000E426EC7EC0AF0000E276E02
:10092800010E286E9AEC02F0645065106610D8A487
:1009380004D0000EA8EC0FF02BD0000E016E000EB4
:10094800026E000E036E64C004F065C005F066C058
:1009580006F026EC0EF0D8B004D0000EB5EC0FF07F
:1009680017D0000EC2EC0FF064C009F065C00AF0A1
:1009780066C00BF0000E0C6E800E0D6EBF0E0E6E74
:10098800C4EC0BF009C064F00AC065F00BC066F057
:1009980064C001F065C002F066C003F04AEC0BF0D9
:1009A8000150BE6E5B500001BA1911E15C500001A4
:1009B800BB190DE15D500001BC1909E15E50000151
:1009C800BD19D8A404D0010EA8EC0FF01200BAC0CB
:1009D80009F0BBC00AF0BCC00BF0BDC00CF06EEC57
:1009E8000EF009C070F00AC071F00BC072F05BC065
:1009F80009F05CC00AF05DC00BF05EC00CF06EEC54
:100A08000EF009C073F00AC074F00BC075F02F0E19
:100A1800316E010E326E700E336E000E346E670E3C
:100A2800356E000E366E730E376E000E386EF60E8B
:100A3800396E280E3A6E400E3B6EE90E3C6E660E1D
:100A48003D6E410E3E6E420E3F6EF70E406E3D0EFD
:100A5800416E000E436E000E426EC7EC0AF02F0E78
:100A6800276E010E286E9AEC02F067506810691024
:100A7800D8A404D0010EA8EC0FF02BD0000E016E04
:100A8800000E026E000E036E67C004F068C005F029
:100A980069C006F026EC0EF0D8B004D0010EB5EC13
:100AA8000FF017D0010EC2EC0FF067C009F068C054
:100AB8000AF069C00BF0000E0C6E800E0D6EBF0EB2
:100AC8000E6EC4EC0BF009C067F00AC068F00BC0EA
:100AD80069F067C001F068C002F069C003F04AEC31
:100AE8000BF00150BB6E12000FC001F010C002F0F5
:100AF80011C003F012C004F013C005F014C006F0D2
:100B080026EC0EF0D8B0120020EE28F00D50D926B1
:100B18000E50DA220FC0DEFF10C0DEFF11C0DEFF6C
:100B280020EE2BF00D50D9260E50DA2212C0DEFF2F
:100B380013C0DEFF14C0DEFF20EE2EF00D50D926C4
:100B48000E50DA22DF50D8B4120020EE2BF00D50F0
:100B5800D9260E50DA22DECF01F0DECF02F0DDCF4B
:100B680003F020EE16F00D50D9260E50DA22DECF13
:100B780015F0DDCF16F015C0D9FF16C0DAFFDECFAD
:100B880004F0DECF05F0DDCF06F026EC0EF0D8B08D
:100B980003D020EE2BF026D020EE16F00D50D926EB
:100BA8000E50DA22DECF15F0DDCF16F015C0D9FFD2
:100BB80016C0DAFFDECF01F0DECF02F0DDCF03F0A2
:100BC80020EE28F00D50D9260E50DA22DECF04F0A0
:100BD800DECF05F0DDCF06F026EC0EF0D8B01AD047
:100BE80020EE28F00D50D9260E50DA2210EE16F01D
:100BF8000D50E1260E50E222E6CF15F0E5CF16F0B3
:100C080015C0E1FF16C0E2FFDECFE6FFDECFE6FF4C
:100C1800DECFE6FF20EE2BF00D50D9260E50DA225B
:100C2800DECF01F0DECF02F0DDCF03F020EE1EF0C4
:100C38000D50D9260E50DA22DECF04F0DECF05F0B3
:100C4800DDCF06F026EC0EF0D8B013D020EE2BF056
:100C58000D50D9260E50DA2210EE1EF00D50E12666
:100C68000E50E222DECFE6FFDECFE6FFDECFE6FF64
:100C7800120020EE1EF00D50D9260E50DA22DECFDB
:100C880001F0DECF02F0DDCF03F020EE28F00D50AA
:100C9800D9260E50DA22DECF04F0DECF05F0DDCF04
:100CA80006F026EC0EF0D8B0120020EE28F00D5019
:100CB800D9260E50DA2210EE1EF00D50E1260E5005
:100CC800E222DECFE6FFDECFE6FFDECFE6FF120050
:100CD80025BE120028BE12002BBE120021C0D9FF6B
:100CE80022C0DAFF23C0DEFF24C0DEFF25C0DEFFFE
:100CF80020EE03F02150D9262250DA2226C0DEFF4A
:100D080027C0DEFF28C0DEFF20EE06F02150D926DE
:100D18002250DA2229C0DEFF2AC0DEFF2BC0DEFF08
:100D280020EE24F02150D9262250DA22DECF09F015
:100D3800DECF0AF0DECF0BF0DECF0CF0AAEC0EF01F
:100D480009C012F00AC013F00BC014F0000E156EA3
:100D58007A0E166E440E176E3EEC0CF012C02EF092
:100D680013C02FF014C030F020EE09F02150D9261E
:100D78002250DA2223C0DEFF24C0DEFF25C0DEFFBA
:100D880026C009F027C00AF028C00BF02EC00CF0CE
:100D98002FC00DF030C00EF0C4EC0BF020EE0CF0BC
:100DA8002150D9262250DA2209C0DEFF0AC0DEFF10
:100DB8000BC0DEFF29C012F02AC013F02BC014F0BC
:100DC8002EC015F02FC016F030C017F03EEC0CF016
:100DD80020EE0FF02150D9262250DA2212C0DEFF71
:100DE80013C0DEFF14C0DEFF20EE12F02150D9261A
:100DF8002250DA22DE04DE10D8A4120020EE09F018
:100E08002150D9262250DA22DECF18F0DECF19F091
:100E1800DDCF1AF056EC0FF020EE09F02150D9265C
:100E28002250DA2218C0DEFF19C0DEFF1AC0DEFF2A
:100E380020EE0CF02150D9262250DA22DECF18F00D
:100E4800DECF19F0DDCF1AF056EC0FF020EE0CF0E3
:100E58002150D9262250DA2218C0DEFF19C0DEFF41
:100E68001AC0DEFF20EE0FF02150D9262250DA22D8
:100E7800DECF18F0DECF19F0DDCF1AF056EC0FF008
:100E880020EE0FF02150D9262250DA2218C0DEFFBA
:100E980019C0DEFF1AC0DEFF12000001E46F000E69
:100EA8000001E26F000E0001E36F0001DA5100015A
:100EB800DB110001DC110001DD11D8A4A1D0020E64
:100EC8000001D919D8A412009BD0000E0001E26FCE
:100ED800010E0001E36F0001E4510001D8A414D011
:100EE8000001DA510001B625576E0001DB510001FF
:100EF800B721586E0001DC510001B821596E00017C
:100F0800DD510001B92148D00001E405D8A482D000
:100F18000001DA510001BA255B6E0001DB510001C6
:100F2800BB215C6E0001DC510001BC215D6E00013B
:100F3800DD510001BD215BD0010E0001E26F000E02
:100F48000001E36F0001E4510001D8A427D0DAC002
:100F5800DEF0DBC0DFF0DCC0E0F0DDC0E1F0000176
:100F6800DE1FDF1FE01FE11FDE2B000EDF23E02363
:100F7800E1230001B6510001DE25576E0001B7518B
:100F88000001DF21586E0001B8510001E021596EBF
:100F98000001B9510001E1215A6E3CD00001E4057D
:100FA800D8A438D0DAC0DEF0DBC0DFF0DCC0E0F077
:100FB800DDC0E1F00001DE1FDF1FE01FE11FDE2BB7
:100FC800000EDF23E023E1230001BA510001DE25F2
:100FD8005B6E0001BB510001DF215C6E0001BC515A
:100FE8000001E0215D6E0001BD510001E1215E6E4E
:100FF80011D0010E0001E26F010E0001E36F0AD06B
:101008000001D951000AD8B460D7010AD8B494D7DE
:10101800030AEFD70001E4510001D8A40FD0819E44
:10102800819C0001E2B102D0819E01D0818E000135
:10103800E3B102D0819C01D0818C12000001E4054B
:10104800D8A41200819A81980001E2B102D0819A55
:1010580001D0818A0001E3B102D0819801D0818852
:1010680012001DC021F0226A236A1C34213601E3D4
:1010780022802150266E20C021F0226A236A1F3464
:10108800213601E322802150256E2650D8B40BD09A
:101098002550265CD8B00ED0265000082524216E95
:1010A800180E216407D01EC01BF01FC01CF020C002
:1010B8001DF012002550D8B40BD02650255CD8B0AE
:1010C8000ED0255000082624216E180E216407D062
:1010D8001BC01BF01CC01CF01DC01DF01200060E2A
:1010E800246E1DBE248E20BE248C1C8EFF0E1B1663
:1010F800FF0E1C16000E1D161F8EFF0E1E16FF0E6D
:101108001F16000E20162550265CD8B01BD0D8908C
:101118001E361F362036250626502518D8B40DD081
:10112800240624C021F0070E2116D8B406D0EFD724
:10113800D8901D321C321B32262A25502618D8B4C6
:101148001FD0F6D72650255CD8B01AD0D8901B36B9
:101158001C361D36260626502518D8B40DD0240670
:1011680024C021F0070E2116D8B406D0EFD7D890A6
:1011780020321F321E32252A25502618D8A4F7D728
:1011880024AE0CD0FF0E1B1AFF0E1C1AFF0E1D1AE0
:10119800010E1B26000E1C22000E1D2224AC0CD0B2
:1011A800FF0E1E1AFF0E1F1AFF0E201A010E1E2612
:1011B800000E1F22000E2022000E246E1B501E2639
:1011C8001C501F221D50202220AE0ED0FF0E1E1ACA
:1011D800FF0E1F1AFF0E201A010E1E26000E1F22D8
:1011E800000E2022010E246E1EC001F01FC002F066
:1011F80020C003F026C004F024C005F086EC0DF0F2
:1012080001C01BF002C01CF003C01DF01200060054
:10121800E9CFCDF0EACFCEF0E1CFCFF0E2CFD0F0FA
:10122800D9CFD1F0DACFD2F0F3CFD3F0F4CFD4F0D6
:10123800F6CFD5F0F7CFD6F0F8CFD7F0F5CFD8F076
:101248009DBA9EAA3CD00001BE51090D800E000136
:10125800C96F000E0001CA6FF3500001C927F4508E
:101268000001CA236350010DF3500001C925D96E4E
:10127800F4500001CA21DA6EAECFDFFF632A63049F
:10128800D8A40DD00001BE51090D800EF324D96EEB
:10129800000EF420DA6E550EDE18D8A40ED0090E12
:1012A8006318D8A40CD00001BE2B060E0001BE198D
:1012B800D8A403D0000E0001BE6F000E636EF0B814
:1012C800F0A213D080A407D0010E0001B627000EAB
:1012D800B723B82308D0FF0E0001B627FF0EB723A7
:1012E800FF0EB823FF0EB923F092F0B6F0A013D08A
:1012F80080AA07D0010E0001BA27000EBB23BC2329
:1013080008D0FF0E0001BA27FF0EBB23FF0EBC2337
:10131800FF0EBD23F090D8C0F5FFD7C0F8FFD6C0A8
:10132800F7FFD5C0F6FFD4C0F4FFD3C0F3FFD2C097
:10133800DAFFD1C0D9FFD0C0E2FFCFC0E1FFCEC0F5
:10134800EAFFCDC0E9FFCCC0FBFFCBC0FAFF779224
:1013580011000001DF6F0001DF510001D8A443D064
:10136800000E68EC0FF0DAC057F0DBC058F0DCC0B4
:1013780059F0DDC05AF00001DA510001B65D0001F4
:10138800DB510001B7590001DC510001B8590001D7
:10139800B951800A0001DE6F0001DD51800A0001A9
:1013A800DE59D8B004D0000E79EC0FF0120000011D
:1013B800B6510001DA5D0001B7510001DB590001A7
:1013C800B8510001DC590001DD51800A0001DE6FCF
:1013D8000001B951800A0001DE59D8B01200000E90
:1013E8008AEC0FF012000001DF05D8A41200010EEC
:1013F80068EC0FF0DAC05BF0DBC05CF0DCC05DF0DD
:10140800DDC05EF00001DA510001BA5D0001DB5178
:101418000001BB590001DC510001BC590001BD515C
:10142800800A0001DE6F0001DD51800A0001DE59EB
:10143800D8B004D0010E79EC0FF012000001BA51B7
:101448000001DA5D0001BB510001DB590001BC510C
:101458000001DC590001DD51800A0001DE6F000146
:10146800BD51800A0001DE59D8B01200010E68ECA7
:101478000FF0120024BE1200245003E12304D8A068
:10148800120023C009F024C00AF016EC0FF009C0BE
:1014980012F00AC013F00BC014F020EE24F0215013
:1014A800D9262250DA22DECF09F0DECF0AF0DECFCD
:1014B8000BF0DECF0CF0AAEC0EF009C015F00AC054
:1014C80016F00BC017F03EEC0CF012C029F013C058
:1014D8002AF014C02BF020EE0CF02150D92622500F
:1014E800DA22DECF09F0DECF0AF0DDCF0BF029C01B
:1014F8000CF02AC00DF02BC00EF0C4EC0BF020EE5F
:101508000CF02150D9262250DA2209C0DEFF0AC089
:10151800DEFF0BC0DEFF20EE0FF02150D92622504F
:10152800DA22DECF12F0DECF13F0DDCF14F029C0BF
:1015380015F02AC016F02BC017F03EEC0CF020EE88
:101548000FF02150D9262250DA2212C0DEFF13C034
:10155800DEFF14C0DEFF23C025F024C026F0000EF5
:1015680026BEFF0E276E286E20EE24F02150D926C5
:101578002250DA2225C0DEFF26C0DEFF27C0DEFFAC
:1015880028C0DEFF120020EE16F03150D926325066
:10159800DA2235C0DEFF36C0DDFF20EE14F0315010
:1015A800D9263250DA2233C0DEFF34C0DDFF20EE08
:1015B80018F03150D9263250DA2237C0DEFF38C051
:1015C800DDFF20EE2EF03150D9263250DA22000EFF
:1015D800DF6E31C00DF032C00EF07650446E456AB1
:1015E800441E451E444A452A44C009F045C00AF035
:1015F80016EC0FF009C00FF00AC010F00BC011F084
:10160800765044EC0FF009C012F00AC013F00BC07A
:1016180014F078EC05F020EE24F03150D926325041
:10162800DA22640EDE6E000EDE6E000EDE6E000E36
:10163800DD6E31C01BF032C01CF042C01DF043C04B
:101648001EF0B1EC0CF031C021F032C022F039C0EC
:1016580023F03AC024F03BC025F03CC026F03DC042
:1016680027F03EC028F03FC029F040C02AF041C012
:101678002BF06CEC06F031C021F032C022F0000EE5
:10168800246E0A0E236E3EEC0AF0120003C005F029
:10169800066A076A0234053601E3068005500F6EB4
:1016A8000F50D8A409D0000E016E000E026E000E75
:1016B800036E000E046E1200170E056E01C006F0D0
:1016C80002C007F003C008F00528096E04D0D890BE
:1016D800083207320632092EFAD706500A6E028EF1
:1016E800FF0E0116FF0E0216000E031601500B6EB8
:1016F80002500C6E03500D6E0E6A8E0E0F5E0FAE0A
:1017080016D00F50800A8F0FD8B009D0000E016E86
:10171800000E026E000E036E000E046E1200D890CA
:101728000E320D320C320B320F3EF9D715D0170E90
:101738000F640FD0000E016E000E026E000E036ED5
:10174800000E046E1200D8900B360C360D360E368D
:101758000F060F50D8A4F7D70A50D8B408D00E1ED9
:101768000D1E0C1E0B6C000E0C220D220E220BC03F
:1017780001F00CC002F00DC003F00EC004F012001E
:101788000BC00FF0106A116A0A340F3601E310809B
:101798000F50126E1250D8A407D0000E096E000E1A
:1017A8000A6E000E0B6E12000EC00FF0106A116A5E
:1017B8000D340F3601E310800F50176E1750D8A460
:1017C80007D0000E096E000E0A6E000E0B6E120096
:1017D80017507B0F12260BC017F00E50171A800EE9
:1017E80017160A8E0D8EFF0E0C16FF0E0D16000E24
:1017F8000E16000E136E000E146E000E156E070EF8
:10180800166E09A006D00C5013260D5014220E5047
:101818001522D8900B320A320932D8900C360D3680
:101828000E36162EEED7090E166E09A006D00C50ED
:1018380013260D5014220E501522D8900B320A325E
:101848000932D890153214321332162EEED713C03F
:1018580001F014C002F015C003F012C004F017C064
:1018680005F086EC0DF001C009F002C00AF003C0D3
:101878000BF0120014C018F0196A1A6A13341836DB
:1018880001E3198018501F6E1F50D8A407D0000E0E
:10189800126E000E136E000E146E120017C018F0B0
:1018A800196A1A6A1634183601E319801850206E1E
:1018B8002050D8A407D0000E126E000E136E000E32
:1018C800146E1200000E1C6E000E1D6E000E1E6EB1
:1018D8002050890F1F5E14C020F01750201A800E68
:1018E8002016138EFF0E1216FF0E1316000E141676
:1018F800168EFF0E1516FF0E1616000E1716180E6A
:101908001B6ED8901C361D361E361550125C1650AC
:10191800135817501458D8A007D01550125E1650F7
:10192800135A1750145A1C80D8901236133614368E
:101938001B2EE7D71CC001F01DC002F01EC003F02B
:101948001FC004F020C005F086EC0DF001C012F0B5
:1019580002C013F003C014F0120020EE2EF01B504A
:10196800D9261C50DA22DF50D8B45BD020EE12F012
:101978001B50D9261C50DA221D50DE1804E11E50D7
:10198800DE18D8B44ED020EE09F01B50D9261C50D2
:10199800DA22DECF18F0DECF19F0DDCF1AF056ECE0
:1019A8000FF020EE09F01B50D9261C50DA2218C07F
:1019B800DEFF19C0DEFF1AC0DEFF20EE0CF01B5060
:1019C800D9261C50DA22DECF18F0DECF19F0DDCF91
:1019D8001AF056EC0FF020EE0CF01B50D9261C50D4
:1019E800DA2218C0DEFF19C0DEFF1AC0DEFF20EEC3
:1019F8000FF01B50D9261C50DA22DECF18F0DECFAC
:101A080019F0DDCF1AF056EC0FF020EE0FF01B5056
:101A1800D9261C50DA2218C0DEFF19C0DEFF1AC012
:101A2800DEFF20EE12F01B50D9261C50DA221DC012
:101A3800DEFF1EC0DDFF1200000E0001E26F000E87
:101A4800E16F000E0001DE6F52D0800E0001E06FE2
:101A5800000E0001DF6F070E0001DF6501D045D0E1
:101A6800000E0001E1150001DC6F800E0001E21597
:101A78000001DD6FD8900001E1350001E16F000140
:101A8800E2350001E26F0001DE51010DF350000163
:101A9800D925D96EF4500001DA21DA6EDF50000141
:101AA800E0150009D8B409D0010E0001E1110001C8
:101AB800E16F0001E2510001E26F0001D890E031CE
:101AC8000001E06F0001DC510001DD11D8B40AD03B
:101AD800210E0001E1190001E16F100E0001E21969
:101AE8000001E26F0001DF2BB6D70001DE2B0001F9
:101AF800DB510001DE5DD8A0A8D7E1C0D9F0E2C073
:101B0800DAF012000450D8B405D0015002100310C6
:101B1800D8A40CD0000E016E000E026E000E036EEB
:101B28001200042AD890033202320132000E011446
:101B3800066E000E0214076EFE0E0314086E0650A1
:101B480007100810D8B40CD0ECD7042A010E0126CF
:101B5800000E0222000E0322D89003320232013214
:101B6800000E0114066E000E0214076EFF0E031419
:101B7800086E065007100810D8B406D0E6D7040639
:101B8800D89001360236033602BE03D0020E046036
:101B9800F6D704A0029ED8900432045003120550D0
:101BA800D8A4038E01C001F002C002F003C003F004
:101BB8001200000E0001DA6F000ED96F1F0E806E42
:101BC8009268F30E816E0F0E936E000E826E810E78
:101BD800946E0E0EC16EF086F088F18AF188F0904E
:101BE800F092F08CF08E829A040EAC6E800EAB6E82
:101BF800B886020EB06E080EAF6E020ECA6E4F0E99
:101C0800CB6E000ECC6E0C0EBD6E0C0EBA6E500E66
:101C1800BE6E500EBB6EF90EB16E2C0EB26ECF0EAC
:101C2800B36EA082D08EA292A192818E818C818A7D
:101C38008188CA84AC8AAB889D8A9F8A9E9AF28CD6
:101C4800F28E120003AE16D001C007F002C008F0F1
:101C580003C009F0071E081E091E072A000E0822E5
:101C68000922000E0724016E000E0820026E800E65
:101C78000920036E06AE16D004C007F005C008F0B0
:101C880006C009F0071E081E091E072A000E0822B2
:101C98000922000E0724046E000E0820056E800E2F
:101CA8000920066E000E011A000E021A800E031A91
:101CB800000E041A000E051A800E061A0450015C64
:101CC8000550025806500358D8B002D0D8901200D8
:101CD800D8801200000E126E8E0E116E0CAE11D04E
:101CE8000C1E0B1E0A1E096C000E0A220B220C2267
:101CF800010E126E06D0D8900C320B320A3209321D
:101D0800112A000E09140D6E000E0A140E6E000E34
:101D18000B140F6EFF0E0C14106E0D500E100F10DA
:101D28001010D8A4E8D709C001F00AC002F00BC00F
:101D380003F011C004F012C005F086EC0DF001C0EC
:101D480009F002C00AF003C00BF012008E0E116EEB
:101D580006D0D8900C320B320A320932112A000E02
:101D680009140D6E000E0A140E6E000E0B140F6E81
:101D7800FF0E0C14106E0D500E100F101010D8A47A
:101D8800E8D709C001F00AC002F00BC003F011C087
:101D980004F0000E056E86EC0DF001C009F002C0DB
:101DA8000AF003C00BF0120001EE00F05E0EEE6ABE
:101DB800E806FDE100EE80F0490EEE6AE806FDE176
:101DC80000EE57F01F0EEE6AE806FDE19E0EF66E75
:101DD8001F0EF76E000EF86E0900F5CF76F07790BB
:101DE8007792000EF86E00019BEF0FF0828A000ECA
:101DF8000001DC6F0FD09EA8FED7D9C0D9FFDAC08A
:101E0800DAFFDF50AD6E0001D94BDA2BACA2FED75A
:101E18000001DC2B0001DB510001DC5DD8A0EBD711
:101E2800829A1200000E0C6E0AAE06D0096C0A1EC9
:101E3800D8B00A2A010E0C6E09C001F00AC002F0DF
:101E4800036A8E0E046E0CC005F086EC0DF001C01E
:101E580009F002C00AF003C00BF01200E3C0D9F089
:101E6800E4C0DAF0E5C0DBF020EC0DF00001D95158
:101E78000001DA11D8A402D0000E1200FF0E1200E1
:101E88000C6E0C50016E026A036A8E0E046E000E10
:101E9800056E86EC0DF001C009F002C00AF003C01F
:101EA8000BF01200185019101A10D8B406D0000EF2
:101EB800181A000E191A800E1A1A18C018F019C02C
:101EC80019F01AC01AF012000001D96F0001D95197
:101ED8000001D8A403D0818E818C12000001D9059D
:101EE800D8A41200818A818812000001D96F0001EC
:101EF800D9510001D8A403D0819E818C1200000121
:101F0800D905D8A41200819A818812000001D96FDE
:101F18000001D9510001D8A403D0818E819C120000
:101F28000001D905D8A41200818A81981200DDEC3D
:101F38000DF0F70E0001EA6FC00EE82EFED7EA2F6B
:101F4800FCD765EC00F0FDD7016E0150D8A403D092
:101F5800818E818C12000104D8A41200818A8188A4
:101F68001200016E0150D8A403D0819E818C12000A
:101F78000104D8A41200819A81881200016E0150D0
:101F8800D8A403D0818E819C12000104D8A4120029
:081F9800818A819812005000BB
:020000040020DA
:08000000FFFFFFFFFFFFFFFF00
:020000040030CA
:0E000000FF061E1EFF0181FF0FC00FE00F4024
:00000001FF
