:040000002BEF01F0F1
:0E0008005282FACF20F0FBCF21F025ED04F05C
:100018005280D8CF0FF0E8CF10F0E0CF11F0FACF30
:1000280012F0FBCF13F0E9CF14F0EACF15F0E1CFCF
:1000380016F0E2CF17F0D9CF18F0DACF19F0F3CFD6
:100048001AF0F4CF1BF0F6CF1CF0F7CF1DF0F8CF65
:100058001EF0F5CF1FF09DBA9EAA31D04150070D72
:10006800800E0D6E000E0E6EF3500D26F4500E220B
:100078004050010DF3500D24D96EF4500E20DA6E65
:10008800AECFDFFF402A4004D8A40CD04150070D62
:10009800800EF324D96E000EF420DA6E550EDE18A9
:1000A800D8A40BD0070E4018D8A409D0412A060EB0
:1000B8004118D8A402D0000E416E000E406EA0B2C6
:1000C800A1A20BD0010E3C26000E3D223E223F226B
:1000D8002C0EB26ECF0EB36EA192F0B8F0A248D03B
:1000E80080A422D0010E4A26000E4B224C224D221B
:1000F80034504A5C35504B5836504C584D50800A55
:100108000D6E3750800A0D58D8A031D0020E016EFE
:10011800000E026E000E036E000E046E000E056ED9
:10012800000E7AEC03F023D0FF0E4A26FF0E4B2276
:10013800FF0E4C22FF0E4D224A50345C4B5035586E
:100148004C5036583750800A0D6E4D50800A0D5865
:10015800D8A00DD0020E016E000E026E000E036EC6
:10016800000E046E000E056E000E7AEC03F0F0929D
:10017800F0B6F0A048D080AA22D0010E4E26000E7C
:100188004F225022512238504E5C39504F583A5025
:1001980050585150800A0D6E3B50800A0D58D8A017
:1001A80031D0020E016E000E026E000E036E000EBC
:1001B800046E000E056E010E7AEC03F023D0FF0EDC
:1001C8004E26FF0E4F22FF0E5022FF0E51224E5098
:1001D800385C4F50395850503A583B50800A0D6E91
:1001E8005150800A0D58D8A00DD0020E016E000E95
:1001F800026E000E036E000E046E000E056E010EF8
:100208007AEC03F0F0901FC0F5FF1EC0F8FF1DC088
:10021800F7FF1CC0F6FF1BC0F4FF1AC0F3FF19C09C
:10022800DAFF18C0D9FF17C0E2FF16C0E1FF15C0FA
:10023800EAFF14C0E9FF13C0FBFF12C0FAFF11C0A8
:10024800E0FF10C0E8FF0FC0D8FF529010005CEF2D
:1002580004F041504218D8B41200000E0001C56FD6
:10026800000E0001C46F000E0001C56F060E0001EC
:10027800C56501D042D04250070D800E0001B16F14
:10028800000E0001B26FF3500001B127F4500001D5
:10029800B2230001C551010DF3500001B125D96EFB
:1002A800F4500001B221DA6E0001C551010D430E70
:1002B800F324E16E000EF420E26EDFCFE7FF425038
:1002C800070D800E0001B16F000E0001B26FF350F0
:1002D8000001B127F4500001B2230001C551010DFE
:1002E800F3500001B125D96EF4500001B221DA6E45
:1002F800000EDF6E0001C52BB9D7422A060E421840
:10030800D8A402D0000E426E000E81B6010E000184
:10031800C46F430E316E000E326E070E336E96ECCC
:1003280004F00009D8A4EFD00001C4514418D8B48F
:10033800D1D04428D8B4CED0E6D0000E2E6E475087
:100348000001B26FB16B46500001B36FB46B00018E
:10035800B1510001B3130001B2510001B413B3C08D
:100368002FF0B4C030F0000E30BEFF0E316E326E8A
:10037800000E9DEC02F0C7D0010E2E6E4750000112
:10038800B26FB16B46500001B36FB46B0001B1514D
:100398000001B3130001B2510001B413B3C02FF030
:1003A800B4C030F0000E30BEFF0E316E326E000E5B
:1003B8009DEC02F0A8D0020E2E6E47500001B26FDD
:1003C800B16B46500001B36FB46B0001B15100012D
:1003D800B3130001B2510001B413B3C02FF0B4C07D
:1003E80030F0000E30BEFF0E316E326E000E9DEC06
:1003F80002F089D0000E2E6E47500001B26FB16B2B
:1004080046500001B36FB46B0001B1510001B31342
:100418000001B2510001B413B3C02FF0B4C030F0E2
:10042800000E30BEFF0E316E326E010E9DEC02F0F2
:100438006AD0010E2E6E47500001B26FB16B465064
:100448000001B36FB46B0001B1510001B313000197
:10045800B2510001B413B3C02FF0B4C030F0000E95
:1004680030BEFF0E316E326E010E9DEC02F04BD0A5
:10047800020E2E6E47500001B26FB16B465000015C
:10048800B36FB46B0001B1510001B3130001B25155
:100498000001B413B3C02FF0B4C030F0000E30BE6A
:1004A800FF0E316E326E010E9DEC02F02CD04AC068
:1004B800B5F04BC0B6F04EC0B7F04FC0B8F0B50EAF
:1004C8002E6E000E2F6E040E306E7FEC04F01BD0E3
:1004D800FF0019D04550010AD8B42FD7030AD8B461
:1004E8004BD7010AD8B467D7070AD8B483D7010A0B
:1004F800D8B49FD7030AD8B4BBD7010AD8B4D7D782
:10050800180AD8B4E5D7000E0001C56F060E000121
:10051800C56501D012000001C551010D430EF32439
:10052800D96E000EF420DA6E000EDF6E0001C52BC6
:10053800EDD70001AA6F2FC0ABF030C0ACF031C0CE
:10054800ADF032C0AEF0000E0001AF6F000E00013A
:10055800B06F19D0000E11D0010E0001AF6F000E60
:100568000001B06F0001AE1FAD1FAC1FAB6D000ED8
:10057800AC23AD23AE2310D0010E0001AF6F010EE6
:100588000001B06F09D02E50000AD8B4E3D7010A91
:10059800D8B4E2D7030AF0D70001AA510001D8A4C1
:1005A8001FD00001AB514A24346E0001AC514B20DE
:1005B800356E0001AD514C20366E0001AE514D2014
:1005C800376E819E819C0001AFA102D0818E01D03F
:1005D800819E0001B0A102D0818C1200819C120082
:1005E8000001AA05D8A412000001AB514E24386EB0
:1005F8000001AC514F20396E0001AD5150203A6EC8
:100608000001AE5151203B6E819A81980001AFA143
:1006180002D0818A01D0819A0001B0A102D08188DC
:10062800120081981200000E0001B06F000EAF6F2B
:10063800000E0001AC6F50D0800E0001AE6F000EAE
:100648000001AD6F070E0001AD6501D043D0000E6B
:100658000001AF150001AA6F800E0001B01500015E
:10066800AB6FD8900001AF350001AF6F0001B03516
:100678000001B06F0001AC51010DF3502E24D96E6A
:10068800F4502F20DA6EDF500001AE150009D8B4FF
:1006980009D0010E0001AF110001AF6F0001B05188
:1006A8000001B06F0001D890AE310001AE6F0001BB
:1006B800AA510001AB11D8B40AD0210E0001AF191C
:1006C8000001AF6F100E0001B0190001B06F0001FA
:1006D800AD2BB8D70001AC2B30500001AC5DD8A0D1
:1006E800ABD7AFC02EF0B0C02FF01200066E02C01C
:1006F80009F003C00AF004C00BF005C00CF0000EAE
:10070800076E000E086E14D0000E0ED0010E076E94
:10071800000E086E0C1E0B1E0A1E096C000E0A2223
:100728000B220C220ED0010E076E010E086E09D0A6
:100738000150000AD8B4E8D7010AD8B4E7D7030AA9
:10074800F2D70650D8A419D009504A24346E0A505A
:100758004B20356E0B504C20366E0C504D20376EAA
:10076800819E819C07A002D0818E01D0819E08A025
:1007780002D0818C1200819C12000604D8A41200B9
:1007880009504E24386E0A504F20396E0B505020B5
:100798003A6E0C5051203B6E819A819807A002D086
:1007A800818A01D0819A08A002D08188120081989C
:1007B8001200000E2F6E000E2E6E1F0E806E9268B5
:1007C800F30E816E0F0E936E000E826E810E946E84
:1007D8000E0EC16EF086F088F18AF188F090F092E2
:1007E800F09CF09E829A040EAC6E800EAB6EB886BA
:1007F800020EB06E080EAF6E020ECA6E4F0ECB6EB2
:10080800000ECC6E0C0EBD6E0C0EBA6E500EBE6E87
:10081800500EBB6EF90EB16E2C0EB26ECF0EB36ECB
:10082800A082D08EA292A192818E818C818A8188A9
:10083800CA84AC8AAB889D8A9F9A9E9AF28CF28E63
:1008480012000600E9CF22F0EACF23F0E1CF24F02E
:10085800E2CF25F0D9CF26F0DACF27F0F3CF28F072
:10086800F4CF29F0F6CF2AF0F7CF2BF0F8CF2CF001
:10087800F5CF2DF02DC0F5FF2CC0F8FF2BC0F7FFEA
:100888002AC0F6FF29C0F4FF28C0F3FF27C0DAFF0B
:1008980026C0D9FF25C0E2FF24C0E1FF23C0EAFF3C
:1008A80022C0E9FF21C0FBFF20C0FAFF52921100CD
:1008B80000EE80F02A0EEE6AE806FDE100EE34F064
:1008C800160EEE6AE806FDE1660EF66E090EF76E84
:1008D800000EF86E00EE4AF010EE08F00900F5CFB1
:1008E800EEFFE550E150FAE152905292000EF86E98
:1008F8000001A6EF04F0828A000E316E0DD09EA88A
:10090800FED72EC0D9FF2FC0DAFFDF50AD6E2E4ABA
:100918002F2AACA2FED7312A3050315CD8A0EFD7AD
:10092800829A120031C02EF032C02FF033C030F05E
:1009380017EC03F02E502F10D8A402D0000E12008E
:10094800FF0E1200DDEC03F0F70E0001C66FC00EBB
:10095800E82EFED7C62FFCD72DEC01F0FDD7307559
:06096800000030750000E4
:020000040020DA
:08000000FFFFFFFFFFFFFFFF00
:020000040030CA
:0E000000FF061E1EFF0181FF0FC00FE00F4024
:00000001FF
