:04000000E3EF01F039
:0E0008004B82FACF27F0FBCF28F05EED08F018
:100018004B80D8CF16F0E8CF17F0E0CF18F0FACF22
:1000280019F0FBCF1AF0E9CF1BF0EACF1CF0E1CFB3
:100038001DF0E2CF1EF0D9CF1FF0DACF20F0F3CFBA
:1000480021F0F4CF22F0F6CF23F0F7CF24F0F8CF49
:1000580025F0F5CF26F09DBA9EAA31D04A50070D5B
:10006800800E126E000E136EF3501226F4501322F7
:100078004950010DF3501224D96EF4501320DA6E52
:10008800AECFDFFF492A4904D8A40CD04A50070D47
:10009800800EF324D96E000EF420DA6E550EDE18A9
:1000A800D8A40BD0070E4918D8A409D04A2A060E9E
:1000B8004A18D8A402D0000E4A6E000E496EA0B2AB
:1000C800A1A20BD0010E4526000E46224722482247
:1000D8002C0EB26ECF0EB36EA192F0B8F0A2A4D0DF
:1000E80080A450D0010E3526000E36223722382241
:1000F8003D50355C3E5036583F5037583850800A8E
:10010800126E4050800A1258D8B020D035C012F074
:1001180036C013F037C014F038C015F0121E131E85
:10012800141E151E122A000E1322142215223D50E9
:100138001224016E3E501320026E3F501420036EAD
:1001480040501520046E000E2FEC07F03D50355C32
:100158003E5036583F5037583850800A126E40503B
:10016800800A1258D8A05FD0020E066E000E076EE5
:10017800000E086E000E096E000E0A6E000ECFEC1F
:1001880005F051D0FF0E3526FF0E3622FF0E37221E
:10019800FF0E382235503D5C36503E5837503F5898
:1001A8004050800A126E3850800A1258D8B020D0B9
:1001B8003DC012F03EC013F03FC014F040C015F02F
:1001C800121E131E141E151E122A000E13221422AC
:1001D800152235501224016E36501320026E375006
:1001E8001420036E38501520046E000E2FEC07F013
:1001F80035503D5C36503E5837503F584050800A85
:10020800126E3850800A1258D8A00DD0020E066E11
:10021800000E076E000E086E000E096E000E0A6EC4
:10022800000ECFEC05F0F092F0B6F0A0A4D080AAB2
:1002380050D0010E3926000E3A223B223C22415072
:10024800395C42503A5843503B583C50800A126E31
:100258004450800A1258D8B020D039C012F03AC0A1
:1002680013F03BC014F03CC015F0121E131E141EF0
:10027800151E122A000E1322142215224150122490
:10028800016E42501320026E43501420036E4450F6
:100298001520046E010E2FEC07F04150395C4250D6
:1002A8003A5843503B583C50800A126E4450800ADA
:1002B8001258D8A05FD0020E066E000E076E000E10
:1002C800086E000E096E000E0A6E010ECFEC05F0E6
:1002D80051D0FF0E3926FF0E3A22FF0E3B22FF0EA9
:1002E8003C223950415C3A5042583B5043584450A4
:1002F800800A126E3C50800A1258D8B020D041C0F3
:1003080012F042C013F043C014F044C015F0121E9E
:10031800131E141E151E122A000E13221422152253
:1003280039501224016E3A501320026E3B501420AB
:10033800036E3C501520046E010E2FEC07F0395067
:10034800415C3A5042583B5043584450800A126E20
:100358003C50800A1258D8A00DD0020E066E000E2E
:10036800076E000E086E000E096E000E0A6E010E72
:10037800CFEC05F0F09026C0F5FF25C0F8FF24C0AB
:10038800F7FF23C0F6FF22C0F4FF21C0F3FF20C00F
:10039800DAFF1FC0D9FF1EC0E2FF1DC0E1FF1CC06D
:1003A800EAFF1BC0E9FF1AC0FBFF19C0FAFF18C01B
:1003B800E0FF17C0E8FF16C0D8FF4B901000B1EF60
:1003C80008F04A500001AA19D8B41200000E000122
:1003D800E06F000E0001DF6F000E0001E06F060EF7
:1003E8000001E06501D044D00001AA51070D800E3C
:1003F8000001CC6F000E0001CD6FF3500001CC2737
:10040800F4500001CD230001E051010DF35000012B
:10041800CC25D96EF4500001CD21DA6E0001E051EF
:10042800010DAB0EF324E16E000EF420E26EDFCF77
:10043800E7FF0001AA51070D800E0001CC6F000EE6
:100448000001CD6FF3500001CC27F4500001CD23FB
:100458000001E051010DF3500001CC25D96EF45094
:100468000001CD21DA6E000EDF6E0001E02BB7D758
:100478000001AA2B060E0001AA19D8A403D0000E69
:100488000001AA6F000E81B6010E0001DF6FAB0EEE
:100498000001BC6F000E0001BD6F070E0001BE6FAA
:1004A800C4EC08F00009D8A45BD10001DF510001B9
:1004B800AC19D8B435D10001AC29D8B431D150D158
:1004C800000E0001B76F0001AF510001CD6FCC6B7A
:1004D8000001AE510001CE6FCF6B0001CC5100017D
:1004E800CE130001CD510001CF13CEC0B8F0CFC05C
:1004F800B9F00001000EB9BFFF0EBA6FBB6F000E56
:10050800E5EC04F02DD1010E0001B76F0001AF51E9
:100518000001CD6FCC6B0001AE510001CE6FCF6BE7
:100528000001CC510001CE130001CD510001CF13C1
:10053800CEC0B8F0CFC0B9F00001000EB9BFFF0EB1
:10054800BA6FBB6F000EE5EC04F00AD1020E000191
:10055800B76F0001AF510001CD6FCC6B0001AE51F8
:100568000001CE6FCF6B0001CC510001CE1300010A
:10057800CD510001CF13CEC0B8F0CFC0B9F0000103
:10058800000EB9BFFF0EBA6FBB6F000EE5EC04F0AA
:10059800E7D0000E0001B76F0001AF510001CD6F29
:1005A800CC6B0001AE510001CE6FCF6B0001CC5176
:1005B8000001CE130001CD510001CF13CEC0B8F019
:1005C800CFC0B9F00001000EB9BFFF0EBA6FBB6F04
:1005D800010EE5EC04F0C4D0010E0001B76F000174
:1005E800AF510001CD6FCC6B0001AE510001CE6F51
:1005F800CF6B0001CC510001CE130001CD51000199
:10060800CF13CEC0B8F0CFC0B9F00001000EB9BF0B
:10061800FF0EBA6FBB6F010EE5EC04F0A1D0020E1D
:100628000001B76F0001AF510001CD6FCC6B000125
:10063800AE510001CE6FCF6B0001CC510001CE133B
:100648000001CD510001CF13CEC0B8F0CFC0B9F032
:100658000001000EB9BFFF0EBA6FBB6F010EE5ECCB
:1006680004F07ED035C0D0F036C0D1F037C0D2F01B
:1006780038C0D3F039C0D4F03AC0D5F03BC0D6F07A
:100688003CC0D7F0D00E0001B26F000E0001B36F6E
:10069800080E0001B46F95EC08F062D00001AF516C
:1006A8000001CD6FCC6B0001AE510001CE6FCF6B56
:1006B8000001CC510001CE130001CD510001CF1330
:1006C800CEC0C3F0CFC0C4F00001000EC4BFFF0EFF
:1006D800C56FC66F000ECAEC03F042D00001AF51DF
:1006E8000001CD6FCC6B0001AE510001CE6FCF6B16
:1006F8000001CC510001CE130001CD510001CF13F0
:10070800CEC0C3F0CFC0C4F00001000EC4BFFF0EBE
:10071800C56FC66F010ECAEC03F022D0FF0020D0CF
:100728000001AD51010AD8B4CBD6030AD8B4EBD630
:10073800010AD8B40BD7070AD8B42BD7010AD8B402
:100748004BD7030AD8B46BD7010AD8B48BD70F0A92
:10075800D8B4A4D7010AD8B4C1D7160AD8B4DED7FA
:10076800000E0001E06F060E0001E06501D01200E6
:100778000001E051010DAB0EF324D96E000EF420F8
:10078800DA6E000EDF6E0001E02BEDD70001CB6FB3
:100798000001CB510001D8A488D00001C351355CB9
:1007A8000001C45136580001C55137583850800AE5
:1007B8000001C76F0001C651800A0001C759D8B0AF
:1007C80032D0000E0001B76F35C0C7F036C0C8F090
:1007D80037C0C9F038C0CAF00001C71FC81FC91FF9
:1007E800CA1FC72B000EC823C923CA230001C3513F
:1007F8000001C7250001B86F0001C4510001C821DC
:100808000001B96F0001C5510001C9210001BA6F8B
:100818000001C6510001CA210001BB6F0001CB5184
:10082800E5EC04F0120035500001C35D36500001BC
:10083800C45937500001C5590001C651800A00014A
:10084800C76F3850800A0001C759D8B01200010E8E
:100858000001B76FC3C0C7F0C4C0C8F0C5C0C9F0B5
:10086800C6C0CAF00001C71FC81FC91FCA1FC72BAF
:10087800000EC823C923CA2335500001C72500012B
:10088800B86F36500001C8210001B96F3750000118
:10089800C9210001BA6F38500001CA210001BB6F9D
:1008A8000001CB51E5EC04F012000001CB05D8A4FF
:1008B80012000001C351395C0001C4513A580001CB
:1008C800C5513B583C50800A0001C76F0001C65112
:1008D800800A0001C759D8B032D0000E0001B76FA6
:1008E80039C0C7F03AC0C8F03BC0C9F03CC0CAF034
:1008F8000001C71FC81FC91FCA1FC72B000EC82366
:10090800C923CA230001C3510001C7250001B86FDC
:100918000001C4510001C8210001B96F0001C5518F
:100928000001C9210001BA6F0001C6510001CA21A6
:100938000001BB6F0001CB51E5EC04F01200395007
:100948000001C35D3A500001C4593B500001C5592C
:100958000001C651800A0001C76F3C50800A00019F
:10096800C759D8B01200010E0001B76FC3C0C7F055
:10097800C4C0C8F0C5C0C9F0C6C0CAF00001C71FCE
:10098800C81FC91FCA1FC72B000EC823C923CA23E3
:1009980039500001C7250001B86F3A500001C8213D
:1009A8000001B96F3B500001C9210001BA6F3C50EA
:1009B8000001CA210001BB6F0001CB51E5EC04F036
:1009C80012000001C26F000E0001C06F000E00018E
:1009D800C16F0001B8510001B9110001BA1100013D
:1009E800BB11D8A491D0020E0001B719D8A41200E7
:1009F8008BD0000E0001C06F010E0001C16F000115
:100A0800C2510001D8A410D00001B85135243D6E60
:100A18000001B95136203E6E0001BA5137203F6EB1
:100A28000001BB51382040D00001C205D8A476D0BF
:100A38000001B8513924416E0001B9513A20426E83
:100A48000001BA513B20436E0001BB513C2053D0FA
:100A5800010E0001C06F000E0001C16F0001C251FC
:100A68000001D8A423D0B8C0BCF0B9C0BDF0BAC04A
:100A7800BEF0BBC0BFF00001BC1FBD1FBE1FBF1F23
:100A8800BC2B000EBD23BE23BF2335500001BC255F
:100A98003D6E36500001BD213E6E37500001BE212B
:100AA8003F6E38500001BF21406E38D00001C205AA
:100AB800D8A434D0B8C0BCF0B9C0BDF0BAC0BEF03C
:100AC800BBC0BFF00001BC1FBD1FBE1FBF1FBC2B9A
:100AD800000EBD23BE23BF2339500001BC25416E43
:100AE8003A500001BD21426E3B500001BE21436EC9
:100AF8003C500001BF21446E11D0010E0001C06FAF
:100B0800010E0001C16F0AD00001B751000AD8B424
:100B180070D7010AD8B49CD7030AEFD70001C25195
:100B28000001D8A41AD0B8C0B2F0B9C0B3F0BAC0A6
:100B3800B4F0BBC0B5F0000E8BEC06F0819E819C32
:100B48000001C0B102D0819E01D0818E0001C1B1E7
:100B580002D0819C01D0818C12000001C205D8A46A
:100B68001200B8C0B2F0B9C0B3F0BAC0B4F0BBC09C
:100B7800B5F0010E8BEC06F0819A81980001C0B1A6
:100B880002D0819A01D0818A0001C1B102D0819836
:100B980001D0818812000F6E000E106E000E116ECB
:100BA8000750081009100A10D8A472D0020E0618AF
:100BB800D8A412006DD0000E106E010E116E0F50E9
:100BC800D8A40CD0075035243D6E085036203E6E10
:100BD800095037203F6E0A50382032D00F04D8A46D
:100BE80060D007503924416E08503A20426E0950AF
:100BF8003B20436E0A503C2044D0010E106E000E7C
:100C0800116E0F50D8A41ED007C00BF008C00CF00E
:100C180009C00DF00AC00EF00B1E0C1E0D1E0E1E94
:100C28000B2A000E0C220D220E2235500B243D6E8D
:100C380036500C203E6E37500D203F6E38500E2037
:100C4800406E2FD00F04D8A42CD007C00BF008C0DA
:100C58000CF009C00DF00AC00EF00B1E0C1E0D1E84
:100C68000E1E0B2A000E0C220D220E2239500B24C8
:100C7800416E3A500C20426E3B500D20436E3C5062
:100C88000E20446E0ED0010E106E010E116E09D0AA
:100C98000650000AD8B48FD7010AD8B4AED7030AD1
:100CA800F2D70F50D8A418D007C001F008C002F03E
:100CB80009C003F00AC004F0000E2FEC07F0819E73
:100CC800819C10B002D0819E01D0818E11B002D0DB
:100CD800819C01D0818C12000F04D8A4120007C097
:100CE80001F008C002F009C003F00AC004F0010EC8
:100CF8002FEC07F0819A819810B002D0819A01D028
:100D0800818A11B002D0819801D081881200000137
:100D1800B66F0001B6510001D8A44CD00001B551FE
:100D28000001B4110001B31105E1B40E0001B25D78
:100D3800D8A007D0500EBE18D8B41200500EBE6E00
:100D480012000001B5510001B4110001B31105E111
:100D5800140E0001B25DD8A007D00A0EBE18D8B490
:100D680012000A0EBE6E12000001B5510001B41146
:100D78000001B31105E10A0E0001B25DD8A007D049
:100D8800050EBE18D8B41200050EBE6E1200000182
:100D9800B5510001B4110001B31104E1020E0001C4
:100DA800B25DD8B01200020EBE18D8B41200020EFE
:100DB800BE6E12000001B605D8A412000001B5519C
:100DC8000001B4110001B31105E1B40E0001B25DD8
:100DD800D8A007D0500EBB18D8B41200500EBB6E66
:100DE80012000001B5510001B4110001B31105E171
:100DF800140E0001B25DD8A007D00A0EBB18D8B4F3
:100E080012000A0EBB6E12000001B5510001B411A8
:100E18000001B31105E10A0E0001B25DD8A007D0A8
:100E2800050EBB18D8B41200050EBB6E12000001E7
:100E3800B5510001B4110001B3110CE1020E00011B
:100E4800B25DD8B01200020EBB18D8B41200020E60
:100E5800BB6E12001200056E0550D8A43CD0045099
:100E68000310021004E1B40E015CD8A007D0500EA4
:100E7800BE18D8B41200500EBE6E120004500310F3
:100E8800021004E1140E015CD8A007D00A0EBE18A7
:100E9800D8B412000A0EBE6E1200045003100210DD
:100EA80004E10A0E015CD8A007D0050EBE18D8B41C
:100EB8001200050EBE6E12000450031002104AE123
:100EC800020E015CD8B01200020EBE18D8B412008F
:100ED800020EBE6E12000504D8A4120004500310BE
:100EE800021004E1B40E015CD8A007D0500EBB1864
:100EF800D8B41200500EBB6E12000450031002103A
:100F080004E1140E015CD8A007D00A0EBB18D8B4AF
:100F180012000A0EBB6E120004500310021004E106
:100F28000A0E015CD8A007D0050EBB18D8B4120071
:100F3800050EBB6E12000450031002100BE1020EE6
:100F4800015CD8B01200020EBB18D8B41200020E11
:100F5800BB6E12001200000E0001BB6F000EBA6FCC
:100F6800000E0001B76F52D0800E0001B96F000E5D
:100F78000001B86F070E0001B86501D045D0000E1A
:100F88000001BA150001B56F800E0001BB15000104
:100F9800B66FD8900001BA350001BA6F0001BB35B1
:100FA8000001BB6F0001B751010DF3500001B225DC
:100FB800D96EF4500001B321DA6EDF500001B91583
:100FC8000009D8B409D0010E0001BA110001BA6FA6
:100FD8000001BB510001BB6F0001D890B93100017D
:100FE800B96F0001B5510001B611D8B40AD0210E6D
:100FF8000001BA190001BA6F100E0001BB190001F7
:10100800BB6F0001B82BB6D70001B72B0001B45154
:101018000001B75DD8A0A8D7BAC0B2F0BBC0B3F082
:101028001200000E0001B36F000EB26F1F0E806E2B
:101038009268F30E816E0F0E936E000E826E810E13
:10104800946E0E0EC16EF086F088F18AF188F090E9
:10105800F092F09CF09E829A040EAC6E800EAB6EFD
:10106800B886020EB06E080EAF6E020ECA6E4F0E34
:10107800CB6E000ECC6E0C0EBD6E0C0EBA6E500E02
:10108800BE6E500EBB6EF90EB16E2C0EB26ECF0E48
:10109800B36EA082D08EA292A192818E818C818A19
:1010A8008188CA84AC8AAB889D8A9F9A9E9AF28C62
:1010B800F28E12000600E9CF29F0EACF2AF0E1CF3C
:1010C8002BF0E2CF2CF0D9CF2DF0DACF2EF0F3CFE2
:1010D8002FF0F4CF30F0F6CF31F0F7CF32F0F8CF71
:1010E80033F0F5CF34F034C0F5FF33C0F8FF32C029
:1010F800F7FF31C0F6FF30C0F4FF2FC0F3FF2EC05A
:10110800DAFF2DC0D9FF2CC0E2FF2BC0E1FF2AC0B7
:10111800EAFF29C0E9FF28C0FBFF27C0FAFF4B926E
:101128001100828A000E0001B56F0FD09EA8FED76D
:10113800B2C0D9FFB3C0DAFFDF50AD6E0001B24BC9
:10114800B32BACA2FED70001B52B0001B4510001AE
:10115800B55DD8A0EBD7829A120000EE80F0320E6F
:10116800EE6AE806FDE100EE35F0160EEE6AE806D6
:10117800FDE14B904B92000EF86E0001D6EF08F09F
:10118800BCC0B2F0BDC0B3F0BEC0B4F0AFEC07F065
:101198000001B2510001B311D8A402D0000E120010
:1011A800FF0E120015EC08F0F70E0001E16FC00EFB
:0E11B800E82EFED7E12FFCD7E5EC01F0FDD7C5
:020000040020DA
:08000000FFFFFFFFFFFFFFFF00
:020000040030CA
:0E000000FF061E1EFF0181FF0FC00FE00F4024
:00000001FF
