:04000000E3EF01F039
:0E0008004B82FACF27F0FBCF28F056ED08F020
:100018004B80D8CF16F0E8CF17F0E0CF18F0FACF22
:1000280019F0FBCF1AF0E9CF1BF0EACF1CF0E1CFB3
:100038001DF0E2CF1EF0D9CF1FF0DACF20F0F3CFBA
:1000480021F0F4CF22F0F6CF23F0F7CF24F0F8CF49
:1000580025F0F5CF26F09DBA9EAA31D04250070D63
:10006800800E126E000E136EF3501226F4501322F7
:100078004150010DF3501224D96EF4501320DA6E5A
:10008800AECFDFFF412A4104D8A40CD04250070D5F
:10009800800EF324D96E000EF420DA6E550EDE18A9
:1000A800D8A40BD0070E4118D8A409D0422A060EAE
:1000B8004218D8A402D0000E426E000E416EA0B2C3
:1000C800A1A20BD0010E3D26000E3E223F22402267
:1000D8002C0EB26ECF0EB36EA192F0B8F0A2A4D0DF
:1000E80080A450D0010E4326000E44224522462209
:1000F8003550435C36504458375045584650800A6E
:10010800126E3850800A1258D8B020D043C012F06E
:1001180044C013F045C014F046C015F0121E131E5B
:10012800141E151E122A000E1322142215223550F1
:100138001224016E36501320026E37501420036EBD
:1001480038501520046E000E27EC07F03550435C3C
:1001580036504458375045584650800A126E385029
:10016800800A1258D8A05FD0020E066E000E076EE5
:10017800000E086E000E096E000E0A6E000EC7EC27
:1001880005F051D0FF0E4326FF0E4422FF0E4522F4
:10019800FF0E46224350355C445036584550375878
:1001A8003850800A126E4650800A1258D8B020D0B3
:1001B80035C012F036C013F037C014F038C015F04F
:1001C800121E131E141E151E122A000E13221422AC
:1001D800152243501224016E44501320026E4550DC
:1001E8001420036E46501520046E000E27EC07F00D
:1001F8004350355C44503658455037583850800A7B
:10020800126E4650800A1258D8A00DD0020E066E03
:10021800000E076E000E086E000E096E000E0A6EC4
:10022800000EC7EC05F0F092F0B6F0A0A4D080AABA
:1002380050D0010E4726000E482249224A22395042
:10024800475C3A5048583B5049584A50800A126E09
:100258003C50800A1258D8B020D047C012F048C08D
:1002680013F049C014F04AC015F0121E131E141ED4
:10027800151E122A000E1322142215223950122498
:10028800016E3A501320026E3B501420036E3C500E
:100298001520046E010E27EC07F03950475C3A50E0
:1002A80048583B5049584A50800A126E3C50800AC0
:1002B8001258D8A05FD0020E066E000E076E000E10
:1002C800086E000E096E000E0A6E010EC7EC05F0EE
:1002D80051D0FF0E4726FF0E4822FF0E4922FF0E7F
:1002E8004A224750395C48503A5849503B583C508C
:1002F800800A126E4A50800A1258D8B020D039C0ED
:1003080012F03AC013F03BC014F03CC015F0121EB6
:10031800131E141E151E122A000E13221422152253
:1003280047501224016E48501320026E4950142081
:10033800036E4A501520046E010E27EC07F0475053
:10034800395C48503A5849503B583C50800A126E24
:100358004A50800A1258D8A00DD0020E066E000E20
:10036800076E000E086E000E096E000E0A6E010E72
:10037800C7EC05F0F09026C0F5FF25C0F8FF24C0B3
:10038800F7FF23C0F6FF22C0F4FF21C0F3FF20C00F
:10039800DAFF1FC0D9FF1EC0E2FF1DC0E1FF1CC06D
:1003A800EAFF1BC0E9FF1AC0FBFF19C0FAFF18C01B
:1003B800E0FF17C0E8FF16C0D8FF4B9010008DEF84
:1003C80008F042500001AA19D8B41200000E00012A
:1003D800E06F000E0001DF6F000E0001E06F060EF7
:1003E8000001E06501D044D00001AA51070D800E3C
:1003F8000001CC6F000E0001CD6FF3500001CC2737
:10040800F4500001CD230001E051010DF35000012B
:10041800CC25D96EF4500001CD21DA6E0001E051EF
:10042800010DAB0EF324E16E000EF420E26EDFCF77
:10043800E7FF0001AA51070D800E0001CC6F000EE6
:100448000001CD6FF3500001CC27F4500001CD23FB
:100458000001E051010DF3500001CC25D96EF45094
:100468000001CD21DA6E000EDF6E0001E02BB7D758
:100478000001AA2B060E0001AA19D8A403D0000E69
:100488000001AA6F000E81B6010E0001DF6FAB0EEE
:100498000001BC6F000E0001BD6F070E0001BE6FAA
:1004A800CCEC08F00009D8A453D10001DF510001B9
:1004B800AC19D8B42DD10001AC29D8B429D148D170
:1004C800000E0001B76F0001AF510001CD6FCC6B7A
:1004D8000001AE510001CE6FCF6B0001CC5100017D
:1004E800CE130001CD510001CF13CEC0B8F0CFC05C
:1004F800B9F00001000EB9BFFF0EBA6FBB6F000E56
:10050800DDEC04F025D1010E0001B76F0001AF51F9
:100518000001CD6FCC6B0001AE510001CE6FCF6BE7
:100528000001CC510001CE130001CD510001CF13C1
:10053800CEC0B8F0CFC0B9F00001000EB9BFFF0EB1
:10054800BA6FBB6F000EDDEC04F002D1020E0001A1
:10055800B76F0001AF510001CD6FCC6B0001AE51F8
:100568000001CE6FCF6B0001CC510001CE1300010A
:10057800CD510001CF13CEC0B8F0CFC0B9F0000103
:10058800000EB9BFFF0EBA6FBB6F000EDDEC04F0B2
:10059800DFD0000E0001B76F0001AF510001CD6F31
:1005A800CC6B0001AE510001CE6FCF6B0001CC5176
:1005B8000001CE130001CD510001CF13CEC0B8F019
:1005C800CFC0B9F00001000EB9BFFF0EBA6FBB6F04
:1005D800010EDDEC04F0BCD0010E0001B76F000184
:1005E800AF510001CD6FCC6B0001AE510001CE6F51
:1005F800CF6B0001CC510001CE130001CD51000199
:10060800CF13CEC0B8F0CFC0B9F00001000EB9BF0B
:10061800FF0EBA6FBB6F010EDDEC04F099D0020E2D
:100628000001B76F0001AF510001CD6FCC6B000125
:10063800AE510001CE6FCF6B0001CC510001CE133B
:100648000001CD510001CF13CEC0B8F0CFC0B9F032
:100658000001000EB9BFFF0EBA6FBB6F010EDDECD3
:1006680004F076D043C0D0F044C0D1F047C0D2F0F7
:1006780048C0D3F0D00E0001B26F000E0001B36F76
:10068800040E0001B46FB0EC08F062D00001AF5165
:100698000001CD6FCC6B0001AE510001CE6FCF6B66
:1006A8000001CC510001CE130001CD510001CF1340
:1006B800CEC0C3F0CFC0C4F00001000EC4BFFF0E0F
:1006C800C56FC66F000EC2EC03F042D00001AF51F7
:1006D8000001CD6FCC6B0001AE510001CE6FCF6B26
:1006E8000001CC510001CE130001CD510001CF1300
:1006F800CEC0C3F0CFC0C4F00001000EC4BFFF0ECF
:10070800C56FC66F010EC2EC03F022D0FF0020D0E7
:100718000001AD51010AD8B4D3D6030AD8B4F3D630
:10072800010AD8B413D7070AD8B433D7010AD8B402
:1007380053D7030AD8B473D7010AD8B493D70F0A8A
:10074800D8B4A4D7010AD8B4C1D7160AD8B4DED70A
:10075800000E0001E06F060E0001E06501D01200F6
:100768000001E051010DAB0EF324D96E000EF42008
:10077800DA6E000EDF6E0001E02BEDD70001CB6FC3
:100788000001CB510001D8A488D00001C351435CBB
:100798000001C45144580001C55145584650800ACB
:1007A8000001C76F0001C651800A0001C759D8B0BF
:1007B80032D0000E0001B76F43C0C7F044C0C8F084
:1007C80045C0C9F046C0CAF00001C71FC81FC91FED
:1007D800CA1FC72B000EC823C923CA230001C3514F
:1007E8000001C7250001B86F0001C4510001C821EC
:1007F8000001B96F0001C5510001C9210001BA6F9C
:100808000001C6510001CA210001BB6F0001CB5194
:10081800DDEC04F0120043500001C35D44500001B8
:10082800C45945500001C5590001C651800A00014C
:10083800C76F4650800A0001C759D8B01200010E90
:100848000001B76FC3C0C7F0C4C0C8F0C5C0C9F0C5
:10085800C6C0CAF00001C71FC81FC91FCA1FC72BBF
:10086800000EC823C923CA2343500001C72500012D
:10087800B86F44500001C8210001B96F455000010C
:10088800C9210001BA6F46500001CA210001BB6F9F
:100898000001CB51DDEC04F012000001CB05D8A417
:1008A80012000001C351475C0001C45148580001BF
:1008B800C55149584A50800A0001C76F0001C65106
:1008C800800A0001C759D8B032D0000E0001B76FB6
:1008D80047C0C7F048C0C8F049C0C9F04AC0CAF00C
:1008E8000001C71FC81FC91FCA1FC72B000EC82376
:1008F800C923CA230001C3510001C7250001B86FED
:100908000001C4510001C8210001B96F0001C5519F
:100918000001C9210001BA6F0001C6510001CA21B6
:100928000001BB6F0001CB51DDEC04F01200435015
:100938000001C35D44500001C45945500001C55928
:100948000001C651800A0001C76F4650800A0001A5
:10095800C759D8B01200010E0001B76FC3C0C7F065
:10096800C4C0C8F0C5C0C9F0C6C0CAF00001C71FDE
:10097800C81FC91FCA1FC72B000EC823C923CA23F3
:1009880047500001C7250001B86F48500001C82131
:100998000001B96F49500001C9210001BA6F4A50DE
:1009A8000001CA210001BB6F0001CB51DDEC04F04E
:1009B80012000001C26F000E0001C06F000E00019E
:1009C800C16F0001B8510001B9110001BA1100014D
:1009D800BB11D8A491D0020E0001B719D8A41200F7
:1009E8008BD0000E0001C06F010E0001C16F000125
:1009F800C2510001D8A410D00001B8514324356E6B
:100A08000001B9514420366E0001BA514520376EB5
:100A18000001BB51462040D00001C205D8A476D0C1
:100A28000001B8514724396E0001B95148203A6E87
:100A38000001BA5149203B6E0001BB514A2053D0F6
:100A4800010E0001C06F000E0001C16F0001C2510C
:100A58000001D8A423D0B8C0BCF0B9C0BDF0BAC05A
:100A6800BEF0BBC0BFF00001BC1FBD1FBE1FBF1F33
:100A7800BC2B000EBD23BE23BF2343500001BC2561
:100A8800356E44500001BD21366E45500001BE212F
:100A9800376E46500001BF21386E38D00001C205BC
:100AA800D8A434D0B8C0BCF0B9C0BDF0BAC0BEF04C
:100AB800BBC0BFF00001BC1FBD1FBE1FBF1FBC2BAA
:100AC800000EBD23BE23BF2347500001BC25396E4D
:100AD80048500001BD213A6E49500001BE213B6ECD
:100AE8004A500001BF213C6E11D0010E0001C06FB9
:100AF800010E0001C16F0AD00001B751000AD8B435
:100B080070D7010AD8B49CD7030AEFD70001C251A5
:100B18000001D8A41AD0B8C0B2F0B9C0B3F0BAC0B6
:100B2800B4F0BBC0B5F0000E83EC06F0819E819C4A
:100B38000001C0A102D0818E01D0819E0001C1A117
:100B480002D0818C1200819C12000001C205D8A439
:100B58001200B8C0B2F0B9C0B3F0BAC0B4F0BBC0AC
:100B6800B5F0010E83EC06F0819A81980001C0A1CE
:100B780002D0818A01D0819A0001C1A102D0818866
:100B88001200819812000F6E000E106E000E116E8A
:100B98000750081009100A10D8A472D0020E0618BF
:100BA800D8A412006DD0000E106E010E116E0F50F9
:100BB800D8A40CD007504324356E08504420366E14
:100BC80009504520376E0A50462032D00F04D8A469
:100BD80060D007504724396E085048203A6E0950B3
:100BE80049203B6E0A504A2044D0010E106E000E78
:100BF800116E0F50D8A41ED007C00BF008C00CF01F
:100C080009C00DF00AC00EF00B1E0C1E0D1E0E1EA4
:100C18000B2A000E0C220D220E2243500B24356E97
:100C280044500C20366E45500D20376E46500E202D
:100C3800386E2FD00F04D8A42CD007C00BF008C0F2
:100C48000CF009C00DF00AC00EF00B1E0C1E0D1E94
:100C58000E1E0B2A000E0C220D220E2247500B24CA
:100C6800396E48500C203A6E49500D203B6E4A5060
:100C78000E203C6E0ED0010E106E010E116E09D0C2
:100C88000650000AD8B48FD7010AD8B4AED7030AE1
:100C9800F2D70F50D8A418D007C001F008C002F04E
:100CA80009C003F00AC004F0000E27EC07F0819E8B
:100CB800819C10A002D0818E01D0819E11A002D00B
:100CC800818C1200819C12000F04D8A4120007C066
:100CD80001F008C002F009C003F00AC004F0010ED8
:100CE80027EC07F0819A819810A002D0818A01D060
:100CF800819A11A002D08188120081981200000107
:100D0800B66F0001B6510001D8A44CD00001B5510E
:100D18000001B4110001B31105E1B40E0001B25D88
:100D2800D8A007D0500EBE18D8B41200500EBE6E10
:100D380012000001B5510001B4110001B31105E121
:100D4800140E0001B25DD8A007D00A0EBE18D8B4A0
:100D580012000A0EBE6E12000001B5510001B41156
:100D68000001B31105E10A0E0001B25DD8A007D059
:100D7800050EBE18D8B41200050EBE6E1200000192
:100D8800B5510001B4110001B31104E1020E0001D4
:100D9800B25DD8B01200020EBE18D8B41200020E0E
:100DA800BE6E12000001B605D8A412000001B551AC
:100DB8000001B4110001B31105E1B40E0001B25DE8
:100DC800D8A007D0500EBB18D8B41200500EBB6E76
:100DD80012000001B5510001B4110001B31105E181
:100DE800140E0001B25DD8A007D00A0EBB18D8B403
:100DF80012000A0EBB6E12000001B5510001B411B9
:100E08000001B31105E10A0E0001B25DD8A007D0B8
:100E1800050EBB18D8B41200050EBB6E12000001F7
:100E2800B5510001B4110001B3110CE1020E00012B
:100E3800B25DD8B01200020EBB18D8B41200020E70
:100E4800BB6E12001200056E0550D8A43CD00450A9
:100E58000310021004E1B40E015CD8A007D0500EB4
:100E6800BE18D8B41200500EBE6E12000450031003
:100E7800021004E1140E015CD8A007D00A0EBE18B7
:100E8800D8B412000A0EBE6E1200045003100210ED
:100E980004E10A0E015CD8A007D0050EBE18D8B42C
:100EA8001200050EBE6E12000450031002104AE133
:100EB800020E015CD8B01200020EBE18D8B412009F
:100EC800020EBE6E12000504D8A4120004500310CE
:100ED800021004E1B40E015CD8A007D0500EBB1874
:100EE800D8B41200500EBB6E12000450031002104A
:100EF80004E1140E015CD8A007D00A0EBB18D8B4C0
:100F080012000A0EBB6E120004500310021004E116
:100F18000A0E015CD8A007D0050EBB18D8B4120081
:100F2800050EBB6E12000450031002100BE1020EF6
:100F3800015CD8B01200020EBB18D8B41200020E21
:100F4800BB6E12001200000E0001BB6F000EBA6FDC
:100F5800000E0001B76F52D0800E0001B96F000E6D
:100F68000001B86F070E0001B86501D045D0000E2A
:100F78000001BA150001B56F800E0001BB15000114
:100F8800B66FD8900001BA350001BA6F0001BB35C1
:100F98000001BB6F0001B751010DF3500001B225EC
:100FA800D96EF4500001B321DA6EDF500001B91593
:100FB8000009D8B409D0010E0001BA110001BA6FB6
:100FC8000001BB510001BB6F0001D890B93100018D
:100FD800B96F0001B5510001B611D8B40AD0210E7D
:100FE8000001BA190001BA6F100E0001BB19000107
:100FF800BB6F0001B82BB6D70001B72B0001B45165
:101008000001B75DD8A0A8D7BAC0B2F0BBC0B3F092
:101018001200000E0001B36F000EB26F1F0E806E3B
:101028009268F30E816E0F0E936E000E826E810E23
:10103800946E0E0EC16EF086F088F18AF188F090F9
:10104800F092F09CF09E829A040EAC6E800EAB6E0D
:10105800B886020EB06E080EAF6E020ECA6E4F0E44
:10106800CB6E000ECC6E0C0EBD6E0C0EBA6E500E12
:10107800BE6E500EBB6EF90EB16E2C0EB26ECF0E58
:10108800B36EA082D08EA292A192818E818C818A29
:101098008188CA84AC8AAB889D8A9F9A9E9AF28C72
:1010A800F28E12000600E9CF29F0EACF2AF0E1CF4C
:1010B8002BF0E2CF2CF0D9CF2DF0DACF2EF0F3CFF2
:1010C8002FF0F4CF30F0F6CF31F0F7CF32F0F8CF81
:1010D80033F0F5CF34F034C0F5FF33C0F8FF32C039
:1010E800F7FF31C0F6FF30C0F4FF2FC0F3FF2EC06A
:1010F800DAFF2DC0D9FF2CC0E2FF2BC0E1FF2AC0C8
:10110800EAFF29C0E9FF28C0FBFF27C0FAFF4B927E
:10111800110000EE80F0320EEE6AE806FDE100EE06
:1011280035F00E0EEE6AE806FDE1D60EF66E110EEB
:10113800F76E000EF86E00EE43F010EE08F00900AE
:10114800F5CFEEFFE550E150FAE14B904B92000EDF
:10115800F86E0001DEEF08F0828A000E0001B56F1C
:101168000FD09EA8FED7B2C0D9FFB3C0DAFFDF50B8
:10117800AD6E0001B24BB32BACA2FED70001B52B6C
:101188000001B4510001B55DD8A0EBD7829A1200D6
:10119800BCC0B2F0BDC0B3F0BEC0B4F0A7EC07F05D
:1011A8000001B2510001B311D8A402D0000E120000
:1011B800FF0E12000DEC08F0F70E0001E16FC00EF3
:1011C800E82EFED7E12FFCD7E5EC01F0FDD730750E
:0611D8000000307500006C
:020000040020DA
:08000000FFFFFFFFFFFFFFFF00
:020000040030CA
:0E000000FF061E1EFF0181FF0FC00FE00F4024
:00000001FF
