:040000001CEF01F000
:0E0008005C82FACF21F0FBCF22F01FED04F056
:100018005C80D8CF0FF0E8CF10F0E0CF11F0FACF26
:1000280012F0FBCF13F0E9CF14F0EACF15F0E1CFCF
:1000380016F0E2CF17F0D9CF18F0DACF19F0F3CFD6
:100048001AF0F4CF1BF0F6CF1CF0F7CF1DF0F8CF65
:100058001EF0F5CF1FF09DBA9EAA31D04A50070D69
:10006800800E0D6E000E0E6EF3500D26F4500E220B
:100078004950010DF3500D24D96EF4500E20DA6E5C
:10008800AECFDFFF492A4904D8A40CD04A50070D47
:10009800800EF324D96E000EF420DA6E550EDE18A9
:1000A800D8A40BD0070E4918D8A409D04A2A060E9E
:1000B8004A18D8A402D0000E4A6E000E496EA0B2AB
:1000C800A1A20BD0010E4326000E4422452246224F
:1000D8002C0EB26ECF0EB36EA192F0A0F0B201D08A
:1000E80083D0000E80B2010E80B40209206E2F501A
:1000F800D8A42BD03050D8A428D034D02004D8B4D9
:1001080006D0020E12D0030E2018D8A408D0FF0E75
:100118005426FF0E5522FF0E5622FF0E14D02050F3
:100128000BD02050D8B4F3D7030E201805D0020EF8
:100138002018D8B4ECD72004D8A414D0010E542623
:10014800000E5522562257220DD02F50000AD8B43F
:10015800D5D7010AD8B4D7D7030AD8B4E2D7010A49
:10016800D8B4E5D720C02FF04C04D8A41CD05450E4
:100178003B5C55503C5856503D583E50800A0D6ED9
:100188005750800A0D58D8B02DD0020E016E000EBF
:10019800026E000E036E000E046E000E056E000E59
:1001A800F6EC02F01FD0020E4C18D8A41BD03B501E
:1001B800545C3C5055583D5056585750800A0D6E67
:1001C8003E50800A0D58D8B00DD0020E016E000EB8
:1001D800026E000E036E000E046E000E056E000E19
:1001E800F6EC02F0F090F0921FC0F5FF1EC0F8FF89
:1001F8001DC0F7FF1CC0F6FF1BC0F4FF1AC0F3FFB9
:1002080019C0DAFF18C0D9FF17C0E2FF16C0E1FF16
:1002180015C0EAFF14C0E9FF13C0FBFF12C0FAFFC4
:1002280011C0E0FF10C0E8FF0FC0D8FF5C901000BD
:1002380056EF04F04A504B18D8B41200000E0001D3
:10024800CF6F000E0001CE6F000E0001CF6F060EBB
:100258000001CF6501D042D04B50070D800E000140
:10026800BB6F000E0001BC6FF3500001BB27F450B8
:100278000001BC230001CF51010DF3500001BB2543
:10028800D96EF4500001BC21DA6E0001CF51010D86
:100298004D0EF324E16E000EF420E26EDFCFE7FF8F
:1002A8004B50070D800E0001BB6F000E0001BC6FA4
:1002B800F3500001BB27F4500001BC230001CF51CB
:1002C800010DF3500001BB25D96EF4500001BC218B
:1002D800DA6E000EDF6E0001CF2BB9D74B2A060E5F
:1002E8004B18D8A402D0000E4B6E000E81B6010E3A
:1002F8000001CE6F4D0E0001B86F000E0001B96FFE
:10030800070E0001BA6F95EC04F00009D8A4C5D017
:100318000001CE514E18D8B4A7D04E28D8B4A4D0D6
:10032800BCD0000E0001AE6F51500001BC6FBB6B1A
:1003380050500001BD6FBE6B0001BB510001BD13E1
:100348000001BC510001BE13BDC0AFF0BEC0B0F08B
:100358000001000EB0BFFF0EB16FB26F000E67EC68
:1003680002F0010E6DD0010E0001AE6F5150000178
:10037800BC6FBB6B50500001BD6FBE6B0001BB5121
:100388000001BD130001BC510001BE13BDC0AFF098
:10039800BEC0B0F00001000EB0BFFF0EB16FB26F6B
:1003A800000E67EC02F0020E4BD0020E0001AE6F99
:1003B80051500001BC6FBB6B50500001BD6FBE6B4C
:1003C8000001BB510001BD130001BC510001BE1367
:1003D800BDC0AFF0BEC0B0F00001000EB0BFFF0E50
:1003E800B16FB26F000E67EC02F0030E29D0000E59
:1003F8000001AE6F50500001AF6FB06BB16BB26BC4
:10040800010E67EC02F0040E1BD0010E0001AE6F66
:1004180050500001AF6FB06BB16BB26B010E67EC5F
:1004280002F0050E0DD0020E0001AE6F5050000113
:10043800AF6FB06BB16BB26B010E67EC02F0060EDA
:100448004C6E2BD054C0BFF055C0C0F0BF0E000199
:10045800AE6F000E0001AF6F020E0001B06F79ECB5
:1004680004F01BD0FF0019D04F50010AD8B459D757
:10047800030AD8B478D7010AD8B497D7070AD8B4EA
:10048800B6D7010AD8B4C1D7030AD8B4CCD7010A61
:10049800D8B4D8D7180AD8B4E5D7000E0001CF6F62
:1004A800060E0001CF6501D012000001CF51010DE9
:1004B8004D0EF324D96E000EF420DA6E000EDF6EB6
:1004C8000001CF2BEDD70001B36FAFC0B4F0B0C0BF
:1004D800B5F0B1C0B6F0B2C0B7F0000E0001B86F09
:1004E800000E0001B96F54C037F055C038F056C03F
:1004F80039F057C03AF058C03FF059C040F05AC0E0
:1005080041F05BC042F019D0000E11D0010E00017D
:10051800B86F000E0001B96F0001B71FB61FB51FF5
:10052800B46D000EB523B623B72311D0010E000118
:10053800B86F010E0001B96F0AD00001AE51000A70
:10054800D8B4E2D7010AD8B4E1D7030AEFD700013B
:10055800B3510001D8A41FD00001B45137243B6E19
:100568000001B55138203C6E0001B65139203D6E6E
:100578000001B7513A203E6E819E819C0001B8A1CE
:1005880002D0818E01D0819E0001B9A102D0818C58
:100598001200819C12000001B305D8A412000001CA
:1005A800B4513F240001AA6F0001B5514020000159
:1005B800AB6F0001B65141200001AC6F0001B7518B
:1005C80042200001AD6F819A81980001B8A102D044
:1005D800818A01D0819A0001B9A102D081881200D4
:1005E80081981200066E02C009F003C00AF004C028
:1005F8000BF005C00CF0000E076E000E086E54C01C
:1006080037F055C038F056C039F057C03AF058C0E6
:100618003FF059C040F05AC041F05BC042F014D0DE
:10062800000E0ED0010E076E000E086E0C1E0B1E7B
:100638000A1E096C000E0A220B220C220ED0010E93
:10064800076E010E086E09D00150000AD8B4E8D729
:10065800010AD8B4E7D7030AF2D70650D8A419D0AC
:10066800095037243B6E0A5038203C6E0B50392015
:100678003D6E0C503A203E6E819E819C07A002D0B0
:10068800818E01D0819E08A002D0818C1200819CAD
:1006980012000604D8A4120009503F240001AA6FD2
:1006A8000A5040200001AB6F0B5041200001AC6F95
:1006B8000C5042200001AD6F819A819807A002D0AA
:1006C800818A01D0819A08A002D08188120081987D
:1006D8001200000E0001B76F000EB66F000E000189
:1006E800B36F52D0800E0001B56F000E0001B46FD9
:1006F800070E0001B46501D045D0000E0001B61503
:100708000001B16F800E0001B7150001B26FD890DB
:100718000001B6350001B66F0001B7350001B76FAB
:100728000001B351010DF3500001AE25D96EF4500C
:100738000001AF21DA6EDF500001B5150009D8B409
:1007480009D0010E0001B6110001B66F0001B751C2
:100758000001B76F0001D890B5310001B56F0001F5
:10076800B1510001B211D8B40AD0210E0001B61956
:100778000001B66F100E0001B7190001B76F000134
:10078800B42BB6D70001B32B0001B0510001B35D03
:10079800D8A0A8D7B6C0AEF0B7C0AFF01200000E10
:1007A8000001AF6F000EAE6F1F0E806E9268F30EE1
:1007B800816E0F0E936E000E826E810E946E0E0E79
:1007C800C16EF288F086F088F19CF18AF198F29275
:1007D800F090F092F09CF09E829A040EAC6E800E1F
:1007E800AB6EB886020EB06E080EAF6E020ECA6E01
:1007F8004F0ECB6E000ECC6E0C0EBD6E0C0EBA6E8C
:100808000A0EBE6E0A0EBB6EF90EB16E2C0EB26EDB
:10081800CF0EB36EA082D08EA292A192818E818CCF
:10082800818A8188CA84AC8AAB889D8A9F9A9E9A5D
:10083800F28CF28E12000600E9CF23F0EACF24F002
:10084800E1CF25F0E2CF26F0D9CF27F0DACF28F094
:10085800F3CF29F0F4CF2AF0F6CF2BF0F7CF2CF016
:10086800F8CF2DF0F5CF2EF02EC0F5FF2DC0F8FFF4
:100878002CC0F7FF2BC0F6FF2AC0F4FF29C0F3FFF6
:1008880028C0DAFF27C0D9FF26C0E2FF25C0E1FF54
:1008980024C0EAFF23C0E9FF22C0FBFF21C0FAFF02
:1008A8005C92110000EE80F02E0EEE6AE806FDE183
:1008B80000EE2FF0250EEE6AE806FDE1680EF66EF2
:1008C800090EF76E000EF86E00EE54F010EE08F008
:1008D8000900F5CFEEFFE550E150FAE15C905C923B
:1008E800000EF86E0001A7EF04F0828A000E0001E6
:1008F800B16F0FD09EA8FED7AEC0D9FFAFC0DAFF48
:10090800DF50AD6E0001AE4BAF2BACA2FED700019D
:10091800B12B0001B0510001B15DD8A0EBD7829A8C
:100928001200B8C0AEF0B9C0AFF0BAC0B0F06DEC0C
:1009380003F00001AE510001AF11D8A402D0000E9F
:100948001200FF0E1200D3EC03F0F70E0001D06F77
:10095800C00EE82EFED7D02FFCD71EEC01F0FDD735
:0809680030750000307500003D
:020000040020DA
:08000000FFFFFFFFFFFFFFFF00
:020000040030CA
:0E000000FF061E1EFF0181FF0FC00FE00F4024
:00000001FF
