:04000000C3EF00F05A
:0E0008007D82FACF80F0FBCF81F040ED0CF04E
:100018007D80D8CF40F0E8CF41F0E0CF42F0FACF72
:1000280043F0FBCF44F0E9CF45F0EACF46F0E1CF0B
:1000380047F0E2CF48F0D9CF49F0DACF4AF0F3CF12
:100048004BF0F4CF4CF0F6CF4DF0F7CF4EF0F8CFA1
:100058004FF0F5CF50F09DBA9EAA31D07850070DD9
:10006800000E3E6E010E3F6EF3503E26F4503F22C6
:100078007750010DF3503E24D96EF4503F20DA6ECC
:10008800AECFDFFF772A7704D8A40CD07850070DBD
:10009800000EF324D96E010EF420DA6E550EDE1828
:1000A800D8A40BD0070E7718D8A409D0782A060E42
:1000B8007818D8A402D0000E786E000E776EA0B221
:1000C800A1A20DD0010E5926000E5A225B225C22F5
:1000D8002C0EB26ECF0EB36EBDEC06F0A192F0B846
:1000E800F0A213D080A407D0010E0001B927000E9A
:1000F800BA23BB2308D0FF0E0001B927FF0EBA238D
:10010800FF0EBB23FF0EBC23F092F0B6F0A013D075
:1001180080AA07D0010E0001BD27000EBE23BF2311
:1001280008D0FF0E0001BD27FF0EBE23FF0EBF2320
:10013800FF0EC023F09050C0F5FF4FC0F8FF4EC02F
:10014800F7FF4DC0F6FF4CC0F4FF4BC0F3FF4AC0A9
:10015800DAFF49C0D9FF48C0E2FF47C0E1FF46C007
:10016800EAFF45C0E9FF44C0FBFF43C0FAFF42C0B5
:10017800E0FF41C0E8FF40C0D8FF7D901000DDEFF0
:100188000CF078500001D519D8B41200000E000107
:10019800B76F000E0001B66F000E0001B76F060EB4
:1001A8000001B76501D044D00001D551070D000EFC
:1001B8000001A36F010E0001A46FF3500001A327F3
:1001C800F4500001A4230001B751010DF3500001C0
:1001D800A325D96EF4500001A421DA6E0001B751AD
:1001E800010DD60EF324E16E000EF420E26EDFCF8F
:1001F800E7FF0001D551070D000E0001A36F010EA6
:100208000001A46FF3500001A327F4500001A423B8
:100218000001B751010DF3500001A325D96EF45028
:100228000001A421DA6E000EDF6E0001B72BB7D7EC
:100238000001D52B060E0001D519D8A403D0000E55
:100248000001D56F000E81B6010E0001B66FD60E03
:100258000001986F000E0001996F070E00019A6F58
:10026800F6EC0CF00009D8A45BD10001B6510001EE
:10027800D719D8B435D10001D729D8B431D150D144
:10028800000E00018E6F0001DA510001A46FA36B0C
:100298000001D9510001A56FA66B0001A35100010F
:1002A800A5130001A4510001A613A5C08FF0A6C094
:1002B80090F00001000E90BFFF0E916F926F000E3C
:1002C800FCEC04F02DD1010E00018E6F0001DA5113
:1002D8000001A46FA36B0001D9510001A56FA66BA3
:1002E8000001A3510001A5130001A4510001A613A8
:1002F800A5C08FF0A6C090F00001000E90BFFF0EC1
:10030800916F926F000EFCEC04F00AD1020E00010E
:100318008E6F0001DA510001A46FA36B0001D9515F
:100328000001A56FA66B0001A3510001A5130001F0
:10033800A4510001A613A5C08FF0A6C090F000013B
:10034800000E90BFFF0E916F926F000EFCEC04F050
:10035800E7D0000E00018E6F0001DA510001A46F92
:10036800A36B0001D9510001A56FA66B0001A35131
:100378000001A5130001A4510001A613A5C08FF028
:10038800A6C090F00001000E90BFFF0E916F926F13
:10039800010EFCEC04F0C4D0010E00018E6F0001C8
:1003A800DA510001A46FA36B0001D9510001A56FB8
:1003B800A66B0001A3510001A5130001A45100017F
:1003C800A613A5C08FF0A6C090F00001000E90BF44
:1003D800FF0E916F926F010EFCEC04F0A1D0020E9B
:1003E80000018E6F0001DA510001A46FA36B0001B8
:1003F800D9510001A56FA66B0001A3510001A513F7
:100408000001A4510001A613A5C08FF0A6C090F06A
:100418000001000E90BFFF0E916F926F010EFCEC71
:1004280004F07ED0B9C0A7F0BAC0A8F0BBC0A9F04C
:10043800BCC0AAF0BDC0ABF0BEC0ACF0BFC0ADF050
:10044800C0C0AEF0A70E00018E6F000E00018F6FC6
:10045800080E0001906FA5EC0CF062D00001DA5193
:100468000001A46FA36B0001D9510001A56FA66B11
:100478000001A3510001A5130001A4510001A61316
:10048800A5C09AF0A6C09BF00001000E9BBFFF0E0E
:100498009C6F9D6F000EAAEC02F042D00001DA5169
:1004A8000001A46FA36B0001D9510001A56FA66BD1
:1004B8000001A3510001A5130001A4510001A613D6
:1004C800A5C09AF0A6C09BF00001000E9BBFFF0ECE
:1004D8009C6F9D6F010EAAEC02F022D0FF0020D085
:1004E8000001D851010AD8B4CBD6030AD8B4EBD648
:1004F800010AD8B40BD7070AD8B42BD7010AD8B445
:100508004BD7030AD8B46BD7010AD8B48BD70F0AD4
:10051800D8B4A4D7010AD8B4C1D7160AD8B4DED73C
:10052800000E0001B76F060E0001B76501D012007A
:100538000001B751010DD60EF324D96E000EF42038
:10054800DA6E000EDF6E0001B72BEDD70001A26F47
:100558000001A2510001D8A494D000019A510001D1
:10056800B95D00019B510001BA5900019C5100017D
:10057800BB590001BC51800A00019E6F00019D51CA
:10058800800A00019E59D8B032D0000E00018E6F4B
:10059800B9C09EF0BAC09FF0BBC0A0F0BCC0A1F02B
:1005A80000019E1F9F1FA01FA11F9E2B000E9F23AF
:1005B800A023A12300019A5100019E2500018F6FFD
:1005C80000019B5100019F210001906F00019C5187
:1005D8000001A0210001916F00019D510001A1219E
:1005E8000001926F0001A251FCEC04F0120000011E
:1005F800B95100019A5D0001BA5100019B590001EF
:10060800BB5100019C5900019D51800A00019E6F59
:100618000001BC51800A00019E59D8B01200010E99
:1006280000018E6F9AC09EF09BC09FF09CC0A0F006
:100638009DC0A1F000019E1F9F1FA01FA11F9E2B00
:10064800000E9F23A023A1230001B95100019E257C
:1006580000018F6F0001BA5100019F210001906FC6
:100668000001BB510001A0210001916F0001BC51A4
:100678000001A1210001926F0001A251FCEC04F0DD
:1006880012000001A205D8A4120000019A5100012D
:10069800BD5D00019B510001BE5900019C51000144
:1006A800BF590001C051800A00019E6F00019D5191
:1006B800800A00019E59D8B032D0000E00018E6F1A
:1006C800BDC09EF0BEC09FF0BFC0A0F0C0C0A1F0EA
:1006D80000019E1F9F1FA01FA11F9E2B000E9F237E
:1006E800A023A12300019A5100019E2500018F6FCC
:1006F80000019B5100019F210001906F00019C5156
:100708000001A0210001916F00019D510001A1216C
:100718000001926F0001A251FCEC04F012000001EC
:10072800BD5100019A5D0001BE5100019B590001B5
:10073800BF5100019C5900019D51800A00019E6F24
:100748000001C051800A00019E59D8B01200010E64
:1007580000018E6F9AC09EF09BC09FF09CC0A0F0D5
:100768009DC0A1F000019E1F9F1FA01FA11F9E2BCF
:10077800000E9F23A023A1230001BD5100019E2547
:1007880000018F6F0001BE5100019F210001906F91
:100798000001BF510001A0210001916F0001C0516B
:1007A8000001A1210001926F0001A251FCEC04F0AC
:1007B800120071C0D9FF72C0DAFFDECF30F0DECF91
:1007C80031F0DDCF32F030C018F031C019F032C04E
:1007D8001AF008EC0DF018C01BF019C01CF01AC074
:1007E8001DF075C0D9FF76C0DAFFDECF1EF0DECF70
:1007F8001FF0DDCF20F0E7EC05F01BC02DF01CC08A
:100808002EF01DC02FF05DC01BF05EC01CF05FC055
:100818001DF02DC00CF02EC00DF02FC00EF063C0DF
:1008280009F064C00AF065C00BF0EEEC08F009C0EE
:100838001EF00AC01FF00BC020F0E7EC05F01BC04B
:100848005DF01CC05EF01DC05FF069C001F06AC0B9
:1008580002F06BC003F05DC004F05EC005F05FC03D
:1008680006F03EEC0BF0D8B007D069C05DF06AC066
:100878005EF06BC05FF016D05DC001F05EC002F0A4
:100888005FC003F06CC004F06DC005F06EC006F0E8
:100898003EEC0BF0D8B006D06CC05DF06DC05EF0D9
:1008A8006EC05FF0D2C018F0D3C019F0D4C01AF0EF
:1008B80008EC0DF018C01BF019C01CF01AC01DF090
:1008C80030C01EF031C01FF032C020F0E7EC05F058
:1008D8001BC027F01CC028F01DC029F027C00CF051
:1008E80028C00DF029C00EF060C009F061C00AF000
:1008F80062C00BF0EEEC08F009C018F00AC019F05D
:100908000BC01AF008EC0DF018C01EF019C01FF04B
:100918001AC020F02DC00CF02EC00DF02FC00EF024
:1009280066C009F067C00AF068C00BF0EEEC08F08A
:1009380009C01BF00AC01CF00BC01DF0E7EC05F065
:100948001BC02AF01CC02BF01DC02CF02AC01BF0C5
:100958002BC01CF02CC01DF05DC01EF05EC01FF047
:100968005FC020F0E7EC05F01BC033F01CC034F08A
:100978001DC035F069C001F06AC002F06BC003F019
:1009880033C004F034C005F035C006F03EEC0BF07F
:10099800D8B007D069C033F06AC034F06BC035F006
:1009A80016D033C001F034C002F035C003F06CC07B
:1009B80004F06DC005F06EC006F03EEC0BF0D8B048
:1009C80006D06CC033F06DC034F06EC035F073C023
:1009D800D9FF74C0DAFF33C0DEFF34C0DEFF35C094
:1009E800DEFF30C0D2F031C0D3F032C0D4F01200F4
:1009F8000001996F000E0001976F000E0001986FBB
:100A080000018F5100019011000191110001921114
:100A1800D8A4A8D0020E00018E19D8A41200A2D022
:100A2800000E0001976F010E0001986F00019951A7
:100A38000001D8A414D000018F510001B925556ECA
:100A4800000190510001BA21566E00019151000138
:100A5800BB21576E000192510001BC214BD000010F
:100A68009905D8A489D000018F510001BD25000146
:100A7800C56F000190510001BE210001C66F000141
:100A880091510001BF210001C76F0001925100017F
:100A9800C0215ED0010E0001976F000E0001986F13
:100AA800000199510001D8A427D08FC093F090C0BD
:100AB80094F091C095F092C096F00001931F941F96
:100AC800951F961F932B000E9423952396230001C0
:100AD800B95100019325556E0001BA5100019421C6
:100AE800566E0001BB5100019521576E0001BC51A3
:100AF80000019621586E40D000019905D8A43CD039
:100B08008FC093F090C094F091C095F092C096F089
:100B18000001931F941F951F961F932B000E94237B
:100B2800952396230001BD51000193250001C56F4F
:100B38000001BE51000194210001C66F0001BF51A0
:100B4800000195210001C76F0001C05100019621E5
:100B58000001C86F11D0010E0001976F010E00014E
:100B6800986F0AD000018E51000AD8B459D7010AEB
:100B7800D8B490D7030AEFD7000199510001D8A43F
:100B88000FD0819E819C000197B102D0819E01D037
:100B9800818E000198B102D0819C01D0818C120015
:100BA80000019905D8A41200819A8198000197B193
:100BB80002D0819A01D0818A000198B102D081982F
:100BC80001D0818812001DC021F0226A236A1C34DA
:100BD800213601E322802150266E20C021F0226AAE
:100BE800236A1F34213601E322802150256E2650C6
:100BF800D8B40BD02550265CD8B00ED026500008AB
:100C08002524216E180E216407D01EC01BF01FC0BA
:100C18001CF020C01DF012002550D8B40BD026506F
:100C2800255CD8B00ED0255000082624216E180E59
:100C3800216407D01BC01BF01CC01CF01DC01DF098
:100C48001200060E246E1DBE248E20BE248C1C8E1F
:100C5800FF0E1B16FF0E1C16000E1D161F8EFF0E14
:100C68001E16FF0E1F16000E20162550265CD8B043
:100C78001BD0D8901E361F3620362506265025183C
:100C8800D8B40DD0240624C021F0070E2116D8B4FC
:100C980006D0EFD7D8901D321C321B32262A255099
:100CA8002618D8B41FD0F6D72650255CD8B01AD04D
:100CB800D8901B361C361D36260626502518D8B463
:100CC8000DD0240624C021F0070E2116D8B406D072
:100CD800EFD7D89020321F321E32252A25502618E9
:100CE800D8A4F7D724AE0CD0FF0E1B1AFF0E1C1A7F
:100CF800FF0E1D1A010E1B26000E1C22000E1D22BF
:100D080024AC0CD0FF0E1E1AFF0E1F1AFF0E201A5D
:100D1800010E1E26000E1F22000E2022000E246E39
:100D28001B501E261C501F221D50202220AE0ED004
:100D3800FF0E1E1AFF0E1F1AFF0E201A010E1E2686
:100D4800000E1F22000E2022010E246E1EC001F08C
:100D58001FC002F020C003F026C004F024C005F034
:100D68009EEC0AF001C01BF002C01CF003C01DF08D
:100D7800120055500001B91911E156500001BA1975
:100D88000DE157500001BB1909E158500001BC1989
:100D9800D8A404D0000E27EC0DF01200B9C009F059
:100DA800BAC00AF0BBC00BF0BCC00CF0CBEC0BF027
:100DB80009C0DDF00AC0DEF00BC0DFF055C009F055
:100DC80056C00AF057C00BF058C00CF0CBEC0BF033
:100DD80009C0E0F00AC0E1F00BC0E2F0DD0E2D6EB4
:100DE800000E2E6E7A0E2F6E000E306EE00E316EF3
:100DF800000E326EF60E336E280E346E400E356ECF
:100E0800E90E366E660E376E410E386E420E396E3A
:100E1800F70E3A6E3D0E3B6E000E3D6E000E3C6EB8
:100E280086EC0BF0DDEC03F07A507B107C10D8A434
:100E380004D0000E27EC0DF02BD0000E016E000E32
:100E4800026E000E036E7AC004F07BC005F07CC011
:100E580006F03EEC0BF0D8B004D0000E34EC0DF0E8
:100E680017D0000E41EC0DF07AC009F07BC00AF0F3
:100E78007CC00BF0000E0C6E800E0D6EBF0E0E6E59
:100E8800EEEC08F009C07AF00AC07BF00BC07CF0E9
:100E98007AC001F07BC002F07CC003F074EC08F06B
:100EA8000150BE6E120023BE120026BE120029BEDB
:100EB800120021C0CFF022C0D0F023C0D1F024C04E
:100EC800CCF025C0CDF026C0CEF027C0C9F028C090
:100ED800CAF029C0CBF051C009F052C00AF053C083
:100EE8000BF054C00CF077EC0CF009C012F00AC0FB
:100EF80013F00BC014F0000E156E7A0E166E440E29
:100F0800176E68EC09F012C02AF013C02BF014C059
:100F18002CF021C066F022C067F023C068F024C01E
:100F280009F025C00AF026C00BF02AC00CF02BC02F
:100F38000DF02CC00EF0EEEC08F009C063F00AC00A
:100F480064F00BC065F027C012F028C013F029C068
:100F580014F02AC015F02BC016F02CC017F068EC5E
:100F680009F012C060F013C061F014C062F06F04A1
:100F78007010D8A4120066C018F067C019F068C0D5
:100F88001AF008EC0DF018C066F019C067F01AC026
:100F980068F063C018F064C019F065C01AF008EC76
:100FA8000DF018C063F019C064F01AC065F060C095
:100FB80018F061C019F062C01AF008EC0DF018C002
:100FC80060F019C061F01AC062F012000AC001F0A6
:100FD8000BC002F00CC003F00DC004F00EC005F009
:100FE8000FC006F03EEC0BF0D8B012000AC06CF04F
:100FF8000BC06DF00CC06EF00DC069F00EC06AF049
:101008000FC06BF07950D8B4120069C001F06AC003
:1010180002F06BC003F073C0D9FF74C0DAFFDECFF3
:1010280004F0DECF05F0DDCF06F03EEC0BF0D8B0D3
:101038000BD073C0D9FF74C0DAFF69C0DEFF6AC085
:10104800DEFF6BC0DEFF1ED073C0D9FF74C0DAFFAD
:10105800DECF01F0DECF02F0DDCF03F06CC004F08C
:101068006DC005F06EC006F03EEC0BF0D8B00AD0AB
:1010780073C0D9FF74C0DAFF6CC0DEFF6DC0DEFF3D
:101088006EC0DEFF69C001F06AC002F06BC003F0F9
:101098005DC004F05EC005F05FC006F03EEC0BF0EA
:1010A800D8B007D069C05DF06AC05EF06BC05FF071
:1010B80012005DC001F05EC002F05FC003F06CC0BA
:1010C80004F06DC005F06EC006F03EEC0BF0D8B031
:1010D80012006CC05DF06DC05EF06EC05FF0120073
:1010E80003C005F0066A076A0234053601E3068084
:1010F80005500F6E0F50D8A409D0000E016E000ED7
:10110800026E000E036E000E046E1200170E056EBE
:1011180001C006F002C007F003C008F00528096EF8
:1011280004D0D890083207320632092EFAD7065072
:101138000A6E028EFF0E0116FF0E0216000E03162F
:1011480001500B6E02500C6E03500D6E0E6A8E0E1F
:101158000F5E0FAE16D00F50800A8F0FD8B009D08F
:10116800000E016E000E026E000E036E000E046E7D
:101178001200D8900E320D320C320B320F3EF9D7D6
:1011880015D0170E0F640FD0000E016E000E026E00
:10119800000E036E000E046E1200D8900B360C364B
:1011A8000D360E360F060F50D8A4F7D70A50D8B40C
:1011B80008D00E1E0D1E0C1E0B6C000E0C220D22EC
:1011C8000E220BC001F00CC002F00DC003F00EC0DF
:1011D80004F012000BC00FF0106A116A0A340F36BF
:1011E80001E310800F50126E1250D8A407D0000EE1
:1011F800096E000E0A6E000E0B6E12000EC00FF084
:10120800106A116A0D340F3601E310800F50176E03
:101218001750D8A407D0000E096E000E0A6E000EF3
:101228000B6E120017507B0F12260BC017F00E50D2
:10123800171A800E17160A8E0D8EFF0E0C16FF0E4B
:101248000D16000E0E16000E136E000E146E000E14
:10125800156E070E166E09A006D00C5013260D50F9
:1012680014220E501522D8900B320A320932D89027
:101278000C360D360E36162EEED7090E166E09A050
:1012880006D00C5013260D5014220E501522D8905B
:101298000B320A320932D890153214321332162E14
:1012A800EED713C001F014C002F015C003F012C04D
:1012B80004F017C005F09EEC0AF001C009F002C066
:1012C8000AF003C00BF0120014C018F0196A1A6A69
:1012D8001334183601E3198018501F6E1F50D8A414
:1012E80007D0000E126E000E136E000E146E120060
:1012F80017C018F0196A1A6A1634183601E31980EB
:101308001850206E2050D8A407D0000E126E000E80
:10131800136E000E146E1200000E1C6E000E1D6E71
:10132800000E1E6E2050890F1F5E14C020F017504B
:10133800201A800E2016138EFF0E1216FF0E13169B
:10134800000E1416168EFF0E1516FF0E1616000E3A
:101358001716180E1B6ED8901C361D361E361550E3
:10136800125C1650135817501458D8A007D01550AF
:10137800125E1650135A1750145A1C80D890123601
:10138800133614361B2EE7D71CC001F01DC002F01F
:101398001EC003F01FC004F020C005F09EEC0AF048
:1013A80001C012F002C013F003C014F01200000EC6
:1013B8000001976F000E966F000E0001936F52D0D8
:1013C800800E0001956F000E0001946F070E00015A
:1013D800946501D045D0000E000196150001916F6B
:1013E800800E000197150001926FD8900001963584
:1013F8000001966F000197350001976F0001935126
:10140800010DF35000018E25D96EF45000018F2193
:10141800DA6EDF50000195150009D8B409D0010E25
:10142800000196110001966F000197510001976F16
:101438000001D89095310001956F0001915100018C
:101448009211D8B40AD0210E000196190001966FA6
:10145800100E000197190001976F0001942BB6D761
:101468000001932B000190510001935DD8A0A8D7EB
:1014780096C08EF097C08FF0120022BE1200225044
:1014880003E12104D8A0120021C009F022C00AF00B
:10149800C1EC0CF009C012F00AC013F00BC014F034
:1014A80051C009F052C00AF053C00BF054C00CF000
:1014B80077EC0CF009C015F00AC016F00BC017F055
:1014C80068EC09F012C023F013C024F014C025F012
:1014D80063C009F064C00AF065C00BF023C00CF0CB
:1014E80024C00DF025C00EF0EEEC08F009C063F042
:1014F8000AC064F00BC065F060C012F061C013F060
:1015080062C014F023C015F024C016F025C017F0EF
:1015180068EC09F012C060F013C061F014C062F00A
:1015280021C051F022C052F0000E52BEFF0E536E81
:10153800546E12000450D8B405D0015002100310A4
:10154800D8A40CD0000E016E000E026E000E036EC1
:101558001200042AD890033202320132000E01141C
:10156800066E000E0214076EFE0E0314086E065077
:1015780007100810D8B40CD0ECD7042A010E0126A5
:10158800000E0222000E0322D890033202320132EA
:10159800000E0114066E000E0214076EFF0E0314EF
:1015A800086E065007100810D8B406D0E6D704060F
:1015B800D89001360236033602BE03D0020E04600C
:1015C800F6D704A0029ED8900432045003120550A6
:1015D800D8A4038E01C001F002C002F003C003F0DA
:1015E8001200000E00018F6F000E8E6F1F0E806EAE
:1015F8009268F30E816E0F0E936E000E826E810E4E
:10160800946E0E0EC16EF086F088F18AF188F09023
:10161800F092F09CF09E829A040EAC6E800EAB6E37
:10162800B886020EB06E080EAF6E020ECA6E4F0E6E
:10163800CB6E000ECC6E0C0EBD6E0C0EBA6E500E3C
:10164800BE6E500EBB6EF90EB16E2C0EB26ECF0E82
:10165800B36EA082D08EA292A192818E818C818A53
:101668008188CA84AC8AAB889D8A9F9A9E9AF28C9C
:10167800F28E120003AE16D001C007F002C008F0C7
:1016880003C009F0071E081E091E072A000E0822BB
:101698000922000E0724016E000E0820026E800E3B
:1016A8000920036E06AE16D004C007F005C008F086
:1016B80006C009F0071E081E091E072A000E082288
:1016C8000922000E0724046E000E0820056E800E05
:1016D8000920066E000E011A000E021A800E031A67
:1016E800000E041A000E051A800E061A0450015C3A
:1016F8000550025806500358D8B002D0D8901200AE
:10170800D88012002FC073F030C074F02DC071F073
:101718002EC072F031C075F032C076F0000E796ECE
:10172800000E0A6EA00E0B6EC20E0C6E000E0D6E31
:10173800A00E0E6E420E0F6EEAEC07F0640E516EAC
:10174800000E526E000E536E000E546E3CC01BF01D
:101758003DC01CF007EC0CF033C021F034C022F07F
:1017680035C023F036C024F037C025F038C026F045
:1017780039C027F03AC028F03BC029F057EC07F0F1
:10178800000E226E0A0E216E41EC0AF01200000EC5
:10179800126E8E0E116E0CAE11D00C1E0B1E0A1E90
:1017A800096C000E0A220B220C22010E126E06D0C2
:1017B800D8900C320B320A320932112A000E091461
:1017C8000D6E000E0A140E6E000E0B140F6EFF0E37
:1017D8000C14106E0D500E100F101010D8A4E8D76E
:1017E80009C001F00AC002F00BC003F011C004F0F8
:1017F80012C005F09EEC0AF001C009F002C00AF020
:1018080003C00BF012007950D8B431D06F501B18B8
:1018180004E170501C18D8B42AD066C018F067C00C
:1018280019F068C01AF008EC0DF018C066F019C07D
:1018380067F01AC068F063C018F064C019F065C09A
:101848001AF008EC0DF018C063F019C064F01AC063
:1018580065F060C018F061C019F062C01AF008ECB9
:101868000DF018C060F019C061F01AC062F01BC01A
:101878006FF01CC070F012000600E9CF82F0EACFCA
:1018880083F0E1CF84F0E2CF85F0D9CF86F0DACFCC
:1018980087F0F3CF88F0F4CF89F0F6CF8AF0F7CF4E
:1018A8008BF0F8CF8CF0F5CF8DF08DC0F5FF8CC0A4
:1018B800F8FF8BC0F7FF8AC0F6FF89C0F4FF88C025
:1018C800F3FF87C0DAFF86C0D9FF85C0E2FF84C076
:1018D800E1FF83C0EAFF82C0E9FF81C0FBFF80C04F
:1018E800FAFF7D9211008E0E116E06D0D8900C3240
:1018F8000B320A320932112A000E09140D6E000E3D
:101908000A140E6E000E0B140F6EFF0E0C14106EE0
:101918000D500E100F101010D8A4E8D709C001F010
:101928000AC002F00BC003F011C004F0000E056EEF
:101938009EEC0AF001C009F002C00AF003C00BF0E7
:101948001200828A000E0001916F0FD09EA8FED768
:101958008EC0D9FF8FC0DAFFDF50AD6E00018E4B0D
:101968008F2BACA2FED70001912B000190510001F2
:10197800915DD8A0EBD7829A1200000E0C6E0AAEC9
:1019880006D0096C0A1ED8B00A2A010E0C6E09C0CE
:1019980001F00AC002F0036A8E0E046E0CC005F056
:1019A8009EEC0AF001C009F002C00AF003C00BF077
:1019B800120001EE00F02A0EEE6AE806FDE100EEE4
:1019C800B9F02A0EEE6AE806FDE100EE51F02C0EA1
:1019D800EE6AE806FDE17D907D92000EF86E00014A
:1019E8001AEF0DF098C08EF099C08FF09AC090F061
:1019F800DBEC09F000018E5100018F11D8A402D050
:101A0800000E1200FF0E1200185019101A10D8B448
:101A180006D0000E181A000E191A800E1A1A18C0CD
:101A280018F019C019F01AC01AF01200F5EC0AF0F3
:101A3800F70E0001B86FC00EE82EFED7B82FFCD7FE
:101A4800C5EC00F0FDD7016E0150D8A403D0818EFB
:101A5800818C12000104D8A41200818A81881200A6
:101A6800016E0150D8A403D0819E818C120001041C
:101A7800D8A41200819A81881200016E0150D8A45E
:101A880003D0818E819C12000104D8A41200818A9F
:041A9800819812001F
:020000040020DA
:08000000FFFFFFFFFFFFFFFF00
:020000040030CA
:0E000000FF061E1EFF0181FF0FC00FE00F4024
:00000001FF
