:0400000095EF00F088
:0E0008005E82FACF4DF0FBCF4EF062ED04F0B9
:100018005E80D8CF3CF0E8CF3DF0E0CF3EF0FACF9D
:100028003FF0FBCF40F0E9CF41F0EACF42F0E1CF1B
:1000380043F0E2CF44F0D9CF45F0DACF46F0F3CF22
:1000480047F0F4CF48F0F6CF49F0F7CF4AF0F8CFB1
:100058004BF0F5CF4CF09DBA9EAA31D03050070D29
:10006800010E3A6E000E3B6EF3503A26F4503B22D6
:100078002F50010DF3503A24D96EF4503B20DA6E1C
:10008800AECFDFFF2F2A2F04D8A40CD03050070D95
:10009800010EF324D96E000EF420DA6E550EDE1828
:1000A800D8A40BD0070E2F18D8A409D0302A060ED2
:1000B8003018D8A402D0000E306E000E2F6EA0B2F9
:1000C800A1A20BD0010E2B26000E2C222D222E22AF
:1000D8002C0EB26ECF0EB36EA1924CC0F5FF4BC082
:1000E800F8FF4AC0F7FF49C0F6FF48C0F4FF47C011
:1000F800F3FF46C0DAFF45C0D9FF44C0E2FF43C062
:10010800E1FF42C0EAFF41C0E9FF40C0FBFF3FC03A
:10011800FAFF3EC0E0FF3DC0E8FF3CC0D8FF5E905C
:060128001000D9EF04F005
:100600000048690A000030503118D8B41200000EBA
:1006100000018D6F000E00018C6F000E00018D6FC8
:10062000060E00018D6501D042D03150070D010E3C
:1006300000018A6F000E00018B6FF35000018A27C2
:10064000F45000018B2300018D51010DF350000186
:100650008A25D96EF45000018B21DA6E00018D518C
:10066000010D330EF324E16E000EF420E26EDFCFB5
:10067000E7FF3150070D010E00018A6F000E0001E7
:100680008B6FF35000018A27F45000018B23000187
:100690008D51010DF35000018A25D96EF4500001EF
:1006A0008B21DA6E000EDF6E00018D2BB9D7312A57
:1006B000060E3118D8A402D0000E316E000E84B69A
:1006C000010E00018C6F330E0001876F000E0001D8
:1006D000886F070E0001896FC9EC04F00009D8A4E7
:1006E00019D000018C513418D8B40DD03428D8B4A6
:1006F0000AD010D03650D8B402D080800BD0809071
:1007000009D0FF0007D035501E0AD8B4F3D7010A2C
:10071000D8B4F7D7000E00018D6F060E00018D656D
:1007200001D0120000018D51010D330EF324D96E5A
:10073000000EF420DA6E000EDF6E00018D2BEDD777
:10074000000E0001866F000E856F000E0001826FA3
:1007500050D0800E0001846F000E0001836F070EE1
:100760000001836501D043D0000E00018515000112
:10077000806F800E000186150001816FD890000106
:1007800085350001856F000186350001866F000107
:100790008251010DF3505B24D96EF4505C20DA6E67
:1007A000DF50000184150009D8B409D0010E000102
:1007B00085110001856F000186510001866F0001DF
:1007C000D89084310001846F0001805100018111B3
:1007D000D8B40AD0210E000185190001856F100ED2
:1007E000000186190001866F0001832BB8D7000134
:1007F000822B5D500001825DD8A0ABD785C05BF035
:1008000086C05CF01200000E5D6E000E5C6E1F0E66
:10081000806EFE0E926EDF0E816E130E936E000ED2
:10082000826EF90E946E0F0EC16E8080819A040E56
:10083000AC6E800EAB6EB886020EB06E080EAF6E58
:10084000020ECA6E4F0ECB6E000ECC6E0C0EBD6E3D
:100850000C0EBA6E1E0EBE6E1E0EBB6EF90EB16E83
:100860002C0EB26ECF0EB36EA082D08EA292A19249
:10087000000E326E819E818C81968184CA84000E26
:100880005D6E000E5C6E5DBE06D05D5012E10A0E1C
:100890005C5CD8B00ED0F70E5B6EC00EE82EFED7B3
:1008A0005B2EFCD75C4A5D2A5DBEF5D75D5001E149
:1008B000EED78090AC8AAB889D8A9F9A9E9AF28CE4
:1008C000F28E12000600E9CF4FF0EACF50F0E1CFF0
:1008D00051F0E2CF52F0D9CF53F0DACF54F0F3CF4A
:1008E00055F0F4CF56F0F6CF57F0F7CF58F0F8CFD9
:1008F00059F0F5CF5AF05AC0F5FF59C0F8FF58C06B
:10090000F7FF57C0F6FF56C0F4FF55C0F3FF54C0C1
:10091000DAFF53C0D9FF52C0E2FF51C0E1FF50C01F
:10092000EAFF4FC0E9FF4EC0FBFF4DC0FAFF5E92E9
:100930001100818A000E0001806F0FD09EA8FED7A3
:100940005BC0F6FF5CC0F7FF0800F5CFADFF5B4A68
:100950005C2AACA2FED70001802B5D500001805DB7
:10096000D8A0ECD7819A120003EC04F0010E5B6E64
:10097000060E5C6E030E5D6E99EC04F0F70E00013E
:100980008E6FC00EE82EFED78E2FFCD703EC03F03F
:10099000FDD787C05BF088C05CF089C05DF0A0EC3B
:1009A00003F05B505C10D8A402D0000E1200FF0EC2
:1009B000120000EE01F0390EEE6AE806FDE15E90ED
:0C09C0005E92000EF86E0001B4EF04F02F
:020000040020DA
:08000000FFFFFFFFFFFFFFFF00
:020000040030CA
:0E000000FF061E1EFF0181FF0FC00FE00F4024
:00000001FF
