:04000000C3EF00F05A
:0E0008007782FACFBAF0FBCFBBF0AAED0EF074
:100018007780D8CF46F0E8CF47F0E0CF48F0FACF66
:1000280049F0FBCF4AF0E9CF4BF0EACF4CF0E1CFF3
:100038004DF0E2CF4EF0D9CF4FF0DACF50F0F3CFFA
:1000480051F0F4CF52F0F6CF53F0F7CF54F0F8CF89
:1000580055F0F5CF56F09DBA9EAA31D06450070DE1
:10006800800E446E000E456EF3504426F45045222F
:100078006350010DF3504424D96EF4504520DA6ED4
:10008800AECFDFFF632A6304D8A40CD06450070DF9
:10009800800EF324D96E000EF420DA6E550EDE18A9
:1000A800D8A40BD0070E6318D8A409D0642A060E6A
:1000B8006418D8A402D0000E646E000E636EA0B25D
:1000C800A1A20DD0010E5F26000E602261226222DD
:1000D8002C0EB26ECF0EB36E45EC04F0A192F0B8C0
:1000E800F0A213D080A407D0010E0001AA27000EA9
:1000F800AB23AC2308D0FF0E0001AA27FF0EAB23C9
:10010800FF0EAC23FF0EAD23F092F0B6F0A013D093
:1001180080AA07D0010E0001AE27000EAF23B0233E
:1001280008D0FF0E0001AE27FF0EAF23FF0EB0234D
:10013800FF0EB123F09056C0F5FF55C0F8FF54C02C
:10014800F7FF53C0F6FF52C0F4FF51C0F3FF50C091
:10015800DAFF4FC0D9FF4EC0E2FF4DC0E1FF4CC0EF
:10016800EAFF4BC0E9FF4AC0FBFF49C0FAFF48C09D
:10017800E0FF47C0E8FF46C0D8FF7790100047EF80
:100188000FF064500001B219D8B41200000E00013B
:10019800F16F000E0001F06F000E0001F16F060E06
:1001A8000001F16501D044D00001B251070D800E65
:1001B8000001DD6F000E0001DE6FF3500001DD2746
:1001C800F4500001DE230001F151010DF35000014C
:1001D800DD25D96EF4500001DE21DA6E0001F151FF
:1001E800010DB30EF324E16E000EF420E26EDFCFB2
:1001F800E7FF0001B251070D800E0001DD6F000E10
:100208000001DE6FF3500001DD27F4500001DE230A
:100218000001F151010DF3500001DD25D96EF450B4
:100228000001DE21DA6E000EDF6E0001F12BB7D778
:100238000001B22B060E0001B219D8A403D0000E9B
:100248000001B26F000E81B6010E0001F06FB30E0F
:100258000001D26F000E0001D36F070E0001D46FAA
:1002680060EC0FF00009D8A45BD10001F051000147
:10027800B419D8B435D10001B429D8B431D150D18A
:10028800000E0001C86F0001B7510001DE6FDD6B81
:100298000001B6510001DF6FE06B0001DD51000184
:1002A800DF130001DE510001E013DFC0C9F0E0C038
:1002B800CAF00001000ECABFFF0ECB6FCC6F000E54
:1002C80094EC08F02DD1010E0001C86F0001B75160
:1002D8000001DE6FDD6B0001B6510001DF6FE06BDE
:1002E8000001DD510001DF130001DE510001E013C0
:1002F800DFC0C9F0E0C0CAF00001000ECABFFF0E9F
:10030800CB6FCC6F000E94EC08F00AD1020E0001FE
:10031800C86F0001B7510001DE6FDD6B0001B651F7
:100328000001DF6FE06B0001DD510001DF13000108
:10033800DE510001E013DFC0C9F0E0C0CAF00001DF
:10034800000ECABFFF0ECB6FCC6F000E94EC08F006
:10035800E7D0000E0001C86F0001B7510001DE6F41
:10036800DD6B0001B6510001DF6FE06B0001DD516C
:100378000001DF130001DE510001E013DFC0C9F006
:10038800E0C0CAF00001000ECABFFF0ECB6FCC6FF1
:10039800010E94EC08F0C4D0010E0001C86F0001F2
:1003A800B7510001DE6FDD6B0001B6510001DF6F50
:1003B800E06B0001DD510001DF130001DE51000197
:1003C800E013DFC0C9F0E0C0CAF00001000ECABFE8
:1003D800FF0ECB6FCC6F010E94EC08F0A1D0020E8B
:1003E8000001C86F0001B7510001DE6FDD6B00012D
:1003F800B6510001DF6FE06B0001DD510001DF1332
:100408000001DE510001E013DFC0C9F0E0C0CAF00E
:100418000001000ECABFFF0ECB6FCC6F010E94EC2B
:1004280008F07ED0AAC0E1F0ABC0E2F0ACC0E3F0C7
:10043800ADC0E4F0AEC0E5F0AFC0E6F0B0C0E7F0A4
:10044800B1C0E8F0E10E0001C86F000E0001C96FED
:10045800080E0001CA6F0FEC0FF062D00001B7510F
:100468000001DE6FDD6B0001B6510001DF6FE06B4C
:100478000001DD510001DF130001DE510001E0132E
:10048800DFC0D4F0E0C0D5F00001000ED5BFFF0EEC
:10049800D66FD76F000E88EC05F042D00001B75137
:1004A8000001DE6FDD6B0001B6510001DF6FE06B0C
:1004B8000001DD510001DF130001DE510001E013EE
:1004C800DFC0D4F0E0C0D5F00001000ED5BFFF0EAC
:1004D800D66FD76F010E88EC05F022D0FF0020D030
:1004E8000001B551010AD8B4CBD6030AD8B4EBD66B
:1004F800010AD8B40BD7070AD8B42BD7010AD8B445
:100508004BD7030AD8B46BD7010AD8B48BD70F0AD4
:10051800D8B4A4D7010AD8B4C1D7160AD8B4DED73C
:10052800000E0001F16F060E0001F16501D0120006
:100538000001F151010DB30EF324D96E000EF42021
:10054800DA6E000EDF6E0001F12BEDD720EE14F00D
:100558002750D9262850DA22DECF29F0DDCF2AF01D
:1005680029C0D9FF2AC0DAFFDECF34F0DECF35F05C
:10057800DDCF36F034C018F035C019F036C01AF0A7
:1005880072EC0FF018C01BF019C01CF01AC01DF057
:1005980020EE18F02750D9262850DA22DECF29F08D
:1005A800DDCF2AF029C0D9FF2AC0DAFFDECF1EF03E
:1005B800DECF1FF0DDCF20F078EC09F01BC031F062
:1005C8001CC032F01DC033F020EE1EF02750D92693
:1005D8002850DA22DECF1BF0DECF1CF0DDCF1DF075
:1005E80031C00CF032C00DF033C00EF020EE0CF02C
:1005F8002750D9262850DA22DECF09F0DECF0AF0BC
:10060800DDCF0BF051EC0BF009C01EF00AC01FF053
:100618000BC020F078EC09F020EE1EF02750D92608
:100628002850DA221BC0DEFF1CC0DEFF1DC0DEFF23
:1006380020EE2BF02750D9262850DA22DECF01F001
:10064800DECF02F0DDCF03F020EE1EF02750D926D2
:100658002850DA22DECF04F0DECF05F0DDCF06F039
:1006680026EC0EF0D8B003D020EE2BF01ED020EEF2
:100678001EF02750D9262850DA22DECF01F0DECF2F
:1006880002F0DDCF03F020EE28F02750D9262850BD
:10069800DA22DECF04F0DECF05F0DDCF06F026EC5F
:1006A8000EF0D8B012D020EE28F02750D9262850C6
:1006B800DA2210EE1EF02750E1262850E222DECF83
:1006C800E6FFDECFE6FFDECFE6FF20EE21F0275083
:1006D800D9262850DA22DECF18F0DECF19F0DDCF88
:1006E8001AF072EC0FF018C01BF019C01CF01AC0F9
:1006F8001DF034C01EF035C01FF036C020F078EC75
:1007080009F01BC02BF01CC02CF01DC02DF02BC015
:100718000CF02CC00DF02DC00EF020EE0FF027507D
:10072800D9262850DA22DECF09F0DECF0AF0DDCF55
:100738000BF051EC0BF009C018F00AC019F00BC00F
:100748001AF072EC0FF018C01EF019C01FF01AC092
:1007580020F031C00CF032C00DF033C00EF020EEA6
:1007680009F02750D9262850DA22DECF09F0DECF4B
:100778000AF0DDCF0BF051EC0BF009C01BF00AC0FA
:100788001CF00BC01DF078EC09F01BC02EF01CC04B
:100798002FF01DC030F02EC01BF02FC01CF030C051
:1007A8001DF020EE1EF02750D9262850DA22DECF81
:1007B8001EF0DECF1FF0DDCF20F078EC09F01BC073
:1007C80037F01CC038F01DC039F020EE2BF0275050
:1007D800D9262850DA22DECF01F0DECF02F0DDCFB5
:1007E80003F037C004F038C005F039C006F026EC35
:1007F8000EF0D8B003D020EE2BF018D037C001F09F
:1008080038C002F039C003F020EE28F02750D9266E
:100818002850DA22DECF04F0DECF05F0DDCF06F077
:1008280026EC0EF0D8B00CD020EE28F02750D926B0
:100838002850DA22DECF37F0DECF38F0DDCF39F0BE
:1008480020EE16F02750D9262850DA22DECF29F0DC
:10085800DDCF2AF029C0D9FF2AC0DAFF37C0DEFF72
:1008680038C0DEFF39C0DEFF20EE21F02750D92640
:100878002850DA2234C0DEFF35C0DEFF36C0DEFF86
:10088800120057500001AA1911E158500001AB1984
:100898000DE159500001AC1909E15A500001AD1998
:1008A800D8A404D0000E91EC0FF08CD0AAC009F0A7
:1008B800ABC00AF0ACC00BF0ADC00CF06EEC0EF0A3
:1008C80009C06BF00AC06CF00BC06DF057C009F09E
:1008D80058C00AF059C00BF05AC00CF06EEC0EF07C
:1008E80009C06EF00AC06FF00BC070F0000E316ED8
:1008F800010E326E6B0E336E000E346E650E356E61
:10090800000E366E6E0E376E000E386EF60E396EAD
:10091800280E3A6E400E3B6EE90E3C6E660E3D6E3A
:10092800410E3E6E420E3F6EF70E406E3D0E416E1A
:10093800000E436E000E426ECBEC0BF0000E276EDD
:10094800010E286EAAEC02F0655066106710D8A454
:1009580004D0000E91EC0FF02BD0000E016E000EAB
:10096800026E000E036E65C004F066C005F067C035
:1009780006F026EC0EF0D8B004D0000E9EEC0FF076
:1009880017D0000EABEC0FF065C009F066C00AF096
:1009980067C00BF0000E0C6E800E0D6EBF0E0E6E53
:1009A80051EC0BF009C065F00AC066F00BC067F0A7
:1009B80065C001F066C002F067C003F0D7EC0AF02A
:1009C8000150BE6E5B500001AE1911E15C50000190
:1009D800AF190DE15D500001B01909E15E50000149
:1009E800B119D8A404D0010E91EC0FF01200AEC0DA
:1009F80009F0AFC00AF0B0C00BF0B1C00CF06EEC5B
:100A08000EF009C071F00AC072F00BC073F05BC041
:100A180009F05CC00AF05DC00BF05EC00CF06EEC33
:100A28000EF009C074F00AC075F00BC076F02F0EF6
:100A3800316E010E326E710E336E000E346E680E1A
:100A4800356E000E366E740E376E000E386EF60E6A
:100A5800396E280E3A6E400E3B6EE90E3C6E660EFD
:100A68003D6E410E3E6E420E3F6EF70E406E3D0EDD
:100A7800416E000E436E000E426ECBEC0BF02F0E53
:100A8800276E010E286EAAEC02F0685069106A10F1
:100A9800D8A404D0010E91EC0FF02BD0000E016EFB
:100AA800000E026E000E036E68C004F069C005F007
:100AB8006AC006F026EC0EF0D8B004D0010E9EEC09
:100AC8000FF017D0010EABEC0FF068C009F069C049
:100AD8000AF06AC00BF0000E0C6E800E0D6EBF0E91
:100AE8000E6E51EC0BF009C068F00AC069F00BC03B
:100AF8006AF068C001F069C002F06AC003F0D7EC80
:100B08000AF00150BB6E12000001DC6F0001DC51DD
:100B18000001D8A494D00001D4510001AA5D0001BD
:100B2800D5510001AB590001D6510001AC59000163
:100B3800AD51800A0001D86F0001D751800A000129
:100B4800D859D8B032D0000E0001C86FAAC0D8F06A
:100B5800ABC0D9F0ACC0DAF0ADC0DBF00001D81FF3
:100B6800D91FDA1FDB1FD82B000ED923DA23DB238A
:100B78000001D4510001D8250001C96F0001D551E9
:100B88000001D9210001CA6F0001D6510001DA2104
:100B98000001CB6F0001D7510001DB210001CC6FB0
:100BA8000001DC5194EC08F012000001AA51000188
:100BB800D45D0001AB510001D5590001AC510001D1
:100BC800D6590001D751800A0001D86F0001AD51F4
:100BD800800A0001D859D8B01200010E0001C86F70
:100BE800D4C0D8F0D5C0D9F0D6C0DAF0D7C0DBF081
:100BF8000001D81FD91FDA1FDB1FD82B000ED923FD
:100C0800DA23DB230001AA510001D8250001C96FAE
:100C18000001AB510001D9210001CA6F0001AC519C
:100C28000001DA210001CB6F0001AD510001DB2189
:100C38000001CC6F0001DC5194EC08F012000001B7
:100C4800DC05D8A412000001D4510001AE5D0001FA
:100C5800D5510001AF590001D6510001B05900012A
:100C6800B151800A0001D86F0001D751800A0001F4
:100C7800D859D8B032D0000E0001C86FAEC0D8F035
:100C8800AFC0D9F0B0C0DAF0B1C0DBF00001D81FB6
:100C9800D91FDA1FDB1FD82B000ED923DA23DB2359
:100CA8000001D4510001D8250001C96F0001D551B8
:100CB8000001D9210001CA6F0001D6510001DA21D3
:100CC8000001CB6F0001D7510001DB210001CC6F7F
:100CD8000001DC5194EC08F012000001AE51000153
:100CE800D45D0001AF510001D5590001B051000198
:100CF800D6590001D751800A0001D86F0001B151BF
:100D0800800A0001D859D8B01200010E0001C86F3E
:100D1800D4C0D8F0D5C0D9F0D6C0DAF0D7C0DBF04F
:100D28000001D81FD91FDA1FDB1FD82B000ED923CB
:100D3800DA23DB230001AE510001D8250001C96F79
:100D48000001AF510001D9210001CA6F0001B05163
:100D58000001DA210001CB6F0001B1510001DB2154
:100D68000001CC6F0001DC5194EC08F012000CC0BB
:100D780001F00DC002F00EC003F00FC004F010C067
:100D880005F011C006F026EC0EF0D8B0120020EEE7
:100D980028F00A50D9260B50DA220CC0DEFF0DC00D
:100DA800DEFF0EC0DEFF20EE2BF00A50D9260B50D6
:100DB800DA220FC0DEFF10C0DEFF11C0DEFF20EE1A
:100DC8002EF00A50D9260B50DA22DF50D8B4120080
:100DD80020EE2BF00A50D9260B50DA22DECF01F094
:100DE800DECF02F0DDCF03F020EE16F00A50D92650
:100DF8000B50DA22DECF12F0DDCF13F012C0D9FF8C
:100E080013C0DAFFDECF04F0DECF05F0DDCF06F049
:100E180026EC0EF0D8B003D020EE2BF026D020EE32
:100E280016F00A50D9260B50DA22DECF12F0DDCFA9
:100E380013F012C0D9FF13C0DAFFDECF01F0DECF06
:100E480002F0DDCF03F020EE28F00A50D9260B502F
:100E5800DA22DECF04F0DECF05F0DDCF06F026EC97
:100E68000EF0D8B01AD020EE28F00A50D9260B5030
:100E7800DA2210EE16F00A50E1260B50E222E6CFF5
:100E880012F0E5CF13F012C0E1FF13C0E2FFDECF8E
:100E9800E6FFDECFE6FFDECFE6FF20EE2BF00A50BE
:100EA800D9260B50DA22DECF01F0DECF02F0DDCFFB
:100EB80003F020EE1EF00A50D9260B50DA22DECFBE
:100EC80004F0DECF05F0DDCF06F026EC0EF0D8B04A
:100ED80013D020EE2BF00A50D9260B50DA2210EE50
:100EE8001EF00A50E1260B50E222DECFE6FFDECFED
:100EF800E6FFDECFE6FF120020EE1EF00A50D926EC
:100F08000B50DA22DECF01F0DECF02F0DDCF03F0A6
:100F180020EE28F00A50D9260B50DA22DECF04F052
:100F2800DECF05F0DDCF06F026EC0EF0D8B01200CB
:100F380020EE28F00A50D9260B50DA2210EE1EF0C7
:100F48000A50E1260B50E222DECFE6FFDECFE6FFB5
:100F5800DECFE6FF120025BE120028BE12002BBE0F
:100F6800120021C0D9FF22C0DAFF23C0DEFF24C04F
:100F7800DEFF25C0DEFF20EE03F02150D9262250E7
:100F8800DA2226C0DEFF27C0DEFF28C0DEFF20EE03
:100F980006F02150D9262250DA2229C0DEFF2AC0C5
:100FA800DEFF2BC0DEFF20EE24F02150D926225090
:100FB800DA22DECF09F0DECF0AF0DECF0BF0DECF8B
:100FC8000CF0E1EC0EF009C012F00AC013F00BC0EF
:100FD80014F0000E156E7A0E166E440E176E3EEC67
:100FE8000CF012C02EF013C02FF014C030F020EE19
:100FF80009F02150D9262250DA2223C0DEFF24C06E
:10100800DEFF25C0DEFF26C009F027C00AF028C091
:101018000BF02EC00CF02FC00DF030C00EF051ECCC
:101028000BF020EE0CF02150D9262250DA2209C00C
:10103800DEFF0AC0DEFF0BC0DEFF29C012F02AC0A7
:1010480013F02BC014F02EC015F02FC016F030C0CE
:1010580017F03EEC0CF020EE0FF02150D92622506C
:10106800DA2212C0DEFF13C0DEFF14C0DEFF20EE5E
:1010780012F02150D9262250DA22DE04DE10D8A43C
:10108800120020EE09F02150D9262250DA22DECFB4
:1010980018F0DECF19F0DDCF1AF072EC0FF020EE69
:1010A80009F02150D9262250DA2218C0DEFF19C0D3
:1010B800DEFF1AC0DEFF20EE0CF02150D9262250A8
:1010C800DA22DECF18F0DECF19F0DDCF1AF072EC9D
:1010D8000FF020EE0CF02150D9262250DA2218C049
:1010E800DEFF19C0DEFF1AC0DEFF20EE0FF0215030
:1010F800D9262250DA22DECF18F0DECF19F0DDCF64
:101108001AF072EC0FF020EE0FF02150D926225081
:10111800DA2218C0DEFF19C0DEFF1AC0DEFF120097
:101128000001D36F000E0001D16F000E0001D26FD5
:101138000001C9510001CA110001CB110001CC11F5
:10114800D8A4A1D0020E0001C819D8A412009BD0BF
:10115800000E0001D16F010E0001D26F0001D351C2
:101168000001D8A414D00001C9510001AA25576E66
:101178000001CA510001AB21586E0001CB5100019A
:10118800AC21596E0001CC510001AD2148D00001BD
:10119800D305D8A482D00001C9510001AE255B6EE9
:1011A8000001CA510001AF215C6E0001CB51000162
:1011B800B0215D6E0001CC510001B1215BD0010E60
:1011C8000001D16F000E0001D26F0001D351000160
:1011D800D8A427D0C9C0CDF0CAC0CEF0CBC0CFF0BC
:1011E800CCC0D0F00001CD1FCE1FCF1FD01FCD2BFC
:1011F800000ECE23CF23D0230001AA510001CD2514
:10120800576E0001AB510001CE21586E0001AC5160
:101218000001CF21596E0001AD510001D0215A6E55
:101228003CD00001D305D8A438D0C9C0CDF0CAC07D
:10123800CEF0CBC0CFF0CCC0D0F00001CD1FCE1F78
:10124800CF1FD01FCD2B000ECE23CF23D0230001DC
:10125800AE510001CD255B6E0001AF510001CE21DA
:101268005C6E0001B0510001CF215D6E0001B151EB
:101278000001D0215E6E11D0010E0001D16F010E68
:101288000001D26F0AD00001C851000AD8B460D753
:10129800010AD8B494D7030AEFD70001D35100014B
:1012A800D8A40FD0819E819C0001D1B102D0819E2B
:1012B80001D0818E0001D2B102D0819C01D0818CF5
:1012C80012000001D305D8A41200819A8198000168
:1012D800D1B102D0819A01D0818A0001D2B102D065
:1012E800819801D0818812001DC021F0226A236AEA
:1012F8001C34213601E322802150266E20C021F0C3
:10130800226A236A1F34213601E322802150256E88
:101318002650D8B40BD02550265CD8B00ED0265015
:1013280000082524216E180E216407D01EC01BF06A
:101338001FC01CF020C01DF012002550D8B40BD0DF
:101348002650255CD8B00ED0255000082624216EE2
:10135800180E216407D01BC01BF01CC01CF01DC058
:101368001DF01200060E246E1DBE248E20BE248C95
:101378001C8EFF0E1B16FF0E1C16000E1D161F8E50
:10138800FF0E1E16FF0E1F16000E20162550265C97
:10139800D8B01BD0D8901E361F36203625062650CA
:1013A8002518D8B40DD0240624C021F0070E211624
:1013B800D8B406D0EFD7D8901D321C321B32262A5B
:1013C80025502618D8B41FD0F6D72650255CD8B09B
:1013D8001AD0D8901B361C361D36260626502518DE
:1013E800D8B40DD0240624C021F0070E2116D8B495
:1013F80006D0EFD7D89020321F321E32252A25502A
:101408002618D8A4F7D724AE0CD0FF0E1B1AFF0E4F
:101418001C1AFF0E1D1A010E1B26000E1C22000EA0
:101428001D2224AC0CD0FF0E1E1AFF0E1F1AFF0E31
:10143800201A010E1E26000E1F22000E2022000E6A
:10144800246E1B501E261C501F221D50202220AE29
:101458000ED0FF0E1E1AFF0E1F1AFF0E201A010EC5
:101468001E26000E1F22000E2022010E246E1EC012
:1014780001F01FC002F020C003F026C004F024C011
:1014880005F086EC0DF001C01BF002C01CF003C093
:101498001DF0120024BE1200245003E12304D8A03A
:1014A800120023C009F024C00AF02BEC0FF009C089
:1014B80012F00AC013F00BC014F020EE24F02150F3
:1014C800D9262250DA22DECF09F0DECF0AF0DECFAD
:1014D8000BF0DECF0CF0E1EC0EF009C015F00AC0FD
:1014E80016F00BC017F03EEC0CF012C029F013C038
:1014F8002AF014C02BF020EE0CF02150D9262250EF
:10150800DA22DECF09F0DECF0AF0DDCF0BF029C0FA
:101518000CF02AC00DF02BC00EF051EC0BF020EEB1
:101528000CF02150D9262250DA2209C0DEFF0AC069
:10153800DEFF0BC0DEFF20EE0FF02150D92622502F
:10154800DA22DECF12F0DECF13F0DDCF14F029C09F
:1015580015F02AC016F02BC017F03EEC0CF020EE68
:101568000FF02150D9262250DA2212C0DEFF13C014
:10157800DEFF14C0DEFF23C025F024C026F0000ED5
:1015880026BEFF0E276E286E20EE24F02150D926A5
:101598002250DA2225C0DEFF26C0DEFF27C0DEFF8C
:1015A80028C0DEFF120003C005F0066A076A02348D
:1015B800053601E3068005500F6E0F50D8A409D0F8
:1015C800000E016E000E026E000E036E000E046E19
:1015D8001200170E056E01C006F002C007F003C026
:1015E80008F00528096E04D0D89008320732063270
:1015F800092EFAD706500A6E028EFF0E0116FF0E4C
:101608000216000E031601500B6E02500C6E0350AA
:101618000D6E0E6A8E0E0F5E0FAE16D00F50800A3A
:101628008F0FD8B009D0000E016E000E026E000EAA
:10163800036E000E046E1200D8900E320D320C327A
:101648000B320F3EF9D715D0170E0F640FD0000ECE
:10165800016E000E026E000E036E000E046E120084
:10166800D8900B360C360D360E360F060F50D8A410
:10167800F7D70A50D8B408D00E1E0D1E0C1E0B6CDE
:10168800000E0C220D220E220BC001F00CC002F03D
:101698000DC003F00EC004F012000BC00FF0106A6A
:1016A800116A0A340F3601E310800F50126E12507F
:1016B800D8A407D0000E096E000E0A6E000E0B6E3D
:1016C80012000EC00FF0106A116A0D340F3601E3D4
:1016D80010800F50176E1750D8A407D0000E096E4F
:1016E800000E0A6E000E0B6E120017507B0F1226AA
:1016F8000BC017F00E50171A800E17160A8E0D8E93
:10170800FF0E0C16FF0E0D16000E0E16000E136EB1
:10171800000E146E000E156E070E166E09A006D088
:101728000C5013260D5014220E501522D8900B324F
:101738000A320932D8900C360D360E36162EEED7F0
:10174800090E166E09A006D00C5013260D5014224F
:101758000E501522D8900B320A320932D890153221
:1017680014321332162EEED713C001F014C002F053
:1017780015C003F012C004F017C005F086EC0DF098
:1017880001C009F002C00AF003C00BF0120020EEFD
:1017980016F03150D9263250DA2235C0DEFF36C075
:1017A800DDFF20EE14F03150D9263250DA2233C052
:1017B800DEFF34C0DDFF20EE18F03150D92632505C
:1017C800DA2237C0DEFF38C0DDFF20EE2EF03150C0
:1017D800D9263250DA22000EDF6E31C00AF032C04C
:1017E8000BF0000E0C6EA00E0D6EC20E0E6E000EEB
:1017F8000F6EA00E106E420E116EBBEC06F020EEBE
:1018080024F03150D9263250DA22640EDE6E000EF2
:10181800DE6E000EDE6E000EDD6E31C01BF032C0D3
:101828001CF042C01DF043C01EF0B1EC0CF031C0FA
:1018380021F032C022F039C023F03AC024F03BC076
:1018480025F03CC026F03DC027F03EC028F03FC040
:1018580029F040C02AF041C02BF0AFEC07F031C0AE
:1018680021F032C022F0000E246E0A0E236E4EECD8
:101878000AF0120014C018F0196A1A6A13341836DC
:1018880001E3198018501F6E1F50D8A407D0000E0E
:10189800126E000E136E000E146E120017C018F0B0
:1018A800196A1A6A1634183601E319801850206E1E
:1018B8002050D8A407D0000E126E000E136E000E32
:1018C800146E1200000E1C6E000E1D6E000E1E6EB1
:1018D8002050890F1F5E14C020F01750201A800E68
:1018E8002016138EFF0E1216FF0E1316000E141676
:1018F800168EFF0E1516FF0E1616000E1716180E6A
:101908001B6ED8901C361D361E361550125C1650AC
:10191800135817501458D8A007D01550125E1650F7
:10192800135A1750145A1C80D8901236133614368E
:101938001B2EE7D71CC001F01DC002F01EC003F02B
:101948001FC004F020C005F086EC0DF001C012F0B5
:1019580002C013F003C014F0120020EE2EF01B504A
:10196800D9261C50DA22DF50D8B45BD020EE12F012
:101978001B50D9261C50DA221D50DE1804E11E50D7
:10198800DE18D8B44ED020EE09F01B50D9261C50D2
:10199800DA22DECF18F0DECF19F0DDCF1AF072ECC4
:1019A8000FF020EE09F01B50D9261C50DA2218C07F
:1019B800DEFF19C0DEFF1AC0DEFF20EE0CF01B5060
:1019C800D9261C50DA22DECF18F0DECF19F0DDCF91
:1019D8001AF072EC0FF020EE0CF01B50D9261C50B8
:1019E800DA2218C0DEFF19C0DEFF1AC0DEFF20EEC3
:1019F8000FF01B50D9261C50DA22DECF18F0DECFAC
:101A080019F0DDCF1AF072EC0FF020EE0FF01B503A
:101A1800D9261C50DA2218C0DEFF19C0DEFF1AC012
:101A2800DEFF20EE12F01B50D9261C50DA221DC012
:101A3800DEFF1EC0DDFF1200000E0001D16F000E98
:101A4800D06F000E0001CD6F52D0800E0001CF6F15
:101A5800000E0001CE6F070E0001CE6501D045D003
:101A6800000E0001D0150001CB6F800E0001D115CA
:101A78000001CC6FD8900001D0350001D06F000173
:101A8800D1350001D16F0001CD51010DF350000196
:101A9800C825D96EF4500001C921DA6EDF50000163
:101AA800CF150009D8B409D0010E0001D0110001EA
:101AB800D06F0001D1510001D16F0001D890CF3112
:101AC8000001CF6F0001CB510001CC11D8B40AD06E
:101AD800210E0001D0190001D06F100E0001D1199C
:101AE8000001D16F0001CE2BB6D70001CD2B00012C
:101AF800CA510001CD5DD8A0A8D7D0C0C8F0D1C0C8
:101B0800C9F012000450D8B405D0015002100310D7
:101B1800D8A40CD0000E016E000E026E000E036EEB
:101B28001200042AD890033202320132000E011446
:101B3800066E000E0214076EFE0E0314086E0650A1
:101B480007100810D8B40CD0ECD7042A010E0126CF
:101B5800000E0222000E0322D89003320232013214
:101B6800000E0114066E000E0214076EFF0E031419
:101B7800086E065007100810D8B406D0E6D7040639
:101B8800D89001360236033602BE03D0020E046036
:101B9800F6D704A0029ED8900432045003120550D0
:101BA800D8A4038E01C001F002C002F003C003F004
:101BB8001200000E0001C96F000EC86F1F0E806E64
:101BC8009268F30E816E0F0E936E000E826E810E78
:101BD800946E0E0EC16EF086F088F18AF188F0904E
:101BE800F092F09CF09E829A040EAC6E800EAB6E62
:101BF800B886020EB06E080EAF6E020ECA6E4F0E99
:101C0800CB6E000ECC6E0C0EBD6E0C0EBA6E500E66
:101C1800BE6E500EBB6EF90EB16E2C0EB26ECF0EAC
:101C2800B36EA082D08EA292A192818E818C818A7D
:101C38008188CA84AC8AAB889D8A9F9A9E9AF28CC6
:101C4800F28E120003AE16D001C007F002C008F0F1
:101C580003C009F0071E081E091E072A000E0822E5
:101C68000922000E0724016E000E0820026E800E65
:101C78000920036E06AE16D004C007F005C008F0B0
:101C880006C009F0071E081E091E072A000E0822B2
:101C98000922000E0724046E000E0820056E800E2F
:101CA8000920066E000E011A000E021A800E031A91
:101CB800000E041A000E051A800E061A0450015C64
:101CC8000550025806500358D8B002D0D8901200D8
:101CD800D8801200000E126E8E0E116E0CAE11D04E
:101CE8000C1E0B1E0A1E096C000E0A220B220C2267
:101CF800010E126E06D0D8900C320B320A3209321D
:101D0800112A000E09140D6E000E0A140E6E000E34
:101D18000B140F6EFF0E0C14106E0D500E100F10DA
:101D28001010D8A4E8D709C001F00AC002F00BC00F
:101D380003F011C004F012C005F086EC0DF001C0EC
:101D480009F002C00AF003C00BF012000600E9CF48
:101D5800BCF0EACFBDF0E1CFBEF0E2CFBFF0D9CF03
:101D6800C0F0DACFC1F0F3CFC2F0F4CFC3F0F6CFB2
:101D7800C4F0F7CFC5F0F8CFC6F0F5CFC7F0C7C0AD
:101D8800F5FFC6C0F8FFC5C0F7FFC4C0F6FFC3C063
:101D9800F4FFC2C0F3FFC1C0DAFFC0C0D9FFBFC0A3
:101DA800E2FFBEC0E1FFBDC0EAFFBCC0E9FFBBC0A7
:101DB800FBFFBAC0FAFF779211008E0E116E06D0A3
:101DC800D8900C320B320A320932112A000E09144B
:101DD8000D6E000E0A140E6E000E0B140F6EFF0E21
:101DE8000C14106E0D500E100F101010D8A4E8D758
:101DF80009C001F00AC002F00BC003F011C004F0E2
:101E0800000E056E86EC0DF001C009F002C00AF064
:101E180003C00BF01200828A000E0001CB6F0FD0B6
:101E28009EA8FED7C8C0D9FFC9C0DAFFDF50AD6E83
:101E38000001C84BC92BACA2FED70001CB2B000177
:101E4800CA510001CB5DD8A0EBD7829A1200000ED0
:101E58000C6E0AAE06D0096C0A1ED8B00A2A010E0A
:101E68000C6E09C001F00AC002F0036A8E0E046EFF
:101E78000CC005F086EC0DF001C009F002C00AF0B4
:101E880003C00BF0120001EE00F05E0EEE6AE806E9
:101E9800FDE100EE80F03A0EEE6AE806FDE100EEA4
:101EA80057F0200EEE6AE806FDE177907792000E73
:101EB800F86E000184EF0FF0D2C0C8F0D3C0C9F0AB
:101EC800D4C0CAF020EC0DF00001C8510001C911BE
:101ED800D8A402D0000E1200FF0E120018501910DC
:101EE8001A10D8B406D0000E181A000E191A800E4F
:101EF8001A1A18C018F019C019F01AC01AF01200EE
:101F0800DDEC0DF0F70E01015E6FC00EE82EFED776
:101F18005E2FFCD7C5EC00F0FDD7016E0150D8A4A8
:101F280003D0818E818C12000104D8A41200818A0A
:101F380081881200016E0150D8A403D0819E818C43
:101F480012000104D8A41200819A81881200016E3F
:101F58000150D8A403D0818E819C12000104D8A41A
:081F68001200818A8198120029
:020000040020DA
:08000000FFFFFFFFFFFFFFFF00
:020000040030CA
:0E000000FF061E1EFF0181FF0FC00FE00F4024
:00000001FF
