:0400000063EF00F0BA
:0E0008007482FACFBDF0FBCFBEF0BCED08F065
:100018007480D8CF44F0E8CF45F0E0CF46F0FACF6F
:1000280047F0FBCF48F0E9CF49F0EACF4AF0E1CFFB
:100038004BF0E2CF4CF0D9CF4DF0DACF4EF0F3CF02
:100048004FF0F4CF50F0F6CF51F0F7CF52F0F8CF91
:1000580053F0F5CF54F0A0B2A1A20DD0010E5D2649
:10006800000E5E225F2260222C0EB26ECF0EB36E9F
:10007800E6EC03F0A19254C0F5FF53C0F8FF52C05C
:10008800F7FF51C0F6FF50C0F4FF4FC0F3FF4EC05A
:10009800DAFF4DC0D9FF4CC0E2FF4BC0E1FF4AC0B8
:1000A800EAFF49C0E9FF48C0FBFF47C0FAFF46C066
:1000B800E0FF45C0E8FF44C0D8FF74901000B1EFDE
:1000C8000EF00001B2510001B319D8B41200000EAD
:1000D8000001EC6F000E0001EB6F000E0001EC6FE9
:1000E800060E0001EC6501D044D00001B351070DA4
:1000F800800E0001D86F000E0001D96FF350000187
:10010800D827F4500001D9230001EC51010DF35018
:100118000001D825D96EF4500001D921DA6E00010A
:10012800EC51010DB40EF324E16E000EF420E26EE2
:10013800DFCFE7FF0001B351070D800E0001D86F34
:10014800000E0001D96FF3500001D827F4500001C8
:10015800D9230001EC51010DF3500001D825D96EC7
:10016800F4500001D921DA6E000EDF6E0001EC2B8D
:10017800B7D70001B32B060E0001B319D8A403D0DA
:10018800000E0001B36F000E81B6010E0001EB6F87
:10019800B40E0001D56F000E0001D66F070E0001E6
:1001A800D76FCAEC0EF00009D8A45BD10001EB515F
:1001B8000001B519D8B435D10001B529D8B431D169
:1001C80050D1000E0001CB6F0001B8510001D96F6A
:1001D800D86B0001B7510001DA6FDB6B0001D85111
:1001E8000001DA130001D9510001DB13DAC0CCF0A9
:1001F800DBC0CDF00001000ECDBFFF0ECE6FCF6F7C
:10020800000E02EC07F02DD1010E0001CB6F0001AA
:10021800B8510001D96FD86B0001B7510001DA6FEE
:10022800DB6B0001D8510001DA130001D95100013C
:10023800DB13DAC0CCF0DBC0CDF00001000ECDBF7F
:10024800FF0ECE6FCF6F000E02EC07F00AD1020E40
:100258000001CB6F0001B8510001D96FD86B0001C4
:10026800B7510001DA6FDB6B0001D8510001DA13D6
:100278000001D9510001DB13DAC0CCF0DBC0CDF0AE
:100288000001000ECDBFFF0ECE6FCF6F000E02EC47
:1002980007F0E7D0000E0001CB6F0001B851000154
:1002A800D96FD86B0001B7510001DA6FDB6B000121
:1002B800D8510001DA130001D9510001DB13DAC06B
:1002C800CCF0DBC0CDF00001000ECDBFFF0ECE6F2D
:1002D800CF6F010E02EC07F0C4D0010E0001CB6F06
:1002E8000001B8510001D96FD86B0001B751000166
:1002F800DA6FDB6B0001D8510001DA130001D95124
:100308000001DB13DAC0CCF0DBC0CDF00001000E39
:10031800CDBFFF0ECE6FCF6F010E02EC07F0A1D05C
:10032800020E0001CB6F0001B8510001D96FD86BE4
:100338000001B7510001DA6FDB6B0001D8510001F1
:10034800DA130001D9510001DB13DAC0CCF0DBC0AD
:10035800CDF00001000ECDBFFF0ECE6FCF6F010EA6
:1003680002EC07F07ED0AAC0DCF0ABC0DDF0ACC078
:10037800DEF0ADC0DFF0AEC0E0F0AFC0E1F0B0C07D
:10038800E2F0B1C0E3F0DC0E0001CB6F000E00011B
:10039800CC6F080E0001CD6F79EC0EF062D0000131
:1003A800B8510001D96FD86B0001B7510001DA6F5D
:1003B800DB6B0001D8510001DA130001D9510001AB
:1003C800DB13DAC0CCF0DBC0CDF00001000ECDBFEE
:1003D800FF0ECE6FCF6F000E5EEC09F042D0000129
:1003E800B8510001D96FD86B0001B7510001DA6F1D
:1003F800DB6B0001D8510001DA130001D95100016B
:10040800DB13DAC0CCF0DBC0CDF00001000ECDBFAD
:10041800FF0ECE6FCF6F010E5EEC09F022D0FF0009
:1004280020D00001B651010AD8B4CBD6030AD8B4FB
:10043800EBD6010AD8B40BD7070AD8B42BD7010AD0
:10044800D8B44BD7030AD8B46BD7010AD8B48BD722
:100458000F0AD8B4A4D7010AD8B4C1D7160AD8B499
:10046800DED7000E0001EC6F060E0001EC6501D02E
:1004780012000001EC51010DB40EF324D96E000EE8
:10048800F420DA6E000EDF6E0001EC2BEDD720EEC3
:1004980014F02750D9262850DA22DECF29F0DDCFF4
:1004A8002AF029C0D9FF2AC0DAFFDECF34F0DECF28
:1004B80035F0DDCF36F034C018F035C019F036C04D
:1004C8001AF0DCEC0EF018C01BF019C01CF01AC0B2
:1004D8001DF020EE18F02750D9262850DA22DECF5A
:1004E80029F0DDCF2AF029C0D9FF2AC0DAFFDECFF4
:1004F8001EF0DECF1FF0DDCF20F0E6EC07F01BC0CA
:1005080031F01CC032F01DC033F020EE1EF0275031
:10051800D9262850DA22DECF1BF0DECF1CF0DDCF43
:100528001DF031C00CF032C00DF033C00EF020EEDB
:100538000CF02750D9262850DA22DECF09F0DECF7A
:100548000AF0DDCF0BF0F2EC0AF009C01EF00AC089
:100558001FF00BC020F0E6EC07F020EE1EF027504D
:10056800D9262850DA221BC0DEFF1CC0DEFF1DC0C2
:10057800DEFF20EE2BF02750D9262850DA22DECFD6
:1005880001F0DECF02F0DDCF03F020EE1EF02750A1
:10059800D9262850DA22DECF04F0DECF05F0DDCFF1
:1005A80006F0C7EC0DF0D8B003D020EE2BF01ED02B
:1005B80020EE1EF02750D9262850DA22DECF01F08F
:1005C800DECF02F0DDCF03F020EE28F02750D92649
:1005D8002850DA22DECF04F0DECF05F0DDCF06F0BA
:1005E800C7EC0DF0D8B012D020EE28F02750D9264D
:1005F8002850DA2210EE1EF02750E1262850E22279
:10060800DECFE6FFDECFE6FFDECFE6FF20EE21F00D
:100618002750D9262850DA22DECF18F0DECF19F07D
:10062800DDCF1AF0DCEC0EF018C01BF019C01CF07E
:100638001AC01DF034C01EF035C01FF036C020F0BF
:10064800E6EC07F01BC02BF01CC02CF01DC02DF0F1
:100658002BC00CF02CC00DF02DC00EF020EE0FF0CA
:100668002750D9262850DA22DECF09F0DECF0AF04B
:10067800DDCF0BF0F2EC0AF009C018F00AC019F04F
:100688000BC01AF0DCEC0EF018C01EF019C01FF0F9
:100698001AC020F031C00CF032C00DF033C00EF09B
:1006A80020EE09F02750D9262850DA22DECF09F0AB
:1006B800DECF0AF0DDCF0BF0F2EC0AF009C01BF038
:1006C8000AC01CF00BC01DF0E6EC07F01BC02EF0B2
:1006D8001CC02FF01DC030F02EC01BF02FC01CF026
:1006E80030C01DF020EE1EF02750D9262850DA22FF
:1006F800DECF1EF0DECF1FF0DDCF20F0E6EC07F0F6
:100708001BC037F01CC038F01DC039F020EE2BF0AC
:100718002750D9262850DA22DECF01F0DECF02F0AA
:10072800DDCF03F037C004F038C005F039C006F05B
:10073800C7EC0DF0D8B003D020EE2BF018D037C09E
:1007480001F038C002F039C003F020EE28F027503D
:10075800D9262850DA22DECF04F0DECF05F0DDCF2F
:1007680006F0C7EC0DF0D8B00CD020EE28F02750DA
:10077800D9262850DA22DECF37F0DECF38F0DDCFA9
:1007880039F020EE16F02750D9262850DA22DECF8D
:1007980029F0DDCF2AF029C0D9FF2AC0DAFF37C0F7
:1007A800DEFF38C0DEFF39C0DEFF20EE21F0275023
:1007B800D9262850DA2234C0DEFF35C0DEFF36C025
:1007C800DEFF120055500001AA1911E15650000130
:1007D800AB190DE157500001AC1909E1585000015F
:1007E800AD19D8A404D0000E2EEC0FF08CD0AAC0FE
:1007F80009F0ABC00AF0ACC00BF0ADC00CF00FECC8
:100808000EF009C068F00AC069F00BC06AF055C064
:1008180009F056C00AF057C00BF058C00CF00FECA6
:100828000EF009C06BF00AC06CF00BC06DF0000E42
:10083800316E010E326E680E336E000E346E620E2B
:10084800356E000E366E6B0E376E000E386EF60E75
:10085800396E280E3A6E400E3B6EE90E3C6E660EFF
:100868003D6E410E3E6E420E3F6EF70E406E3D0EDF
:10087800416E000E436E000E426E6CEC0BF0000EE3
:10088800276E010E286E4BEC02F062506310641064
:10089800D8A404D0000E2EEC0FF02BD0000E016E61
:1008A800000E026E000E036E62C004F063C005F015
:1008B80064C006F0C7EC0DF0D8B004D0000E3BECD5
:1008C8000FF017D0000E48EC0FF062C009F063C0BB
:1008D8000AF064C00BF0000E0C6E800E0D6EBF0E99
:1008E8000E6EF2EC0AF009C062F00AC063F00BC0A9
:1008F80064F062C001F063C002F064C003F078ECF9
:100908000AF00150BE6E59500001AE1911E15A505B
:100918000001AF190DE15B500001B01909E15C500D
:100928000001B119D8A404D0010E2EEC0FF012006A
:10093800AEC009F0AFC00AF0B0C00BF0B1C00CF007
:100948000FEC0EF009C06EF00AC06FF00BC070F02B
:1009580059C009F05AC00AF05BC00BF05CC00CF03B
:100968000FEC0EF009C071F00AC072F00BC073F002
:100978002F0E316E010E326E6E0E336E000E346E17
:10098800650E356E000E366E710E376E000E386EBF
:10099800F60E396E280E3A6E400E3B6EE90E3C6E2E
:1009A800660E3D6E410E3E6E420E3F6EF70E406E75
:1009B8003D0E416E000E436E000E426E6CEC0BF065
:1009C8002F0E276E010E286E4BEC02F06550661054
:1009D8006710D8A404D0010E2EEC0FF02BD0000E17
:1009E800016E000E026E000E036E65C004F066C054
:1009F80005F067C006F0C7EC0DF0D8B004D0010EC2
:100A08003BEC0FF017D0010E48EC0FF065C009F071
:100A180066C00AF067C00BF0000E0C6E800E0D6EFB
:100A2800BF0E0E6EF2EC0AF009C065F00AC066F05F
:100A38000BC067F065C001F066C002F067C003F044
:100A480078EC0AF00150BB6E12000CC001F00DC02A
:100A580002F00EC003F00FC004F010C005F011C082
:100A680006F0C7EC0DF0D8B0120020EE28F00A50BE
:100A7800D9260B50DA220CC0DEFF0DC0DEFF0EC0F7
:100A8800DEFF20EE2BF00A50D9260B50DA220FC0D9
:100A9800DEFF10C0DEFF11C0DEFF20EE2EF00A5090
:100AA800D9260B50DA22DF50D8B4120020EE2BF0F2
:100AB8000A50D9260B50DA22DECF01F0DECF02F041
:100AC800DDCF03F020EE16F00A50D9260B50DA22BB
:100AD800DECF12F0DDCF13F012C0D9FF13C0DAFF5A
:100AE800DECF04F0DECF05F0DDCF06F0C7EC0DF069
:100AF800D8B003D020EE2BF026D020EE16F00A5006
:100B0800D9260B50DA22DECF12F0DDCF13F012C057
:100B1800D9FF13C0DAFFDECF01F0DECF02F0DDCF60
:100B280003F020EE28F00A50D9260B50DA22DECF47
:100B380004F0DECF05F0DDCF06F0C7EC0DF0D8B03D
:100B48001AD020EE28F00A50D9260B50DA2210EEDF
:100B580016F00A50E1260B50E222E6CF12F0E5CF5C
:100B680013F012C0E1FF13C0E2FFDECFE6FFDECFD5
:100B7800E6FFDECFE6FF20EE2BF00A50D9260B5019
:100B8800DA22DECF01F0DECF02F0DDCF03F020EE77
:100B98001EF00A50D9260B50DA22DECF04F0DECF41
:100BA80005F0DDCF06F0C7EC0DF0D8B013D020EE7D
:100BB8002BF00A50D9260B50DA2210EE1EF00A50FC
:100BC800E1260B50E222DECFE6FFDECFE6FFDECFE6
:100BD800E6FF120020EE1EF00A50D9260B50DA224A
:100BE800DECF01F0DECF02F0DDCF03F020EE28F0FB
:100BF8000A50D9260B50DA22DECF04F0DECF05F0FA
:100C0800DDCF06F0C7EC0DF0D8B0120020EE28F0CA
:100C18000A50D9260B50DA2210EE1EF00A50E126AF
:100C28000B50E222DECFE6FFDECFE6FFDECFE6FFA7
:100C3800120025BE120028BE12002BBE120021C0D1
:100C4800D9FF22C0DAFF23C0DEFF24C0DEFF25C0A3
:100C5800DEFF20EE03F02150D9262250DA2226C0EA
:100C6800DEFF27C0DEFF28C0DEFF20EE06F02150A1
:100C7800D9262250DA2229C0DEFF2AC0DEFF2BC087
:100C8800DEFF20EE24F02150D9262250DA22DECFD2
:100C980009F0DECF0AF0DECF0BF0DECF0CF04BEC24
:100CA8000EF009C012F00AC013F00BC014F0000EC9
:100CB800156E7A0E166E440E176EDFEC0BF012C02E
:100CC8002EF013C02FF014C030F020EE09F02150A0
:100CD800D9262250DA2223C0DEFF24C0DEFF25C039
:100CE800DEFF26C009F027C00AF028C00BF02EC08E
:100CF8000CF02FC00DF030C00EF0F2EC0AF020EE30
:100D08000CF02150D9262250DA2209C0DEFF0AC091
:100D1800DEFF0BC0DEFF29C012F02AC013F02BC083
:100D280014F02EC015F02FC016F030C017F0DFEC0D
:100D38000BF020EE0FF02150D9262250DA2212C0F3
:100D4800DEFF13C0DEFF14C0DEFF20EE12F02150DC
:100D5800D9262250DA22DE04DE10D8A4120020EEB2
:100D680009F02150D9262250DA22DECF18F0DECF42
:100D780019F0DDCF1AF0DCEC0EF020EE09F021506E
:100D8800D9262250DA2218C0DEFF19C0DEFF1AC0A9
:100D9800DEFF20EE0CF02150D9262250DA22DECFD9
:100DA80018F0DECF19F0DDCF1AF0DCEC0EF020EEF3
:100DB8000CF02150D9262250DA2218C0DEFF19C0C3
:100DC800DEFF1AC0DEFF20EE0FF02150D926225098
:100DD800DA22DECF18F0DECF19F0DDCF1AF0DCEC26
:100DE8000EF020EE0FF02150D9262250DA2218C03A
:100DF800DEFF19C0DEFF1AC0DEFF12000001D66F49
:100E0800000E0001D46F000E0001D56F0001CC5117
:100E18000001CD110001CE110001CF11D8A4A1D03D
:100E2800020E0001CB19D8A412009BD0000E0001BD
:100E3800D46F010E0001D56F0001D6510001D8A46E
:100E480014D00001CC510001AA25556E0001CD51E6
:100E58000001AB21566E0001CE510001AC21576E46
:100E68000001CF510001AD2148D00001D605D8A41A
:100E780082D00001CC510001AE25596E0001CD5140
:100E88000001AF215A6E0001CE510001B0215B6E06
:100E98000001CF510001B1215BD0010E0001D46FD8
:100EA800000E0001D56F0001D6510001D8A427D04B
:100EB800CCC0D0F0CDC0D1F0CEC0D2F0CFC0D3F0EE
:100EC8000001D01FD11FD21FD31FD02B000ED1235A
:100ED800D223D3230001AA510001D025556E000169
:100EE800AB510001D121566E0001AC510001D22155
:100EF800576E0001AD510001D321586E3CD000015E
:100F0800D605D8A438D0CCC0D0F0CDC0D1F0CEC052
:100F1800D2F0CFC0D3F00001D01FD11FD21FD31FF2
:100F2800D02B000ED123D223D3230001AE510001D0
:100F3800D025596E0001AF510001D1215A6E000130
:100F4800B0510001D2215B6E0001B1510001D321E3
:100F58005C6E11D0010E0001D46F010E0001D56F37
:100F68000AD00001CB51000AD8B460D7010AD8B41E
:100F780094D7030AEFD70001D6510001D8A40FD0A7
:100F8800819E819C0001D4B102D0819E01D0818EC6
:100F98000001D5B102D0819C01D0818C12000001E2
:100FA800D605D8A41200819A81980001D4B102D044
:100FB800819A01D0818A0001D5B102D0819801D0EF
:100FC800818812001DC021F0226A236A1C34213650
:100FD80001E322802150266E20C021F0226A236A74
:100FE8001F34213601E322802150256E2650D8B4C3
:100FF8000BD02550265CD8B00ED0265000082524EA
:10100800216E180E216407D01EC01BF01FC01CF0F3
:1010180020C01DF012002550D8B40BD02650255CF6
:10102800D8B00ED0255000082624216E180E216451
:1010380007D01BC01BF01CC01CF01DC01DF0120007
:10104800060E246E1DBE248E20BE248C1C8EFF0E20
:101058001B16FF0E1C16000E1D161F8EFF0E1E16E9
:10106800FF0E1F16000E20162550265CD8B01BD088
:10107800D8901E361F362036250626502518D8B497
:101088000DD0240624C021F0070E2116D8B406D0AE
:10109800EFD7D8901D321C321B32262A255026182D
:1010A800D8B41FD0F6D72650255CD8B01AD0D8901F
:1010B8001B361C361D36260626502518D8B40DD0EA
:1010C800240624C021F0070E2116D8B406D0EFD785
:1010D800D89020321F321E32252A25502618D8A42F
:1010E800F7D724AE0CD0FF0E1B1AFF0E1C1AFF0EEA
:1010F8001D1A010E1B26000E1C22000E1D2224ACF8
:101108000CD0FF0E1E1AFF0E1F1AFF0E201A010E1A
:101118001E26000E1F22000E2022000E246E1B50D9
:101128001E261C501F221D50202220AE0ED0FF0E5E
:101138001E1AFF0E1F1AFF0E201A010E1E26000E81
:101148001F22000E2022010E246E1EC001F01FC0B7
:1011580002F020C003F026C004F024C005F027ECFC
:101168000DF001C01BF002C01CF003C01DF01200FE
:101178000600E9CFBFF0EACFC0F0E1CFC1F0E2CF7F
:10118800C2F0D9CFC3F0DACFC4F0F3CFC5F0F4CFB3
:10119800C6F0F6CFC7F0F7CFC8F0F8CFC9F0F5CF53
:1011A800CAF09DBA9EAA3CD00001B251070D800E2C
:1011B8000001BB6F000E0001BC6FF3500001BB279C
:1011C800F4500001BC236150010DF3500001BB2510
:1011D800D96EF4500001BC21DA6EAECFDFFF612A70
:1011E8006104D8A40DD00001B251070D800EF3247C
:1011F800D96E000EF420DA6E550EDE18D8A40ED083
:10120800070E6118D8A40CD00001B22B060E0001FD
:10121800B219D8A403D0000E0001B26F000E616E9F
:10122800F0B8F0A213D080A407D0010E0001AA27BD
:10123800000EAB23AC2308D0FF0E0001AA27FF0E37
:10124800AB23FF0EAC23FF0EAD23F092F0B6F0A057
:1012580013D080AA07D0010E0001AE27000EAF23DD
:10126800B02308D0FF0E0001AE27FF0EAF23FF0EFC
:10127800B023FF0EB123F090CAC0F5FFC9C0F8FF34
:10128800C8C0F7FFC7C0F6FFC6C0F4FFC5C0F3FF6C
:10129800C4C0DAFFC3C0D9FFC2C0E2FFC1C0E1FFCA
:1012A800C0C0EAFFBFC0E9FFBEC0FBFFBDC0FAFF78
:1012B800749211000001D16F0001D1510001D8A42E
:1012C80043D0000EEEEC0EF0CCC055F0CDC056F079
:1012D800CEC057F0CFC058F00001CC510001AA5D34
:1012E8000001CD510001AB590001CE510001AC59AC
:1012F8000001AD51800A0001D06F0001CF51800A72
:101308000001D059D8B004D0000EFFEC0EF0120046
:101318000001AA510001CC5D0001AB510001CD597B
:101328000001AC510001CE590001CF51800A0001E3
:10133800D06F0001AD51800A0001D059D8B0120019
:10134800000E10EC0FF012000001D105D8A4120015
:10135800010EEEEC0EF0CCC059F0CDC05AF0CEC064
:101368005BF0CFC05CF00001CC510001AE5D000124
:10137800CD510001AF590001CE510001B059000113
:10138800B151800A0001D06F0001CF51800A0001DD
:10139800D059D8B004D0010EFFEC0EF012000001B5
:1013A800AE510001CC5D0001AF510001CD590001E3
:1013B800B0510001CE590001CF51800A0001D06F11
:1013C8000001B151800A0001D059D8B01200010EB5
:1013D800EEEC0EF0120024BE1200245003E12304A8
:1013E800D8A0120023C009F024C00AF095EC0EF032
:1013F80009C012F00AC013F00BC014F020EE24F05C
:101408002150D9262250DA22DECF09F0DECF0AF0A9
:10141800DECF0BF0DECF0CF04BEC0EF009C015F070
:101428000AC016F00BC017F0DFEC0BF012C029F061
:1014380013C02AF014C02BF020EE0CF02150D9264E
:101448002250DA22DECF09F0DECF0AF0DDCF0BF032
:1014580029C00CF02AC00DF02BC00EF0F2EC0AF0F7
:1014680020EE0CF02150D9262250DA2209C0DEFFE6
:101478000AC0DEFF0BC0DEFF20EE0FF02150D92698
:101488002250DA22DECF12F0DECF13F0DDCF14F0D7
:1014980029C015F02AC016F02BC017F0DFEC0BF0AE
:1014A80020EE0FF02150D9262250DA2212C0DEFF9A
:1014B80013C0DEFF14C0DEFF23C025F024C026F0D1
:1014C800000E26BEFF0E276E286E20EE24F0215057
:1014D800D9262250DA2225C0DEFF26C0DEFF27C02B
:1014E800DEFF28C0DEFF120003C005F0066A076AA7
:1014F8000234053601E3068005500F6E0F50D8A45C
:1015080009D0000E016E000E026E000E036E000E72
:10151800046E1200170E056E01C006F002C007F037
:1015280003C008F00528096E04D0D89008320732A5
:101538000632092EFAD706500A6E028EFF0E0116E1
:10154800FF0E0216000E031601500B6E02500C6EB1
:1015580003500D6E0E6A8E0E0F5E0FAE16D00F5032
:10156800800A8F0FD8B009D0000E016E000E026EEF
:10157800000E036E000E046E1200D8900E320D326B
:101588000C320B320F3EF9D715D0170E0F640FD05F
:10159800000E016E000E026E000E036E000E046E49
:1015A8001200D8900B360C360D360E360F060F503B
:1015B800D8A4F7D70A50D8B408D00E1E0D1E0C1E9A
:1015C8000B6C000E0C220D220E220BC001F00CC079
:1015D80002F00DC003F00EC004F012000BC00FF0B3
:1015E800106A116A0A340F3601E310800F50126E28
:1015F8001250D8A407D0000E096E000E0A6E000E15
:101608000B6E12000EC00FF0106A116A0D340F36FF
:1016180001E310800F50176E1750D8A407D0000EA2
:10162800096E000E0A6E000E0B6E120017507B0F2B
:1016380012260BC017F00E50171A800E17160A8EB6
:101648000D8EFF0E0C16FF0E0D16000E0E16000E58
:10165800136E000E146E000E156E070E166E09A09E
:1016680006D00C5013260D5014220E501522D89077
:101678000B320A320932D8900C360D360E36162E39
:10168800EED7090E166E09A006D00C5013260D5081
:1016980014220E501522D8900B320A320932D890F3
:1016A800153214321332162EEED713C001F014C0BF
:1016B80002F015C003F012C004F017C005F027ECC3
:1016C8000DF001C009F002C00AF003C00BF01200CF
:1016D80020EE16F03150D9263250DA2235C0DEFF1E
:1016E80036C0DDFF20EE14F03150D9263250DA2210
:1016F80033C0DEFF34C0DDFF20EE18F03150D926AC
:101708003250DA2237C0DEFF38C0DDFF20EE2EF07F
:101718003150D9263250DA22000EDF6E31C00AF07D
:1017280032C00BF0000E0C6EA00E0D6EC20E0E6EC7
:10173800000E0F6EA00E106E420E116E29EC05F011
:1017480020EE24F03150D9263250DA22640EDE6EB3
:10175800000EDE6E000EDE6E000EDD6E31C01BF078
:1017680032C01CF042C01DF043C01EF052EC0CF019
:1017780031C021F032C022F039C023F03AC024F041
:101788003BC025F03CC026F03DC027F03EC028F005
:101798003FC029F040C02AF041C02BF01DEC06F0F4
:1017A80031C021F032C022F0000E246E0A0E236EE2
:1017B800EFEC09F0120014C018F0196A1A6A133411
:1017C800183601E3198018501F6E1F50D8A407D08F
:1017D800000E126E000E136E000E146E120017C06B
:1017E80018F0196A1A6A1634183601E31980185065
:1017F800206E2050D8A407D0000E126E000E136E73
:10180800000E146E1200000E1C6E000E1D6E000EEF
:101818001E6E2050890F1F5E14C020F01750201A2A
:10182800800E2016138EFF0E1216FF0E1316000ED2
:101838001416168EFF0E1516FF0E1616000E171626
:10184800180E1B6ED8901C361D361E361550125CAD
:101858001650135817501458D8A007D01550125EB8
:101868001650135A1750145A1C80D8901236133633
:1018780014361B2EE7D71CC001F01DC002F01EC095
:1018880003F01FC004F020C005F027EC0DF001C0E4
:1018980012F002C013F003C014F0120020EE2EF074
:1018A8001B50D9261C50DA22DF50D8B45BD020EE6A
:1018B80012F01B50D9261C50DA221D50DE1804E104
:1018C8001E50DE18D8B44ED020EE09F01B50D92691
:1018D8001C50DA22DECF18F0DECF19F0DDCF1AF077
:1018E800DCEC0EF020EE09F01B50D9261C50DA2251
:1018F80018C0DEFF19C0DEFF1AC0DEFF20EE0CF0B4
:101908001B50D9261C50DA22DECF18F0DECF19F092
:10191800DDCF1AF0DCEC0EF020EE0CF01B50D926CF
:101928001C50DA2218C0DEFF19C0DEFF1AC0DEFF25
:1019380020EE0FF01B50D9261C50DA22DECF18F00B
:10194800DECF19F0DDCF1AF0DCEC0EF020EE0FF050
:101958001B50D9261C50DA2218C0DEFF19C0DEFF42
:101968001AC0DEFF20EE12F01B50D9261C50DA22D6
:101978001DC0DEFF1EC0DDFF1200000E0001D46F87
:10198800000ED36F000E0001D06F52D0800E000100
:10199800D26F000E0001D16F070E0001D16501D092
:1019A80045D0000E0001D3150001CE6F800E000156
:1019B800D4150001CF6FD8900001D3350001D36F43
:1019C8000001D4350001D46F0001D051010DF3504E
:1019D8000001CB25D96EF4500001CC21DA6EDF501E
:1019E8000001D2150009D8B409D0010E0001D311A5
:1019F8000001D36F0001D4510001D46F0001D890C9
:101A0800D2310001D26F0001CE510001CF11D8B4FC
:101A18000AD0210E0001D3190001D36F100E000166
:101A2800D4190001D46F0001D12BB6D70001D02BF7
:101A38000001CD510001D05DD8A0A8D7D3C0CBF00C
:101A4800D4C0CCF012000450D8B405D00150021014
:101A58000310D8A40CD0000E016E000E026E000E0A
:101A6800036E1200042AD890033202320132000EAB
:101A78000114066E000E0214076EFE0E0314086EA3
:101A8800065007100810D8B40CD0ECD7042A010E61
:101A98000126000E0222000E0322D89003320232E1
:101AA8000132000E0114066E000E0214076EFF0EBE
:101AB8000314086E065007100810D8B406D0E6D7ED
:101AC8000406D89001360236033602BE03D0020E51
:101AD8000460F6D704A0029ED89004320450031282
:101AE8000550D8A4038E01C001F002C002F003C063
:101AF80003F01200000E0001CC6F000ECB6F1F0E1A
:101B0800806E9268F30E816E0F0E936E000E826ED9
:101B1800810E946E0E0EC16EF086F088F18AF188FF
:101B2800F090F092F08CF08E829A040EAC6E800EDB
:101B3800AB6EB886020EB06E080EAF6E020ECA6E9D
:101B48004F0ECB6E000ECC6E0C0EBD6E0C0EBA6E28
:101B5800500EBE6E500EBB6EF90EB16E2C0EB26EEC
:101B6800CF0EB36EA082D08EA292A192818E818C6C
:101B7800818A8188CA84AC8AAB889D8A9F8A9E9A0A
:101B8800F28CF28E120003AE16D001C007F002C02C
:101B980008F003C009F0071E081E091E072A000ED8
:101BA80008220922000E0724016E000E0820026E8A
:101BB800800E0920036E06AE16D004C007F005C0DB
:101BC80008F006C009F0071E081E091E072A000EA5
:101BD80008220922000E0724046E000E0820056E54
:101BE800800E0920066E000E011A000E021A800EE1
:101BF800031A000E041A000E051A800E061A045065
:101C0800015C0550025806500358D8B002D0D8904D
:101C18001200D8801200000E126E8E0E116E0CAEDD
:101C280011D00C1E0B1E0A1E096C000E0A220B2274
:101C38000C22010E126E06D0D8900C320B320A32EA
:101C48000932112A000E09140D6E000E0A140E6EC8
:101C5800000E0B140F6EFF0E0C14106E0D500E10AC
:101C68000F101010D8A4E8D709C001F00AC002F07C
:101C78000BC003F011C004F012C005F027EC0DF002
:101C880001C009F002C00AF003C00BF012008E0E6A
:101C9800116E06D0D8900C320B320A320932112A52
:101CA800000E09140D6E000E0A140E6E000E0B14B1
:101CB8000F6EFF0E0C14106E0D500E100F1010103A
:101CC800D8A4E8D709C001F00AC002F00BC003F09D
:101CD80011C004F0000E056E27EC0DF001C009F0EC
:101CE80002C00AF003C00BF01200828A000E000145
:101CF800CE6F0FD09EA8FED7CBC0D9FFCCC0DAFFDD
:101D0800DF50AD6E0001CB4BCC2BACA2FED700014F
:101D1800CE2B0001CD510001CE5DD8A0EBD7829A21
:101D28001200000E0C6E0AAE06D0096C0A1ED8B05E
:101D38000A2A010E0C6E09C001F00AC002F0036AFB
:101D48008E0E046E0CC005F027EC0DF001C009F0F2
:101D580002C00AF003C00BF0120001EE00F05E0EA4
:101D6800EE6AE806FDE100EE80F03B0EEE6AE8065A
:101D7800FDE100EE55F01F0EEE6AE806FDE17490F5
:101D88007492000EF86E000121EF0FF0D5C0CBF071
:101D9800D6C0CCF0D7C0CDF0C1EC0CF00001CB51CF
:101DA8000001CC11D8A402D0000E1200FF0E1200C0
:101DB800185019101A10D8B406D0000E181A000EB0
:101DC800191A800E1A1A18C018F019C019F01AC07A
:101DD8001AF012000001CB6F0001CB510001D8A40A
:101DE80003D0818E818C12000001CB05D8A412008B
:101DF800818A818812000001CB6F0001CB5100015C
:101E0800D8A403D0819E818C12000001CB05D8A4F0
:101E18001200819A818812000001CB6F0001CB511A
:101E28000001D8A403D0818E819C12000001CB054B
:101E3800D8A41200818A819812007EEC0DF0F70E6A
:101E48000001ED6FC00EE82EFED7ED2FFCD765EC34
:101E580000F0FDD7016E0150D8A403D0818E818C8B
:101E680012000104D8A41200818A81881200016E30
:101E78000150D8A403D0819E818C12000104D8A4FB
:101E88001200819A81881200016E0150D8A403D0F3
:101E9800818E819C12000104D8A41200818A819845
:021EA800120026
:020000040020DA
:08000000FFFFFFFFFFFFFFFF00
:020000040030CA
:0E000000FF061E1EFF0181FF0FC00FE00F4024
:00000001FF
