:0400000063EF00F0BA
:0E0008007782FACFBDF0FBCFBEF0C9ED08F055
:100018007780D8CF46F0E8CF47F0E0CF48F0FACF66
:1000280049F0FBCF4AF0E9CF4BF0EACF4CF0E1CFF3
:100038004DF0E2CF4EF0D9CF4FF0DACF50F0F3CFFA
:1000480051F0F4CF52F0F6CF53F0F7CF54F0F8CF89
:1000580055F0F5CF56F0A0B2A1A20DD0010E5F2643
:10006800000E6022612262222C0EB26ECF0EB36E99
:10007800F3EC03F0A19256C0F5FF55C0F8FF54C049
:10008800F7FF53C0F6FF52C0F4FF51C0F3FF50C052
:10009800DAFF4FC0D9FF4EC0E2FF4DC0E1FF4CC0B0
:1000A800EAFF4BC0E9FF4AC0FBFF49C0FAFF48C05E
:1000B800E0FF47C0E8FF46C0D8FF7790100096EFF2
:1000C8000EF00001B2510001B319D8B41200000EAD
:1000D8000001EC6F000E0001EB6F000E0001EC6FE9
:1000E800060E0001EC6501D044D00001B351070DA4
:1000F800800E0001D86F000E0001D96FF350000187
:10010800D827F4500001D9230001EC51010DF35018
:100118000001D825D96EF4500001D921DA6E00010A
:10012800EC51010DB40EF324E16E000EF420E26EE2
:10013800DFCFE7FF0001B351070D800E0001D86F34
:10014800000E0001D96FF3500001D827F4500001C8
:10015800D9230001EC51010DF3500001D825D96EC7
:10016800F4500001D921DA6E000EDF6E0001EC2B8D
:10017800B7D70001B32B060E0001B319D8A403D0DA
:10018800000E0001B36F000E81B6010E0001EB6F87
:10019800B40E0001D56F000E0001D66F070E0001E6
:1001A800D76FF0EC0EF00009D8A468D10001EB512C
:1001B8000001B519D8B43FD10001B529D8B43BD155
:1001C8005DD1000E0001CB6F0001B8510001D96F5D
:1001D800D86B0001B7510001DA6FDB6B0001D85111
:1001E8000001DA130001D9510001DB13DAC0CCF0A9
:1001F800DBC0CDF00001000ECDBFFF0ECE6FCF6F7C
:10020800000E0FEC07F03AD1010E0001CB6F000190
:10021800B8510001D96FD86B0001B7510001DA6FEE
:10022800DB6B0001D8510001DA130001D95100013C
:10023800DB13DAC0CCF0DBC0CDF00001000ECDBF7F
:10024800FF0ECE6FCF6F000E0FEC07F017D1020E26
:100258000001CB6F0001B8510001D96FD86B0001C4
:10026800B7510001DA6FDB6B0001D8510001DA13D6
:100278000001D9510001DB13DAC0CCF0DBC0CDF0AE
:100288000001000ECDBFFF0ECE6FCF6F000E0FEC3A
:1002980007F0F4D0000E0001CB6F0001B851000147
:1002A800D96FD86B0001B7510001DA6FDB6B000121
:1002B800D8510001DA130001D9510001DB13DAC06B
:1002C800CCF0DBC0CDF00001000ECDBFFF0ECE6F2D
:1002D800CF6F010E0FEC07F0D1D0010E0001CB6FEC
:1002E8000001B8510001D96FD86B0001B751000166
:1002F800DA6FDB6B0001D8510001DA130001D95124
:100308000001DB13DAC0CCF0DBC0CDF00001000E39
:10031800CDBFFF0ECE6FCF6F010E0FEC07F0AED042
:10032800020E0001CB6F0001B8510001D96FD86BE4
:100338000001B7510001DA6FDB6B0001D8510001F1
:10034800DA130001D9510001DB13DAC0CCF0DBC0AD
:10035800CDF00001000ECDBFFF0ECE6FCF6F010EA6
:100368000FEC07F08BD0AAC0DCF0ABC0DDF0ACC05E
:10037800DEF0ADC0DFF0AEC0E0F0AFC0E1F0B0C07D
:10038800E2F0B1C0E3F0DC0E0001CB6F000E00011B
:10039800CC6F080E0001CD6FB8EC0EF06FD00001E5
:1003A800B8510001D96FD86B0001B7510001DA6F5D
:1003B800DB6B0001D8510001DA130001D9510001AB
:1003C800DB13DAC0CCF0DBC0CDF00001000ECDBFEE
:1003D800FF0ECE6FCF6F000E6BEC09F04FD000010F
:1003E800B8510001D96FD86B0001B7510001DA6F1D
:1003F800DB6B0001D8510001DA130001D95100016B
:10040800DB13DAC0CCF0DBC0CDF00001000ECDBFAD
:10041800FF0ECE6FCF6F010E6BEC09F02FD0500E90
:100428000001B76503D0500E766E28D0B7C076F0BD
:1004380025D0FF0023D00001B651010AD8B4C1D697
:10044800030AD8B4E1D6010AD8B401D7070AD8B448
:1004580021D7010AD8B441D7030AD8B461D7010A11
:10046800D8B481D70F0AD8B49AD7010AD8B4B7D765
:10047800030AD8B4D4D7150AD8B4DBD7000E0001C4
:10048800EC6F060E0001EC6501D012000001EC5182
:10049800010DB40EF324D96E000EF420DA6E000EAE
:1004A800DF6E0001EC2BEDD720EE14F02750D92693
:1004B8002850DA22DECF29F0DDCF2AF029C0D9FF73
:1004C8002AC0DAFFDECF34F0DECF35F0DDCF36F0EC
:1004D80034C018F035C019F036C01AF014EC0FF01B
:1004E80018C01BF019C01CF01AC01DF020EE18F03F
:1004F8002750D9262850DA22DECF29F0DDCF2AF07E
:1005080029C0D9FF2AC0DAFFDECF1EF0DECF1FF0E8
:10051800DDCF20F0F3EC07F01BC031F01CC032F047
:100528001DC033F020EE1EF02750D9262850DA22BD
:10053800DECF1BF0DECF1CF0DDCF1DF031C00CF09C
:1005480032C00DF033C00EF020EE0CF02750D92643
:100558002850DA22DECF09F0DECF0AF0DDCF0BF02B
:1005680082EC0BF009C01EF00AC01FF00BC020F08F
:10057800F3EC07F020EE1EF02750D9262850DA2297
:100588001BC0DEFF1CC0DEFF1DC0DEFF20EE2BF00F
:100598002750D9262850DA22DECF01F0DECF02F02C
:1005A800DDCF03F020EE1EF02750D9262850DA229E
:1005B800DECF04F0DECF05F0DDCF06F0E4EC0DF081
:1005C800D8B003D020EE2BF01ED020EE1EF027501E
:1005D800D9262850DA22DECF01F0DECF02F0DDCFB7
:1005E80003F020EE28F02750D9262850DA22DECF53
:1005F80004F0DECF05F0DDCF06F0E4EC0DF0D8B066
:1006080012D020EE28F02750D9262850DA2210EEF2
:100618001EF02750E1262850E222DECFE6FFDECF8B
:10062800E6FFDECFE6FF20EE21F02750D92628503E
:10063800DA22DECF18F0DECF19F0DDCF1AF014EC95
:100648000FF018C01BF019C01CF01AC01DF034C000
:100658001EF035C01FF036C020F0F3EC07F01BC0C9
:100668002BF01CC02CF01DC02DF02BC00CF02CC0A2
:100678000DF02DC00EF020EE0FF02750D92628508F
:10068800DA22DECF09F0DECF0AF0DDCF0BF082EC04
:100698000BF009C018F00AC019F00BC01AF014ECDE
:1006A8000FF018C01EF019C01FF01AC020F031C09A
:1006B8000CF032C00DF033C00EF020EE09F02750D8
:1006C800D9262850DA22DECF09F0DECF0AF0DDCFB6
:1006D8000BF082EC0BF009C01BF00AC01CF00BC039
:1006E8001DF0F3EC07F01BC02EF01CC02FF01DC04E
:1006F80030F02EC01BF02FC01CF030C01DF020EED3
:100708001EF02750D9262850DA22DECF1EF0DECF81
:100718001FF0DDCF20F0F3EC07F01BC037F01CC052
:1007280038F01DC039F020EE2BF02750D92628507C
:10073800DA22DECF01F0DECF02F0DDCF03F037C0E2
:1007480004F038C005F039C006F0E4EC0DF0D8B07C
:1007580003D020EE2BF018D037C001F038C002F0DB
:1007680039C003F020EE28F02750D9262850DA2285
:10077800DECF04F0DECF05F0DDCF06F0E4EC0DF0BF
:10078800D8B00CD020EE28F02750D9262850DA22ED
:10079800DECF37F0DECF38F0DDCF39F020EE16F0BF
:1007A8002750D9262850DA22DECF29F0DDCF2AF0CB
:1007B80029C0D9FF2AC0DAFF37C0DEFF38C0DEFF04
:1007C80039C0DEFF20EE21F02750D9262850DA2242
:1007D80034C0DEFF35C0DEFF36C0DEFF12005750E2
:1007E8000001AA1911E158500001AB190DE1595047
:1007F8000001AC1909E15A500001AD19D8A404D080
:10080800000E66EC0FF08CD0AAC009F0ABC00AF05D
:10081800ACC00BF0ADC00CF02CEC0EF009C06AF0C7
:100828000AC06BF00BC06CF057C009F058C00AF052
:1008380059C00BF05AC00CF02CEC0EF009C06DF04A
:100848000AC06EF00BC06FF0000E316E010E326EF2
:100858006A0E336E000E346E640E356E000E366E00
:100868006D0E376E000E386EF60E396E280E3A6E23
:10087800400E3B6EE90E3C6E660E3D6E410E3E6EBE
:10088800420E3F6EF70E406E3D0E416E000E436EF7
:10089800000E426E85EC0AF0000E276E010E286EDF
:1008A80058EC02F0645065106610D8A404D0000E0D
:1008B80066EC0FF02BD0000E016E000E026E000EDB
:1008C800036E64C004F065C005F066C006F0E4EC91
:1008D8000DF0D8B004D0000E73EC0FF017D0000E56
:1008E80080EC0FF064C009F065C00AF066C00BF038
:1008F800000E0C6E800E0D6EBF0E0E6E82EC0BF0AD
:1009080009C064F00AC065F00BC066F064C001F06D
:1009180065C002F066C003F008EC0BF00150BE6E33
:100928005B500001AE1911E15C500001AF190DE1F7
:100938005D500001B01909E15E500001B119D8A459
:1009480004D0010E66EC0FF01200AEC009F0AFC083
:100958000AF0B0C00BF0B1C00CF02CEC0EF009C0DE
:1009680070F00AC071F00BC072F05BC009F05CC097
:100978000AF05DC00BF05EC00CF02CEC0EF009C064
:1009880073F00AC074F00BC075F02F0E316E010EB3
:10099800326E700E336E000E346E670E356E000EBA
:1009A800366E730E376E000E386EF60E396E280EE0
:1009B8003A6E400E3B6EE90E3C6E660E3D6E410E81
:1009C8003E6E420E3F6EF70E406E3D0E416E000EBB
:1009D800436E000E426E85EC0AF02F0E276E010E54
:1009E800286E58EC02F0675068106910D8A404D03B
:1009F800010E66EC0FF02BD0000E016E000E026E99
:100A0800000E036E67C004F068C005F069C006F008
:100A1800E4EC0DF0D8B004D0010E73EC0FF017D051
:100A2800010E80EC0FF067C009F068C00AF069C0D9
:100A38000BF0000E0C6E800E0D6EBF0E0E6E82EC6B
:100A48000BF009C067F00AC068F00BC069F067C016
:100A580001F068C002F069C003F008EC0BF0015027
:100A6800BB6E12000FC001F010C002F011C003F0FD
:100A780012C004F013C005F014C006F0E4EC0DF049
:100A8800D8B0120020EE28F00D50D9260E50DA22E8
:100A98000FC0DEFF10C0DEFF11C0DEFF20EE2BF01E
:100AA8000D50D9260E50DA2212C0DEFF13C0DEFF29
:100AB80014C0DEFF20EE2EF00D50D9260E50DA229B
:100AC800DF50D8B4120020EE2BF00D50D9260E506E
:100AD800DA22DECF01F0DECF02F0DDCF03F020EE28
:100AE80016F00D50D9260E50DA22DECF15F0DDCFE4
:100AF80016F015C0D9FF16C0DAFFDECF04F0DECF3E
:100B080005F0DDCF06F0E4EC0DF0D8B003D020EE10
:100B18002BF026D020EE16F00D50D9260E50DA22F2
:100B2800DECF15F0DDCF16F015C0D9FF16C0DAFFFD
:100B3800DECF01F0DECF02F0DDCF03F020EE28F0AB
:100B48000D50D9260E50DA22DECF04F0DECF05F0A4
:100B5800DDCF06F0E4EC0DF0D8B01AD020EE28F086
:100B68000D50D9260E50DA2210EE16F00D50E1265F
:100B78000E50E222E6CF15F0E5CF16F015C0E1FFE2
:100B880016C0E2FFDECFE6FFDECFE6FFDECFE6FFF0
:100B980020EE2BF00D50D9260E50DA22DECF01F0D0
:100BA800DECF02F0DDCF03F020EE1EF00D50D92687
:100BB8000E50DA22DECF04F0DECF05F0DDCF06F0EE
:100BC800E4EC0DF0D8B013D020EE2BF00D50D92660
:100BD8000E50DA2210EE1EF00D50E1260E50E222E1
:100BE800DECFE6FFDECFE6FFDECFE6FF120020EE27
:100BF8001EF00D50D9260E50DA22DECF01F0DECFDE
:100C080002F0DDCF03F020EE28F00D50D9260E506B
:100C1800DA22DECF04F0DECF05F0DDCF06F0E4EC1B
:100C28000DF0D8B0120020EE28F00D50D9260E5045
:100C3800DA2210EE1EF00D50E1260E50E222DECF31
:100C4800E6FFDECFE6FFDECFE6FF120025BE12008C
:100C580028BE12002BBE120021C0D9FF22C0DAFF25
:100C680023C0DEFF24C0DEFF25C0DEFF20EE03F038
:100C78002150D9262250DA2226C0DEFF27C0DEFF07
:100C880028C0DEFF20EE06F02150D9262250DA22B5
:100C980029C0DEFF2AC0DEFF2BC0DEFF20EE24F0D5
:100CA8002150D9262250DA22DECF09F0DECF0AF011
:100CB800DECF0BF0DECF0CF068EC0EF009C012F0BE
:100CC8000AC013F00BC014F0000E156E7A0E166EE3
:100CD800440E176EFCEC0BF012C02EF013C02FF070
:100CE80014C030F020EE09F02150D9262250DA2223
:100CF80023C0DEFF24C0DEFF25C0DEFF26C009F0CA
:100D080027C00AF028C00BF02EC00CF02FC00DF041
:100D180030C00EF082EC0BF020EE0CF02150D926FA
:100D28002250DA2209C0DEFF0AC0DEFF0BC0DEFF58
:100D380029C012F02AC013F02BC014F02EC015F0F1
:100D48002FC016F030C017F0FCEC0BF020EE0FF0BF
:100D58002150D9262250DA2212C0DEFF13C0DEFF4E
:100D680014C0DEFF20EE12F02150D9262250DA22DC
:100D7800DE04DE10D8A4120020EE09F02150D92696
:100D88002250DA22DECF18F0DECF19F0DDCF1AF0CC
:100D980014EC0FF020EE09F02150D9262250DA2267
:100DA80018C0DEFF19C0DEFF1AC0DEFF20EE0CF00F
:100DB8002150D9262250DA22DECF18F0DECF19F0E2
:100DC800DDCF1AF014EC0FF020EE0CF02150D926EC
:100DD8002250DA2218C0DEFF19C0DEFF1AC0DEFF7B
:100DE80020EE0FF02150D9262250DA22DECF18F05B
:100DF800DECF19F0DDCF1AF014EC0FF020EE0FF073
:100E08002150D9262250DA2218C0DEFF19C0DEFF91
:100E18001AC0DEFF12000001D66F000E0001D46F69
:100E2800000E0001D56F0001CC510001CD11000169
:100E3800CE110001CF11D8A4A1D0020E0001CB1908
:100E4800D8A412009BD0000E0001D46F010E00013F
:100E5800D56F0001D6510001D8A414D00001CC519F
:100E68000001AA25576E0001CD510001AB21586E33
:100E78000001CE510001AC21596E0001CF51000193
:100E8800AD2148D00001D605D8A482D00001CC51AC
:100E98000001AE255B6E0001CD510001AF215C6EF3
:100EA8000001CE510001B0215D6E0001CF5100015B
:100EB800B1215BD0010E0001D46F000E0001D56F87
:100EC8000001D6510001D8A427D0CCC0D0F0CDC0A5
:100ED800D1F0CEC0D2F0CFC0D3F00001D01FD11FC7
:100EE800D21FD31FD02B000ED123D223D32300012E
:100EF800AA510001D025576E0001AB510001D12144
:100F0800586E0001AC510001D221596E0001AD515B
:100F18000001D3215A6E3CD00001D605D8A438D0A0
:100F2800CCC0D0F0CDC0D1F0CEC0D2F0CFC0D3F07D
:100F38000001D01FD11FD21FD31FD02B000ED123E9
:100F4800D223D3230001AE510001D0255B6E0001EE
:100F5800AF510001D1215C6E0001B0510001D221D6
:100F68005D6E0001B1510001D3215E6E11D0010EFA
:100F78000001D46F010E0001D56F0AD00001CB51DA
:100F8800000AD8B460D7010AD8B494D7030AEFD7B7
:100F98000001D6510001D8A40FD0819E819C000188
:100FA800D4B102D0819E01D0818E0001D5B102D08A
:100FB800819C01D0818C12000001D605D8A41200B2
:100FC800819A81980001D4B102D0819A01D0818A96
:100FD8000001D5B102D0819801D0818812001DC0CE
:100FE80021F0226A236A1C34213601E32280215031
:100FF800266E20C021F0226A236A1F34213601E3BD
:1010080022802150256E2650D8B40BD02550265C5E
:10101800D8B00ED0265000082524216E180E216461
:1010280007D01EC01BF01FC01CF020C01DF012000E
:101038002550D8B40BD02650255CD8B00ED02550FA
:1010480000082624216E180E216407D01BC01BF04F
:101058001CC01CF01DC01DF01200060E246E1DBE23
:10106800248E20BE248C1C8EFF0E1B16FF0E1C1611
:10107800000E1D161F8EFF0E1E16FF0E1F16000EE9
:1010880020162550265CD8B01BD0D8901E361F36A7
:101098002036250626502518D8B40DD0240624C09D
:1010A80021F0070E2116D8B406D0EFD7D8901D32FC
:1010B8001C321B32262A25502618D8B41FD0F6D742
:1010C8002650255CD8B01AD0D8901B361C361D3651
:1010D800260626502518D8B40DD0240624C021F0A1
:1010E800070E2116D8B406D0EFD7D89020321F3279
:1010F8001E32252A25502618D8A4F7D724AE0CD09E
:10110800FF0E1B1AFF0E1C1AFF0E1D1A010E1B26BE
:10111800000E1C22000E1D2224AC0CD0FF0E1E1A3D
:10112800FF0E1F1AFF0E201A010E1E26000E1F2288
:10113800000E2022000E246E1B501E261C501F225B
:101148001D50202220AE0ED0FF0E1E1AFF0E1F1AB1
:10115800FF0E201A010E1E26000E1F22000E20224E
:10116800010E246E1EC001F01FC002F020C003F063
:1011780026C004F024C005F044EC0DF001C01BF0BB
:1011880002C01CF003C01DF012000600E9CFBFF03A
:10119800EACFC0F0E1CFC1F0E2CFC2F0D9CFC3F0BF
:1011A800DACFC4F0F3CFC5F0F4CFC6F0F6CFC7F06E
:1011B800F7CFC8F0F8CFC9F0F5CFCAF09DBA9EAA0C
:1011C8003CD00001B251070D800E0001BB6F000E2C
:1011D8000001BC6FF3500001BB27F4500001BC2391
:1011E8006350010DF3500001BB25D96EF450000186
:1011F800BC21DA6EAECFDFFF632A6304D8A40DD01A
:101208000001B251070D800EF324D96E000EF420B0
:10121800DA6E550EDE18D8A40ED0070E6318D8A4BF
:101228000CD00001B22B060E0001B219D8A403D0CD
:10123800000E0001B26F000E636EF0B8F0A213D07A
:1012480080A407D0010E0001AA27000EAB23AC230F
:1012580008D0FF0E0001AA27FF0EAB23FF0EAC2318
:10126800FF0EAD23F092F0B6F0A013D080AA07D0FD
:10127800010E0001AE27000EAF23B02308D0FF0EE9
:101288000001AE27FF0EAF23FF0EB023FF0EB123E0
:10129800F090CAC0F5FFC9C0F8FFC8C0F7FFC7C0C3
:1012A800F6FFC6C0F4FFC5C0F3FFC4C0DAFFC3C071
:1012B800D9FFC2C0E2FFC1C0E1FFC0C0EAFFBFC0A2
:1012C800E9FFBEC0FBFFBDC0FAFF77921100000125
:1012D800D16F0001D1510001D8A443D0000E26ECF3
:1012E8000FF0CCC057F0CDC058F0CEC059F0CFC0E9
:1012F8005AF00001CC510001AA5D0001CD51000156
:10130800AB590001CE510001AC590001AD51800A22
:101318000001D06F0001CF51800A0001D059D8B028
:1013280004D0000E37EC0FF012000001AA510001A2
:10133800CC5D0001AB510001CD590001AC51000159
:10134800CE590001CF51800A0001D06F0001AD5184
:10135800800A0001D059D8B01200000E48EC0FF0F6
:1013680012000001D105D8A41200010E26EC0FF0DE
:10137800CCC05BF0CDC05CF0CEC05DF0CFC05EF0FD
:101388000001CC510001AE5D0001CD510001AF5903
:101398000001CE510001B0590001B151800A00018D
:1013A800D06F0001CF51800A0001D059D8B004D0C5
:1013B800010E37EC0FF012000001AE510001CC5DB8
:1013C8000001AF510001CD590001B0510001CE59C3
:1013D8000001CF51800A0001D06F0001B151800A8D
:1013E8000001D059D8B01200010E26EC0FF01200FF
:1013F80024BE1200245003E12304D8A0120023C005
:1014080009F024C00AF0D4EC0EF009C012F00AC0AA
:1014180013F00BC014F020EE24F02150D9262250EE
:10142800DA22DECF09F0DECF0AF0DECF0BF0DECF16
:101438000CF068EC0EF009C015F00AC016F00BC0ED
:1014480017F0FCEC0BF012C029F013C02AF014C0FE
:101458002BF020EE0CF02150D9262250DA22DECFD4
:1014680009F0DECF0AF0DDCF0BF029C00CF02AC05E
:101478000DF02BC00EF082EC0BF020EE0CF021509A
:10148800D9262250DA2209C0DEFF0AC0DEFF0BC0CF
:10149800DEFF20EE0FF02150D9262250DA22DECFCF
:1014A80012F0DECF13F0DDCF14F029C015F02AC0FA
:1014B80016F02BC017F0FCEC0BF020EE0FF02150CB
:1014C800D9262250DA2212C0DEFF13C0DEFF14C074
:1014D800DEFF23C025F024C026F0000E26BEFF0E36
:1014E800276E286E20EE24F02150D9262250DA22C9
:1014F80025C0DEFF26C0DEFF27C0DEFF28C0DEFFD6
:10150800120020EE16F03150D9263250DA2235C0BA
:10151800DEFF36C0DDFF20EE14F03150D926325000
:10152800DA2233C0DEFF34C0DDFF20EE18F0315080
:10153800D9263250DA2237C0DEFF38C0DDFF20EE70
:101548002EF03150D9263250DA22000EDF6E31C02B
:101558000DF032C00EF07650446E456A441E451EAA
:10156800444A452A44C009F045C00AF0D4EC0EF0BC
:1015780009C00FF00AC010F00BC011F0765002EC51
:101588000FF009C012F00AC013F00BC014F036ECCB
:1015980005F020EE24F03150D9263250DA22640EBC
:1015A800DE6E000EDE6E000EDE6E000EDD6E31C0E9
:1015B8001BF032C01CF042C01DF043C01EF06FEC9F
:1015C8000CF031C021F032C022F039C023F03AC00B
:1015D80024F03BC025F03CC026F03DC027F03EC0BB
:1015E80028F03FC029F040C02AF041C02BF02AEC77
:1015F80006F031C021F032C022F0000E246E0A0E2F
:10160800236EFCEC09F0120003C005F0066A076AB5
:101618000234053601E3068005500F6E0F50D8A43A
:1016280009D0000E016E000E026E000E036E000E51
:10163800046E1200170E056E01C006F002C007F016
:1016480003C008F00528096E04D0D8900832073284
:101658000632092EFAD706500A6E028EFF0E0116C0
:10166800FF0E0216000E031601500B6E02500C6E90
:1016780003500D6E0E6A8E0E0F5E0FAE16D00F5011
:10168800800A8F0FD8B009D0000E016E000E026ECE
:10169800000E036E000E046E1200D8900E320D324A
:1016A8000C320B320F3EF9D715D0170E0F640FD03E
:1016B800000E016E000E026E000E036E000E046E28
:1016C8001200D8900B360C360D360E360F060F501A
:1016D800D8A4F7D70A50D8B408D00E1E0D1E0C1E79
:1016E8000B6C000E0C220D220E220BC001F00CC058
:1016F80002F00DC003F00EC004F012000BC00FF092
:10170800106A116A0A340F3601E310800F50126E06
:101718001250D8A407D0000E096E000E0A6E000EF3
:101728000B6E12000EC00FF0106A116A0D340F36DE
:1017380001E310800F50176E1750D8A407D0000E81
:10174800096E000E0A6E000E0B6E120017507B0F0A
:1017580012260BC017F00E50171A800E17160A8E95
:101768000D8EFF0E0C16FF0E0D16000E0E16000E37
:10177800136E000E146E000E156E070E166E09A07D
:1017880006D00C5013260D5014220E501522D89056
:101798000B320A320932D8900C360D360E36162E18
:1017A800EED7090E166E09A006D00C5013260D5060
:1017B80014220E501522D8900B320A320932D890D2
:1017C800153214321332162EEED713C001F014C09E
:1017D80002F015C003F012C004F017C005F044EC85
:1017E8000DF001C009F002C00AF003C00BF01200AE
:1017F80014C018F0196A1A6A1334183601E31980EC
:1018080018501F6E1F50D8A407D0000E126E000E7D
:10181800136E000E146E120017C018F0196A1A6AB7
:101828001634183601E319801850206E2050D8A4B9
:1018380007D0000E126E000E136E000E146E12000A
:10184800000E1C6E000E1D6E000E1E6E2050890FBD
:101858001F5E14C020F01750201A800E2016138E19
:10186800FF0E1216FF0E1316000E1416168EFF0E1C
:101878001516FF0E1616000E1716180E1B6ED890AA
:101888001C361D361E361550125C1650135817504C
:101898001458D8A007D01550125E1650135A175076
:1018A800145A1C80D8901236133614361B2EE7D7DC
:1018B8001CC001F01DC002F01EC003F01FC004F0E0
:1018C80020C005F044EC0DF001C012F002C013F086
:1018D80003C014F0120020EE2EF01B50D9261C5025
:1018E800DA22DF50D8B45BD020EE12F01B50D92694
:1018F8001C50DA221D50DE1804E11E50DE18D8B440
:101908004ED020EE09F01B50D9261C50DA22DECF2B
:1019180018F0DECF19F0DDCF1AF014EC0FF020EE3E
:1019280009F01B50D9261C50DA2218C0DEFF19C056
:10193800DEFF1AC0DEFF20EE0CF01B50D9261C502B
:10194800DA22DECF18F0DECF19F0DDCF1AF014EC72
:101958000FF020EE0CF01B50D9261C50DA2218C0CC
:10196800DEFF19C0DEFF1AC0DEFF20EE0FF01B50AD
:10197800D9261C50DA22DECF18F0DECF19F0DDCFE1
:101988001AF014EC0FF020EE0FF01B50D9261C5063
:10199800DA2218C0DEFF19C0DEFF1AC0DEFF20EE13
:1019A80012F01B50D9261C50DA221DC0DEFF1EC0C3
:1019B800DDFF1200000E0001D46F000ED36F000E81
:1019C8000001D06F52D0800E0001D26F000E0001CE
:1019D800D16F070E0001D16501D045D0000E00017E
:1019E800D3150001CE6F800E0001D4150001CF6F12
:1019F800D8900001D3350001D36F0001D435000120
:101A0800D46F0001D051010DF3500001CB25D96EE0
:101A1800F4500001CC21DA6EDF500001D215000924
:101A2800D8B409D0010E0001D3110001D36F000111
:101A3800D4510001D46F0001D890D2310001D26F87
:101A48000001CE510001CF11D8B40AD0210E0001F7
:101A5800D3190001D36F100E0001D4190001D46FFF
:101A68000001D12BB6D70001D02B0001CD510001C8
:101A7800D05DD8A0A8D7D3C0CBF0D4C0CCF012008A
:101A88000450D8B405D0015002100310D8A40CD0CB
:101A9800000E016E000E026E000E036E1200042A84
:101AA800D890033202320132000E0114066E000E85
:101AB8000214076EFE0E0314086E06500710081075
:101AC800D8B40CD0ECD7042A010E0126000E02224D
:101AD800000E0322D890033202320132000E0114A4
:101AE800066E000E0214076EFF0E0314086E0650F1
:101AF80007100810D8B406D0E6D70406D8900136E7
:101B08000236033602BE03D0020E0460F6D704A0E4
:101B1800029ED8900432045003120550D8A4038EB4
:101B280001C001F002C002F003C003F01200000E71
:101B38000001CC6F000ECB6F1F0E806E9268F30E03
:101B4800816E0F0E936E000E826E810E946E0E0ED5
:101B5800C16EF086F088F18AF188F090F092F08CEE
:101B6800F08E829A040EAC6E800EAB6EB886020EB2
:101B7800B06E080EAF6E020ECA6E4F0ECB6E000E20
:101B8800CC6E0C0EBD6E0C0EBA6E500EBE6E500EA4
:101B9800BB6EF90EB16E2C0EB26ECF0EB36EA08274
:101BA800D08EA292A192818E818C818A8188CA84EA
:101BB800AC8AAB889D8A9F8A9E9AF28CF28E12001C
:101BC80003AE16D001C007F002C008F003C009F048
:101BD800071E081E091E072A000E08220922000EE9
:101BE8000724016E000E0820026E800E0920036E85
:101BF80006AE16D004C007F005C008F006C009F00C
:101C0800071E081E091E072A000E08220922000EB8
:101C18000724046E000E0820056E800E0920066E4B
:101C2800000E011A000E021A800E031A000E041A82
:101C3800000E051A800E061A0450015C0550025861
:101C480006500358D8B002D0D8901200D88012009D
:101C5800000E126E8E0E116E0CAE11D00C1E0B1EE5
:101C68000A1E096C000E0A220B220C22010E126EAB
:101C780006D0D8900C320B320A320932112A000EE3
:101C880009140D6E000E0A140E6E000E0B140F6E62
:101C9800FF0E0C14106E0D500E100F101010D8A45B
:101CA800E8D709C001F00AC002F00BC003F011C068
:101CB80004F012C005F044EC0DF001C009F002C0B8
:101CC8000AF003C00BF012008E0E116E06D0D890E9
:101CD8000C320B320A320932112A000E09140D6E29
:101CE800000E0A140E6E000E0B140F6EFF0E0C146D
:101CF800106E0D500E100F101010D8A4E8D709C0A0
:101D080001F00AC002F00BC003F011C004F0000E8D
:101D1800056E44EC0DF001C009F002C00AF003C0E2
:101D28000BF0120001EE00F05E0EEE6AE806FDE12F
:101D380000EE80F03B0EEE6AE806FDE100EE57F09B
:101D48001F0EEE6AE806FDE11A0EF66E1F0EF76E1C
:101D5800000EF86E0900F5CF76F077907792000EB6
:101D6800F86E000159EF0FF0828A000E0001CE6F65
:101D78000FD09EA8FED7CBC0D9FFCCC0DAFFDF506A
:101D8800AD6E0001CB4BCC2BACA2FED70001CE2B05
:101D98000001CD510001CE5DD8A0EBD7829A120088
:101DA800000E0C6E0AAE06D0096C0A1ED8B00A2ABC
:101DB800010E0C6E09C001F00AC002F0036A8E0E13
:101DC800046E0CC005F044EC0DF001C009F002C02F
:101DD8000AF003C00BF01200D5C0CBF0D6C0CCF08F
:101DE800D7C0CDF0DEEC0CF00001CB510001CC11D6
:101DF800D8A402D0000E1200FF0E12000C6E0C5078
:101E0800016E026A036A8E0E046E000E056E44ECC3
:101E18000DF001C009F002C00AF003C00BF0120077
:101E2800185019101A10D8B406D0000E181A000E3F
:101E3800191A800E1A1A18C018F019C019F01AC009
:101E48001AF012000001CB6F0001CB510001D8A499
:101E580003D0818E818C12000001CB05D8A412001A
:101E6800818A818812000001CB6F0001CB510001EB
:101E7800D8A403D0819E818C12000001CB05D8A480
:101E88001200819A818812000001CB6F0001CB51AA
:101E98000001D8A403D0818E819C12000001CB05DB
:101EA800D8A41200818A819812009BEC0DF0F70EDD
:101EB8000001ED6FC00EE82EFED7ED2FFCD765ECC4
:101EC80000F0FDD7016E0150D8A403D0818E818C1B
:101ED80012000104D8A41200818A81881200016EC0
:101EE8000150D8A403D0819E818C12000104D8A48B
:101EF8001200819A81881200016E0150D8A403D083
:101F0800818E819C12000104D8A41200818A8198D4
:041F18001200500063
:020000040020DA
:08000000FFFFFFFFFFFFFFFF00
:020000040030CA
:0E000000FF061E1EFF0181FF0FC00FE00F4024
:00000001FF
