:0400000095EF00F088
:0E0008005E82FACF4CF0FBCF4DF000ED05F01C
:100018005E80D8CF3BF0E8CF3CF0E0CF3DF0FACFA0
:100028003EF0FBCF3FF0E9CF40F0EACF41F0E1CF1F
:1000380042F0E2CF43F0D9CF44F0DACF45F0F3CF26
:1000480046F0F4CF47F0F6CF48F0F7CF49F0F8CFB5
:100058004AF0F5CF4BF09DBA9EAA31D03050070D2B
:10006800010E396E000E3A6EF3503926F4503A22DA
:100078002F50010DF3503924D96EF4503A20DA6E1E
:10008800AECFDFFF2F2A2F04D8A40CD03050070D95
:10009800010EF324D96E000EF420DA6E550EDE1828
:1000A800D8A40BD0070E2F18D8A409D0302A060ED2
:1000B8003018D8A402D0000E306E000E2F6EA0B2F9
:1000C800A1A20BD0010E2B26000E2C222D222E22AF
:1000D8002C0EB26ECF0EB36EA1924BC0F5FF4AC084
:1000E800F8FF49C0F7FF48C0F6FF47C0F4FF46C015
:1000F800F3FF45C0DAFF44C0D9FF43C0E2FF42C066
:10010800E1FF41C0EAFF40C0E9FF3FC0FBFF3EC03E
:10011800FAFF3DC0E0FF3CC0E8FF3BC0D8FF5E905F
:06012800100074EF05F069
:100600000048690A000030503118D8B41200000EBA
:1006100000018D6F000E00018C6F000E00018D6FC8
:10062000060E00018D6501D042D03150070D010E3C
:1006300000018A6F000E00018B6FF35000018A27C2
:10064000F45000018B2300018D51010DF350000186
:100650008A25D96EF45000018B21DA6E00018D518C
:10066000010D320EF324E16E000EF420E26EDFCFB6
:10067000E7FF3150070D010E00018A6F000E0001E7
:100680008B6FF35000018A27F45000018B23000187
:100690008D51010DF35000018A25D96EF4500001EF
:1006A0008B21DA6E000EDF6E00018D2BB9D7312A57
:1006B000060E3118D8A402D0000E316E000E84B69A
:1006C000010E00018C6F320E0001876F000E0001D9
:1006D000886F070E0001896F64EC05F00009D8A44B
:1006E00079D000018C513318D8B45BD03328D8B4FA
:1006F00058D070D0000E0001806F35500001816F1E
:10070000826B836B846B000EC0EC04F063D0010E2F
:100710000001806F35500001816F826B836B846BA9
:10072000000EC0EC04F056D0020E0001806F355070
:100730000001816F826B836B846B000EC0EC04F050
:1007400049D0000E0001806F35500001816F826B2F
:10075000836B846B010EC0EC04F03CD0010E0001F1
:10076000806F35500001816F826B836B846B010E4B
:10077000C0EC04F02FD0020E0001806F3550000154
:10078000816F826B836B846B010EC0EC04F022D00E
:100790003550D8B402D080801DD080901BD0FF008F
:1007A00019D03450010AD8B4A5D7030AD8B4AFD7AA
:1007B000010AD8B4B9D7070AD8B4C3D7010AD8B444
:1007C000CDD7030AD8B4D7D7180AD8B4E1D7010ACD
:1007D000D8B4E5D7000E00018D6F060E00018D65BF
:1007E00001D0120000018D51010D320EF324D96E9B
:1007F000000EF420DA6E000EDF6E00018D2BEDD7B7
:10080000000E0001866F000E856F000E0001826FE2
:1008100050D0800E0001846F000E0001836F070E20
:100820000001836501D043D0000E00018515000151
:10083000806F800E000186150001816FD890000145
:1008400085350001856F000186350001866F000146
:100850008251010DF3505A24D96EF4505B20DA6EA8
:10086000DF50000184150009D8B409D0010E000141
:1008700085110001856F000186510001866F00011E
:10088000D89084310001846F0001805100018111F2
:10089000D8B40AD0210E000185190001856F100E11
:1008A000000186190001866F0001832BB8D7000173
:1008B000822B5C500001825DD8A0ABD785C05AF076
:1008C00086C05BF01200000E5C6E000E5B6E1F0EA9
:1008D000806EFE0E926EDF0E816E130E936E000E12
:1008E000826EF90E946E0F0EC16E8080819A040E96
:1008F000AC6E800EAB6EB886020EB06E080EAF6E98
:10090000020ECA6E4F0ECB6E000ECC6E0C0EBD6E7C
:100910000C0EBA6E1E0EBE6E1E0EBB6EF90EB16EC2
:100920002C0EB26ECF0EB36EA082D08EA292A19288
:10093000818E818C81868184CA84000E5C6E000E5B
:100940005B6E5CBE06D05C5012E10A0E5B5CD8B0F8
:100950000ED0F70E5A6EC00EE82EFED75A2EFCD7D8
:100960005B4A5C2A5CBEF5D75C5001E1EED7809013
:10097000AC8AAB889D8A9F9A9E9AF28CF28E120066
:100980005A6E000E5B6E000E5C6E0ED0000E09D02B
:10099000010E03D05C6E14D0000E5B6E000EFAD711
:1009A000010E5B6E010EF6D700018051000AD8B42B
:1009B000EDD7010AD8B4ECD7030AD8B4EDD7F0D7F5
:1009C0005A50D8A40DD0819E819C5BA002D0818E0C
:1009D00001D0819E5CA002D0818C1200819C12000B
:1009E0005A04D8A41200819681945BA002D081861B
:1009F00001D081965CA002D0818412008194120003
:100A00000600E9CF4EF0EACF4FF0E1CF50F0E2CF51
:100A100051F0D9CF52F0DACF53F0F3CF54F0F4CFF6
:100A200055F0F6CF56F0F7CF57F0F8CF58F0F5CF96
:100A300059F059C0F5FF58C0F8FF57C0F7FF56C02E
:100A4000F6FF55C0F4FF54C0F3FF53C0DAFF52C0A5
:100A5000D9FF51C0E2FF50C0E1FF4FC0EAFF4EC0D6
:100A6000E9FF4DC0FBFF4CC0FAFF5E921100818A86
:100A7000000E5D6E0ED09EA8FED75AC0F6FF5BC07A
:100A8000F7FF0800F5CFADFF5A4A5B2AACA2FED7AC
:100A90005D2A5C505D5CD8A0EED7819A120063ECB1
:100AA00004F0010E5A6E060E5B6E030E5C6E37ECA0
:100AB00005F0F70E00018E6FC00EE82EFED78E2FC8
:100AC000FCD703EC03F0FDD787C05AF088C05BF079
:100AD00089C05CF000EC04F05A505B10D8A402D03E
:100AE000000E1200FF0E120000EE01F0380EEE6A4A
:100AF000E806FDE15E905E92000EF86E00014FEF99
:020B000005F0FE
:020000040020DA
:08000000FFFFFFFFFFFFFFFF00
:020000040030CA
:0E000000FF061E1EFF0181FF0FC00FE00F4024
:00000001FF
